S113000067204743452031393832800EA3F8482011
S1130010D04220452044204C2041204D80007DC802
S11300203B2716BDF1AABDF1BAB6C80F810B26094C
S11300308E0CB2CECB80BD048FBDF1AF867FB7D01E
S11300400EC6FF8EC880BDF53FCC0203BDF7A904E0
S11300507986A0B7D00E8E09B9BFCBF9867EB7CB0F
S1130060F84CC6058EC8D4BDF5524497D3CE0C1EA9
S11300708EC9E08624BDF6830C248E064D9FD18E56
S1130080C8F8868097C903CAA70030078CC9222DF7
S1130090F7867697B597B6860C97B797B886039781
S11300A0BD4A978B97BF8EC8A0BDF84F3007BDF8E7
S11300B04F3007BDF84F967A97C281032607C610C2
S11300C0D7BCD7C44C0AC227048B0220F897B99630
S11300D07A4A27040FBA20054C97BA97C2967ABD7C
S11300E0F85E8E04909FCFCCFFC0DD3DCEC8AE8EAF
S11300F0C9C98617BDF683BD04BEBDF1AF3CEF96FA
S11301009327210C8B0A9327040A9326170F940F25
S1130110959696260903CA03C98E064D9FD10F965C
S113012096972653969827280A8B26020C8B0A91B9
S11301300A9126C90C910C91961184071026FEF998
S11301400A9226B90A9826B5867FB7D00E7EF000AB
S1130150968B102700AA0A8B2649867FC6058EC86F
S1130160D4BDF5528E04909FCF9679279096BD26E4
S1130170064397977E06A8BD046F0F9796BD260584
S1130180BD046F201ED6C2D7BA9EC39FBB0A930C70
S11301908B0FC886FFD690270597957E00FD979410
S11301A07E00FD96C9102700570C8B96C8D6CA2B23
S11301B02D4A4A4A2A4803CAD6C2D7BA9EC39FBB0D
S11301C0867FC6058EC8D4BDF5528EC8AEBDF84F25
S11301D096B944444CBDF85E8E04909FCF4F4C2892
S11301E01D4A03CA0FC90F8BD6B9C4FC54508E00E4
S11301F0603085D6BA270530185A20F99FCD97C8A4
S113020096CB84FE9AC99A8B1026015B860697C703
S11302108EC8F8A600102B008E96CB2650108E0D9B
S11302206EA604810627020FC7ADB6108EC8E0A6DD
S113023020276AA6029BC0484847479780EC21A024
S1130240012A014081052E5558585757D080C520A2
S1130250270150C43FA621444444CE0DCEA6C697E0
S113026080D1802E386F20969E8A20979EA6048483
S11302700E34108E0DDEEC86BD06D4351096CB26DA
S113028006A6048106270663000CBE20738605A714
S113029006A6018B202802867FA701206331261041
S11302A08CC8F82D8A20590AB5265596B697B59666
S11302B0B7274D4A97B70FC7108E0C7A96BA4810D5
S11302C0AEA6BDF517840F810B2F0144E6A6E70205
S11302D0108EC8DABD06566F00CE0D7E96B94481E5
S11302E0072F02860748EEC6BDF5178407A6C68CFD
S11302F0C91B2604810627F0A704969E8A10979EA0
S113030030078CC922102DFF0A96C7275A96B726A4
S1130310560C8B0C8B0FC30FC4868097C98EC8F8FC
S1130320A70030078CC9222DF7860297BF96B94CD7
S113033097B9840397C296B681082F02800897B6AE
S113034096B984078E0E32A68697B797B80FBEBDAE
S113035006D1D6B9D780C4FCC5F8270B4F58490439
S11303608024024350DDC396C9263196B9811025F5
S11303702BD626C40F2608D6C8C806D7C80F268190
S1130380142519D626C40F2613BDF5171F89BDF5EC
S113039017448400C47F24024350DDBBDCC0978033
S11303A0D3BBDDC091802706969E8A01979E968BCB
S11303B02608961B2D072E1120197E04690C8A9697
S11303C00F8505270E0C8A200A0A8A960F850527B1
S11303D0020A8A96C9266C960F8508271E961185EF
S11303E00826040A8F2614108EC8E08608978FA664
S11303F020270A3126108CC8F826F42017969E8AE6
S113040040979E4FD68ACB10ED218608ED248605B1
S1130410A72363A4961394BF271F8EC8F88604E607
S1130420002B02A70630078CC9222DF34C97CB0F63
S1130430BF0FCC969E8A08979E96B981042D2A9662
S113044026840F2624BDF5178407810523024A4A12
S11304508EC8D4E686C1322310C008E786969E8AE9
S113046002979E9ECF30169FCF7E00FD7E00FD8DAD
S11304700CD790BDF6838D051E317EF683CEC8AEB3
S11304808EC9B28617D69027038EC9C9C80139FF11
S1130490C880A6808880A7C026F8BDF1AF8EFB4037
S11304A09F2ACE0CDFBDF68D8E04A8BDF1AAFEC82E
S11304B0803410B6C8562603351039BDF38CBDF10F
S11304C0AFBD08309656270F96D39745BDF6870FD4
S11304D09C0F9E964597D3BDF192BDF1BABDF1F83C
S11304E0BDF2A57EF289B6C8264739A6C4AB80A75B
S11304F0C044444434029704BDF310BDF3D635021E
S11305009704BDF310A6842AE2393402B7C8238DB8
S1130510058EC92235823408BDF1AFCEC9227EF6DC
S1130520378D1BB7C9AE8D11F6C9AE398D10B7C959
S1130530AE8D06F6C9AE7EF2FCFCC8372006B7C8FD
S11305403BFCC839F7C83C542405B6C83B2006F622
S1130550C83B3D8900F6C83C2A014039108E0CA6E0
S1130560B6C8D4B1C8DA271AB7C8DAE6A4BD066C8F
S1130570B6C8DABD05218EC9E0A084E001ED0250C1
S1130580ED04B6C8D5B1C8DB2724B7C8DBE621BD66
S1130590066CB6C8DBBD0521FDC9AE8EC9E6A084D4
S11305A0E001ED02EC06B0C9AEF0C9AFED04B6C887
S11305B0D6B1C8DC2724B7C8DCE622BD066CB6C8B1
S11305C0DCBD0521FDC9AE8EC9ECA084E001ED02BD
S11305D0EC06B0C9AEF0C9AFED04B6C8D7B1C8DDFA
S11305E0271AB7C8DDE623BD066CB6C8DDBD0521F4
S11305F08EC9F2A084E001ED0250ED04B6C8D8B172
S1130600C8DE2724B7C8DEE624BD066CB6C8DEBD46
S11306100521FDC9AE8EC9F8A084E001ED02EC0607
S1130620B0C9AEF0C9AFED04B6C8D9B1C8DF27254B
S1130630B7C8DFE625BD066CB6C8DFBD0521FDC918
S1130640AE8EC9FEA084E001ED02FCC9E0B0C9AEE3
S1130650F0C9AFED04395F5A108E0CA65CA6A5A1B3
S11306600226F9108EC8DAA6A5A70139BDF1AFD7C5
S113067036BDF5EF7EF1AA7EF5934F43978C86281D
S1130680978B8680979E8602979F35100ABD2F030D
S11306907E00FD967926F9860A97988EC8A08D2B40
S11306A08EC8A78D267E00FDBD046F96BD2713BDA1
S11306B0046F0A930C8B86FF9796D690270997951B
S11306C020E3BD046F20D0979420DACECBEB7EF8E4
S11306D0D8CC01008EC8A00D9027038EC8A7EE01C8
S11306E0BDF87C1E03A101270E96BD817E2C080C4B
S11306F0BDCE0F07BDF68D39BDF2A1CCFA32FDC8CF
S11307002A8E80A0BFC881B6C8BD272C4C81082D75
S1130710028609B7C8807AC880271DB6C8828B06AE
S1130720B7C882F6C8BD5CC1082D02C60910BEC890
S1130730818E074A8D0620DEBDF2A53934161F20AE
S1130740BDF2FCE661BDF40E359600F800FF24F816
S1130750FF00F4FFCC00FFF808FF0018FF0808FFB3
S11307603400FF00F4FFDCF80117FF8CF6C879278A
S11307700E8D14200A17FF80F6C89027022008CE99
S1130780C8A0CC68842006CEC8A7CC6642BDF2FCC3
S1130790CC10007EF37AA6014A81092D39A70139CC
S11307A0108E0DCEEC01444444A6A64C4CDBC0583C
S11307B0585757D780D68ACB1058585757D080C52A
S11307C020270150C43FD78091802E09A6014A8179
S11307D0092D03A701398EC8F88680A70030078C3D
S11307E0C9222DF796B697B5860896B890BE97B7E6
S11307F07E067AA601812427084A81092DD8A701FB
S113080039D68AC01058585757D780E602DBC058EB
S1130810585757D08027E2C52027036C02396A0253
S1130820399626442409A6014A81092DA9A701392C
S1130830BDF5330F4596C926549656270139108EB7
S1130840C98ECE08B4CC0380DD990F9B969E9A9CEA
S1130850979D969A949D27211F899A9B979BD59E35
S11308602604D49C2609ECD802EDA4EC44ED22AD78
S1130870D49699270C8603974633473124049A2645
S1130880D1969B979C0F9E8E01009FD1399ED19645
S1130890C844D6CA2A0344444030869FD19656267B
S11308A0129F4B860F9744863897450F430F420F8C
S11308B09C0F9E39097C09AD0000FF090CC8CD0CC2
S11308C00700097009AF0E0300093809B10C0900CB
S11308D0091909B30F09FF097009B50F050009705B
S11308E0C8CF0F0400097009B70F0300969A949EAD
S11308F0265A6A231027007CAEA43002AFA4204CF1
S113090096264444840F8A09A7222040AEA46A2371
S11309102762308826AFA420336A2327574F97468F
S113092081032709AEA4308810AFA4201F8E00785D
S1130930AFA4C60FE7222014AEA46A232736A62349
S1130940810626038E01503088DBAFA48EC8420A8C
S1130950999699E622E786488B053086ECA4ED84C7
S11309608E09A7A6462B089B99A6869A45974539D2
S11309706A2326D8969A43949B979B39969E949A79
S1130980270297673440969FCE0997484833C6BDDF
S1130990F92E0F993540967727DA39383F00011937
S11309A03F0002383F00102010080402010000003C
S11309B0900293009005000A0010FFC8C510CECB2A
S11309C080BD04BEBD055C7DC898270EBD0769BD0A
S11309D0F272CE0D14BDF3782003BD0775CE0D0C55
S11309E0BDF378CC8038CEC8AEBDF37AB6C8CB2779
S11309F01AF6C8CCCB33F7C8CC8E0D6086CE970CD4
S1130A008606BDF3B77AC8CBBDF2A1B6C894270950
S1130A10CE0D1ABDF373BD0787B6C8952709CE0D51
S1130A2027BDF373BD077FB6C8962706CE0D34BD28
S1130A30F373B6C88B2623B6C8BF2703BDF2C58E91
S1130A400D42B6C88AC60ECEC922BDF6108EC92282
S1130A50C6CED70CCC0E06BDF3B7B6C88B81142214
S1130A600B8EC986C607BDF53F7FC88CB6C88C2AD5
S1130A701686CE970C8E0E3ACEC9867FC824BD0446
S1130A80EBBDF3547CC824108EC8E0A620102700C8
S1130A908DE622F1C8362703BD066C8E0CA65F5A7C
S1130AA05CC106243DB6C8C0AB85843FB7C9AEA6B9
S1130AB022843FB0C9AE2A0140810122E38EC8DA04
S1130AC0A685A0212A0140810724178604B7C89E61
S1130AD0A6858B1828057FC89E867F8EC8D4A785D7
S1130AE0203AA6218B072B34A7216A23A6232A08A0
S1130AF06F23A6248B09A724A621BD0521FDC9B017
S1130B00A624BD0521B0C9B0F0C9B1FDC9AEFCC968
S1130B10B0BDF2FCFCC9AEBDF3DF20026F2031266C
S1130B20108CC8F81026FF63F6C8C0BD066C860298
S1130B308EC9E0BD050AC6CED70CF6C8C8BDF3B74A
S1130B4086028EC9E6F6C8BA545425044A8E0C4669
S1130B50BD050AC6CED70CBDF3B986028EC9ECF624
S1130B60C8BA26044A8E0C4ABD050AC6CED70CBDA7
S1130B70F3B986028EC9F2F6C8BAC1002708C103C8
S1130B8027044A8E0C4EBD050AC6CED70CBDF3B958
S1130B9086028EC9F8F6C8BA26044A8E0C52BD05E0
S1130BA00AC6CED70CBDF3B986028EC9FEF6C8BA02
S1130BB0C10327044A8E0C56BD050AC6CED70CBD08
S1130BC0F3B9108EC8F8A6202B47A622BBC8C01FB5
S1130BD089B8C836843F2703BD066C8E0C6AA621EB
S1130BE0444444B7C9AFA686E62627046A268B2068
S1130BF0B1C8272703BDF2ABA621BD052C8E0C5A24
S1130C00F6C9AFE6858E0D76A624AE868608BDF3BA
S1130C10B73127108CC9222DAD10FEC8C53BEB2778
S1130C20155815A81527541CC1BD2D003FBCAA1D7D
S1130C3015D9EBA8EB58EBD9ACE43F43D300C1443E
S1130C4056E3EB272A00152718D92D00E8D915D922
S1130C50D600EBD9E827D30018270F0F0F0F0F0F7B
S1130C600F0E0D0C0B0A090807065F5F5F5F5F5FDD
S1130C705F5B57534F4B47433F3B0C820C8E0C9AA0
S1130C800CA60020002000200020002000200016D8
S1130C902B00162B00162B00162B000B162B000B0B
S1130CA0162B000B162B000B16202B36000B1620D0
S1130CB02B36A010D0D2CFC7D2C1CDC5C4A0C2D9C3
S1130CC0006010D7C9CCCCC9C1CDA0C8C1D7CBC98D
S1130CD0CED3001040C7D4A0B1B9B8B20080B30ECF
S1130CE0F7FEB6180D950C0791051491051491059E
S1130CF00F1308150E16088C18168C18168C181657
S1130D0095910917098056C9B018169190404C4521
S1130D1056454C8002F6454E4480FC29F7EB504C76
S1130D2041594552203180FC29F7EB504C4159453B
S1130D3052203280FC290CE347414D45204F564553
S1130D40528050F800F0E000D0F0D800E8180020FD
S1130D501818280030F0200000F0B00000F0500017
S1130D603F75488BB88B8200B87548757E0007962E
S1130D7007A007F308210DEA0DFC0E0E0E200D8EC0
S1130D800D960D9E0DA60DAE0DB60DBE0DC6000042
S1130D900000000000000000020002000000000249
S1130DA00400000204000002040600020400000221
S1130DB0040602000200000204060204000000020D
S1130DC004060204020000020406020402000403F2
S1130DD00201010101010100000000000000007592
S1130DE001000150017502000000ECEC3014D01435
S1130DF014D01430D0EC30ECEC30ECD0ECFA280009
S1130E00F0F0002C10F0D800101000D4F010FA000C
S1130E10F0EC141014F0F0141014ECF0EC1010ECCE
S1130E20ECEC140A14F6F6140A14ECF6EC0A0AECC8
S1130E30F6EC181A1E1E2020242603404002300916
S1130E4006F70900F1C0C002D0D002300600FA1241
S1130E5000EE303005C00002300F06FA09F7F14009
S1130E60000730B00230060FF70603EBD0500E0037
S1130E7040023009FDFA12FDF100C00C40E00230DE
S1130E800F06FD0CF4EEC02010D0C002300909F1A9
S1130E900F06E830400900C002300612F7FA03F4E6
S1130EA00040FFFEE8FEB618141D0A1F051C051DB0
S1130EB00A180A140A160A181E941805931605949B
S1130EC01805961914180516058C91180A140A1693
S1130ED00A90130A888C11641480FE66FEB6160606
S1130EE01D06981C069A1D069C1E069A1D06971C34
S1130EF006969A11641180FFFFFFFFFFFFFFFFFEBC
S1130F00DCBA9876543210FE66FEB621051D051F24
S1130F100521051D051F641F80000000000000005E
S9030000FD
