S0030000FC
S1130000672047434520313938368001ADF85040E8
S1130010E84554434880F85018F8412080F850F0DF
S1130020E0534B455443488000203CC61410BEC8DE
S1130030FE31A5A6A2A7235A26F9A680A7A0A680CA
S1130040A7A0A680A7A010BFC8FE39A6842E173487
S113005004BDF2A5350486CEB7D00C3404BDF40E2D
S11300603504A6802EE539CC0300FDC8FEFDC8FC8E
S11300708601B7C824B70300B703018E015DBD0034
S11300802BBD002BBD002BBD002BBD002BBD002BB9
S1130090CC0300FDC8FECC3075FDC83DBDF1AADD22
S11300A008BDF192C6A08E0300BD004BBDF354CE33
S11300B00171BDF3858600B7C821B7C8228601B790
S11300C0C81F8603B7C82086FFB7C8238600B7C8F1
S11300D01ABDF1F8B6C81BBEC8FEA702B6C81CA755
S11300E00186FFBDF1B4B6C8122650B6C813262542
S11300F0C600B6C8142607C6FFB6C81527A3B6C8D7
S11301001BB7C8FBB6C81CB7C8FAF7C8F98EC8F93C
S1130110BD002B208CC61410BEC8FE10BCC8FC1039
S113012027FF7E31A5A6A2A7215A26F98601A7A0FA
S113013010BFC8FE10BFC8FC7E00A1C61610BEC802
S1130140FE10BCC8FC1027FF58A6A0A73C5A26F9ED
S113015010BEC8FE313D10BFC8FE7E00A1FF0000E6
S1130160000A00FFEC00000AF6FF00140000F6018C
S113017001FC198190455241534580FC1981CC4EB4
S11301804557204F424A45435480FC1981204D4F26
S1130190564580FC1981484C494E458000FFFFEECE
S11301A0EEDDDDCCCCBBBBAAAA99998888019DFE63
S11301B0B6090A0E0A0E0510050E050D050B0A0BED
S11301C00A0B0A100A1005120510050E050D0A097E
S11301D00A090A120A12051305120510050E0A0B64
S11201E00A090509050B0A100A0D0A0E140080FE
S9030000FC
