S11300006720474345203139383380FEF8F85030B3
S1130010DC4D454C4F445980F85000DC4D4153545D
S1130020455280008EC8836F808CCBC826F97AC86D
S1130030798601B7C896BD0C4DBD02FFBD0C84BDC9
S11300400D1E7FC89C7FC89F7FC8A27FC8A57FC89C
S1130050917FC9178610B7C91CBDF192BD031ACE92
S11300601895BD02A17DC8F827037E00D4CE189F41
S1130070BD02A17DC8F827037E0092BDF2A5108EB3
S1130080FC2810BFC82A108E00F5CE189217EA1863
S113009020C77FC917BDF192BD031ABDF2A5108E0A
S11300A0FC2810BFC82A108E00F5CE1892BDEAA80D
S11300B0CE18A8BD02A17DC8F827067FC91F7E11EE
S11300C0B5CE18B3BD02A17DC8F827C986FFB7C94C
S11300D01F7E11B8BD02FF7FC9178608B7C91CBDB2
S11300E0F192BD031ACE18C7BD02A17DC8F8270E30
S11300F07FC90EC601F4C910F7C91B7E0165CE186D
S1130100D3BD02A17DC8F827108601B7C90EC60267
S1130110F4C910F7C91B7E0165CE18DFBD02A17DAD
S1130120C8F827108602B7C90EC604F4C910F7C967
S11301301B7E01658607B1C9102717CE1954BD026D
S1130140A17DC8F8270C7FC90E7FC8EEBD027A7E58
S11301500E5BCE18BEBD02A17DC8F81027FF807EBD
S113016000397E00DFBD02FFBDF1928610B7C91CC5
S1130170BDF2A98603B4C90E102700D1810110274E
S113018000D1CE18E3108EF85010BFC82A108E602C
S1130190D8BDEAA8BD031ACE18BEBD02A17DC8F819
S11301A027037E00D48605B7C91CBD02708601A54D
S11301B084102700A4CE18FEBD02A17DC8F827092B
S11301C0BD02708601A884A784BD02708601A5843F
S11301D027968608B7C91CBD02708620A5841027FF
S11301E00088CE193BBD02A17DC8F827148680BAC9
S11301F0C90EB7C90E7FC8EE7FC910BD027ABD0E05
S11302004C8605B7C91CBD02708604A5842750CE50
S11302101916BD02A17DC8F82709BD02708604A87D
S113022084A784BD02708610A5841026FF3A860236
S1130230A5842731CE18EABD02A17DC8F81027FF96
S113024027BD02708602A884A7847E0168CE18CBDD
S11302507E0185CE18D77E0185CE19057E01B8CEE4
S1130260190D7E0212CE18F420CDCE191F16FF757B
S11302708EC8FDC603F4C90E3A398EC8FDA6846F34
S11302800385012714C6D885042602C6F8E703C6E9
S11302900285022602C608E716A6808CC8FF23DD65
S11302A039B6C91CB7C890BD03207DC8F8272CFEF9
S11302B0C8F97AC890272420EEFDC91D8608B7C85E
S11302C090FCC91DBDF2FCBEC921EC81BD040C7DAE
S11302D0C8F827077AC890270220E67DC8A5261B00
S11302E07DC8F82719108EC8A5862FA7A0CC02FEBA
S11302F0EDA410BEC8F910BFC918397FC8F8397FFA
S1130300C8427FC8437FC8447FC8F07FC8F17FC814
S1130310F2861CB7C845BDF2893934087EEB0D3925
S1130320BDF354FFC8F9BDF2A9BD03547DC8F82735
S113033011FFC8FBFEC8F9BD03457CC8F8FEC8FB25
S11303401F311A7F39ECC1FDC82AECC1BDF2FCFF94
S1130350C82C201EECC1FDC82AECC1BDF2FCFFC8AC
S11303602C867EB7CBF8CC03F4FDCBF91CEF868248
S1130370970E0F0D7FC8F88EF9D4CC18830F019710
S11303800BD7000A00CC8081120C00D70097007DA7
S1130390C8000C00B6C82B9701CC0100FEC82C97EE
S11303A0002004A686970AA6C02AF8868197000032
S11303B001860197008CFBB4272D3088501F30B381
S11303C0C82CC0025821008681125A26FA9700F6DA
S11303D0C82AD7010A00CC81011297000F01D70067
S11303E09700C6837E03818698970B0F0D0F0E1A14
S11303F0107EF3545FD70ED701D70D1A10326CC696
S113040098D70B7CC8F8335EBDF35439D704B7C80A
S1130410237FC8F8EC8497010F003002120C00D738
S113042001CC00002013B7C823EC8497010F0030DF
S113043002120C00D701CCFF00970AD705CC00406C
S1130440D50D27FC12970A960D8402BAC8F8B7C8CE
S1130450F8B6C8234A2ACF7EF34F86010F90C10B0A
S11304602306C00C0C9020F68EC8B73A9690C607A7
S11304703DD790A684841F9B90C6043D1F98E684B4
S1130480C4C0DB99D7998EC8C4D69A583AC67F801F
S113049024ED848EC8D5D69A3A96E7489B99A784CA
S11304A096E781052407A7090A9A2B0539800520B8
S11304B0F58607979A39B6C89610270112102B01B2
S11304C00EB7C891CC52A07AC891270C584924F78A
S11304D0CB101AEF1CE020EF8EC8B7FDC891860D33
S11304E0B7C88F7FC890FCC8915849FDC891243083
S11304F0F6C88FB6C890C10D272EC10B272AC10993
S11305002726C1082722C106271EC104271AC102B3
S11305102716C10127128B80A7807AC88F26C73976
S11305207CC890B6C89020F08B40F6C896C10227CC
S113053014C1042710C106270CC1072708C10927C5
S113054004C10B26D38B0120CF108E5AA0CCFC28DB
S1130550FDC82A200A108EF0E5CCFC28FDC82A8E9E
S11305601AFC8608F6C8965A3D3A1F13BDEAA83904
S1130570AEA4A684102700582B47841FD6943DE7C9
S11305809FC897D7EFA6845F843F4848482402C693
S113059005482505270B5C20F8D7E78180271C0F29
S11305A099AEA4EC84CB05588EFC8D3AEC84584962
S11305B0DDF6AEA4EC81AFA47E045A862097992080
S11305C0E081C02419AC3A2706AE3AAFA426A1397B
S11305D08EC900F6C9036F858EC8F06F8539843FD4
S11305E097957DC90EEC81AFA47E05707E00D48EF4
S11305F0C8C5108EC8DEC606E18423066FA46F84C6
S11306002007E684E0A45AE784A681E6A08CC8D437
S113061023E4B6C8F02709B0C8F3B7C8F0BD07365D
S1130620B7C844B6C8F12709B0C8F4B7C8F1BD07C4
S113063036B7C843B6C8F22709B0C8F5B7C8F2BD83
S11306400736B7C842BDF28939108EC8C48EC8D5E2
S1130650BFC8E87AC8E986507DC90E2B04ECA41FF4
S113066098BDF2ABECA17CC8E9108CC8D61024006C
S113067088C10027E1CBC03402BDF2FC35028118E9
S1130680102700C68148102700C081E8102700BA4F
S113069081E4102700A581E0102700A9814C1027D0
S11306A0009EBEC8E8E684C41FC10A240EE684582E
S11306B0254858255958256A5454548E19F13AAE90
S11306C084EC81BDF3B77E0656B6C92C272BCC200B
S11306D070BDF2FCBDF2A581FF271681C024098EEE
S11306E01AD2EC81BDF40E398E1ADBEC81BDF40E06
S11306F0398E1AE7EC81BDF40E3934147FC8248E88
S113070016CAEC81BDF40E35147CC82420A434141C
S11307107FC8248E16EAEC81BDF40E35147CC824FF
S1130720209334147FC8248E1885EC81BDF40E35D3
S1130730147CC824208244444444398E1872200D09
S11307408E185520088E186220038E184B7FC824FB
S1130750EC81BDF40E7CC82416FF478EC8C46F809C
S11307608CC8E726F9397FC9188602B7C91CB6C8F0
S1130770EC270CB6C8ECB0C8EDB7C8EC1600E6B66A
S1130780C8EE81FF102701852B03BD09E5BDF2A941
S1130790108EFC2810BFC82A108EB085CEC904BDA7
S11307A0EAA87AC92D2A058610B7C92DB6C92D81A4
S11307B008242044250ECE196ABD02A17DC8F8275D
S11307C06D4F202ECE1978BD02A17DC8F8275F8613
S11307D005201F44250FCE198ABD02A17DC8F82724
S11307E04D8601200DCE1994BD02A17DC8F8273E87
S11307F08606B7C8901F10B3C82C54FBC890F7C81E
S113080090F6C904C14B271BC0322B0B860C3DFB51
S1130810C890F7C9092017CB02860C3DFBC890F796
S1130820C89539860CB0C8904CB7C8962037B6C85E
S11308301B27322B16B6C90481322729813027257C
S11308407AC90486F8B7C8ED16FF28B6C9048135FD
S11308501027001181311027000B7CC9048608B7CA
S1130860C8ED16FF0EBDF2A5CCC081FBC8ECBDF2ED
S1130870FC8E1AC2EC81BDF40ECCC096FBC8ECBD54
S1130880F2FC8E1A86EC81BDF40ECCC0C0FBC8EC21
S1130890BDF2FC8E1AAEEC81BDF40ECCC0EAFBC8EE
S11308A0ECBDF2FC8E1AC2EC81BDF40ECCC0FFFB91
S11308B0C8ECBDF2FC8E1A86EC81BDF40ECCC029C6
S11308C0FBC8ECBDF2FC8E1A9AEC81BDF40ECCC0D0
S11308D053FBC8ECBDF2FC8E1AAEEC81BDF40ECC19
S11308E0C07DFBC8ECBDF2FC8E1AC2EC81BDF40ED7
S11308F0CCC181BDF2FC8E1ACAEC81BDF40ECC854C
S113090081BDF2FC8E1ACAEC81BDF40E39BD02FF22
S1130910BDF2A57FC88F8620B7C8918E1608C699E8
S1130920BD097C8E161EC6B2BD097C8E1634C6C7A0
S1130930BD097C8E164CC6E0BD097C8E1668C6FACD
S1130940BD097C7CC88F8620B7C8918E168AC616CE
S1130950BD097C8E169AC62FBD097C8E16AAC64880
S1130960BD097C8E16BCC661BD097CCE1944BD028E
S1130970A17DC8F826497DC80F262B3986B074C8D6
S113098091BFC921BD02B97DC8F8260139B6C89105
S11309907DC88F2608B7C90835107E0ECCC624F74B
S11309A0C9098B2020EF7FC80F7FC8158602B7C8FE
S11309B0EE8620B1C9082406CC0218FDC90839B650
S11309C0C908812024F8841FC6088110241054818A
S11309D008240B5481042406548102240139F8C9E3
S11309E008F7C90839CE19A2BD02A17DC8F8273D70
S11309F03410BD02FF35101F10B3C82CC1031026DC
S1130A0001AE86FFB7C8EE39CC0002BD0A1335101B
S1130A107E0EDEFDC90AAE9FC913C603F4C90EF7E4
S1130A20C90358108EC88510AEA5BD0CD939CCFFAA
S1130A30FEBD0A1335107E0F718680AE9FC913A7C1
S1130A40847FC8EE7CC9103510BD0F677FC90E7E48
S1130A500E5B8630B7C9048680B7C8EEB6C880BDC1
S1130A60F1B47DC80F263ABDF192340886C81F8BB5
S1130A70BD0F223508BDF2A9108EF85010BFC82A48
S1130A80108E20C8CE19D4BDEAA8BD07667DC8F86B
S1130A9027CAB6C8958BC0AE9FC913ED81AF9FC955
S1130AA0137FC8158602B7C8EE8634B7C9047FC859
S1130AB0F8397FC918864BB7C9048680B7C8EE7F5A
S1130AC0C8F8B6C880BDF1B47DC80F26D4BDF19274
S1130AD0BD0555340886C81F8BBD0F223508BDF2ED
S1130AE0A9108EF85010BFC82A108E20E8CE19C560
S1130AF017DFB5108E40D8CE19C917DFABBD076616
S1130B007DC8F827BABD04B620B57FC918BDF192D7
S1130B10340886C81F8BBD0F223508CE18C7BD0206
S1130B20A17DC8F827148601BAC910B7C9107FC8B7
S1130B30FDCC010410BEC8832060CE18D3BD02A131
S1130B407DC8F827148602BAC910B7C9107FC8FE39
S1130B50CC010410BEC8852041CE18DFBD02A17DA2
S1130B60C8F827168604BAC910B7C9108610B7C8C2
S1130B70FFCC008210BEC8872020CE194CBD02A134
S1130B807DC8F827078607B7C910201FCE18BEBD39
S1130B9002A17DC8F81027FF74396FAB83000126CA
S1130BA0F96FA4BD0CC535107E00D4BD0C4D20F6E4
S1130BB07FC918BDF192340886C81F8BBD0F22353A
S1130BC008CE19C1BD02A17DC8F827037E0AB2CEA2
S1130BD019E7BD02A17DC8F827037E0B0ACE18BE13
S1130BE0BD02A17DC8F81026F9E5BD02708620A5D6
S1130BF0842726CE193F108E60E0BD0C43CE19AB7E
S1130C00BD02A17DC8F827037E0A08CE19B6BD022D
S1130C10A17DC8F8279D7E0A2ECE1923108E60D898
S1130C20BD0C43CE19DEBD02A17DC8F81027FF8399
S1130C307E0A39CE19D0BD02A17DC8F81027FF73F2
S1130C407E0A528EF850BFC82ABDEAA8398EC92F31
S1130C506F808CCBC823F98607B7C9107FC8FD7F86
S1130C60C8FE8610B7C8FF8EC883108EC889CCC949
S1130C702FED81EDA1C30108ED81EDA1C30108EDC4
S1130C8084EDA4398602B7C89B8EC8A8BDF84F8EE0
S1130C90C8AFBDF84F8607B7C89A8601B7C824BD48
S1130CA004B6BD02FF108EC904CC3420EDA1CC20C3
S1130CB080EDA4CC0218FDC908CC0103FDC88186CF
S1130CC0FFB7C880398EC883108EC889EC81EDA126
S1130CD0EC81EDA1EC84EDA439BFC88FFCC90A43B3
S1130CE053C30001FDC90C7DC90A27041F21200735
S1130CF0BEC88F10BFC88F1F104353C30001F3C871
S1130D008FFDC88F4F5FF3C90A10AE8BF3C90C1067
S1130D10AF8BF3C90A10B3C88F26EB4F5F398EC867
S1130D209CB6C90027028610A780108E0D8A10AFCA
S1130D3081B6C90127028610A780108E0DA610AFB8
S1130D4081B6C90227028610A780108E0DC410AF89
S1130D5081F6C90E2B0C8EC9116F806F806F806F66
S1130D608439108EC9118EC89C8603F6C90EC4033B
S1130D703D3AAFA1F6C90EC403588EC8893AAFA450
S1130D806D942605FCC908ED94398EC89C9F977F05
S1130D90C903108EC889BD0DF0DCF6DD4B8EC89CEE
S1130DA0BCC9112762398EC89F9F978601B7C903B2
S1130DB0108EC88BBD0DF0DCF6DD498EC89FBCC912
S1130DC0112744398EC8A29F978602B7C903BD1064
S1130DD0528EC8A2BCC9112701396F84109E8DA6FA
S1130DE0A2109F8D398EC8F3A6858EC8F0A78539C9
S1130DF0BD0570F6C9038EC90096E7810524E6A6F1
S1130E00858EC8F0A785396F84AE9FC913EC83AF74
S1130E109FC913969A4C810826014FB7C91539BD4D
S1130E20F2A9867FB7C891CCF850FDC82ABDF192CB
S1130E30CE192B108E10D8BDEAA8B6C8914A26E464
S1130E408682B1C90E102702907E0E90BD027ABD33
S1130E500C847FC92A7FC92C7CC8EEBD0CC5BD0D8E
S1130E601EBD11A2BDF289BD02FF7FC90F7FC8EA72
S1130E707FC8EB7FC88F7FC8908606B7C894F6C832
S1130E809AF7C915BD075B8682B1C90E10270226E1
S1130E90BDF2E6B6C880BDF1B4FCC881FDC81FBD73
S1130EA0F1F8BD14B9BD0649BDF289BDF35B7DC837
S1130EB0EE1027011CBD0766BD06126D9FC91127E0
S1130EC00BBDEAF0BD05EF7FC8F8203F7DC8F827C9
S1130ED035FCC90810AE9FC913EDA1BD1196B6C962
S1130EE015F6C89AF7C916B7C89ABEC911BFC897EC
S1130EF0340886C81F8BE680AD9435086F9FC911EE
S1130F00B6C916B7C89A7DC814266686C81F8B0D45
S1130F10122703BD10770D132703BD1089BD0F22BF
S1130F20200D96A527080AA52604AD9FC8A63986D4
S1130F30D01F8B7DC8151027FF56B6C91B43B4C9F3
S1130F4010B7C9107FC90FBD02708620A58427037E
S1130F507E00D4CC0000AE9FC913ED817DC92A2741
S1130F6003BD0F677E00D4BD02708620AA84A784C7
S1130F70397DC90E102A0073BD0F7D20108682B101
S1130F80C92A1027FE997CC92ABD134C39BD0270A9
S1130F908620A5842708AE9FC913A6842003B6C95A
S1130FA008F6C8EFE79FC911AE9FC913EC81AF9F44
S1130FB0C9136D842605CC2224ED84B6C89AB7C91A
S1130FC0157FC92C8EC8F0B6C90E84036F867E0EB9
S1130FD090BD1007BD031ABDF35BBD05EFBDF192D3
S1130FE0CE1954BD02A17DC8F8270C7FC90E7FC855
S1130FF0EEBD027A7E0E5BCE18BEBD02A17DC8F89E
S11310001027FF077E00D47DC902270DB6C8EA2742
S113101008814027058160271D39CCC0FABDF2FC48
S1131020B6C8EB27F48006B7C8EBBDF2AB8E1A49FD
S1131030EC81BDF40E39CCC005BDF2FCB6C8EB277B
S1131040D88006B7C8EBBDF2AB8E1A05EC81BDF4AF
S11310500E39109E8DA6A4818027538EC8A2841FAA
S1131060D6943DE784A6A0109F8D846097EA8140C2
S11310702705816027133986019746864097EA86BB
S11310800497F5861C9745201B860897468660972B
S1131090EA867E97EB860897F586189745108E01A9
S11310A01C109F47867E97EBB6C90297F239109EB3
S11310B087109F8D209CBD0D1EBD0CC57FC92BBE06
S11310C0C88D6F808CCBC823F98601B7C91A8610E6
S11310D0B7C8A5CC2020FDC8ACBDF2E6B6C880BD1B
S11310E0F1B4BD14B9BD0649BDF289BD1007BDF107
S11310F092BD06127DC8A51026008F7DC812270D4B
S1131100B6C92BBBC91AC640F7C92B20407DC813EA
S1131110270DB6C92BBBC91AC660F7C92B202E7D73
S1131120C81427127CC91A861FB1C91A271FB6C84A
S113113094B7C8A520A37DC815279EB6C92BBBC9E3
S11311401ABEC88DA7808680A7847E00D43402BDD1
S11311500F7D350281012712814024014ABEC88DCA
S1131160A780BFC88DC601F7C91AB6C92B3408C6F3
S1131170C81F9BBD106A3508B6C894B7C8A57FC8F8
S1131180A216FF55810127E220D3BD031ABDEACF81
S1131190BD05EF16FF438EC900108EC8F0EC81ED3B
S11311A0A1398EC800860EBD11AF8EC83F860E6F62
S11311B0864A2AFB39BD0AB2CC1824FDC9247FC94A
S11311C0277FC9287FC8EEBD0C84BD0C4DCC2020E0
S11311D0FDC8AC7FC9207FC9118601B7C8FDB7C857
S11311E0FE7FC8FF7FC90EBD027ABD0CC5BD0D1EB2
S11311F0BD075BCCC87DFDC87B7FC9107FC9237F39
S1131200C8EE8EC8AFBDF84F8EC8AFCECBEBBDF8DD
S1131210D88EC89C8640A780860AB7C894CC13FD94
S1131220ED818630B7C892A780CC13F7ED84BD0C4E
S1131230C57FC8A2CC0218FDC908ED9FC8897DC925
S11312401F2608BD14B9BD06492003BD1500BD0302
S11312501ABDF2E6FCC881FDC81FBDF1F8B6C8800E
S1131260BDF1B4BDEACF7DC92326077DC8EE26367D
S113127020197AC92326097FC8EE8EC8AFBDF84F5E
S11312807CC89C7CC89FBD0766200DBD13B67DC875
S113129092102701EA16014EBDF35BBD05EF7DC830
S11312A015279B7E0024BD07667DC910102600C942
S11312B0BEC889EC021026003B7CC9288664B1C9EB
S11312C028102700918640B7C923B6C928810A2669
S11312D0078630B7C9252013811426057FC9242029
S11312E00A800A810A102BFF1F26F67CC927BD132A
S11312F0627E12087DC8F8279F8678B7C920108EB1
S1131300C889EC9FC889F0C9091027001EF7C91DB8
S1131310B6C8EFB7C910FCC908ED9FC88BBD075B01
S1131320340886C81F8BBD0DA62009340886C81F43
S11313308BBD0D8A3508B6C8EFBBC91048B7C8A520
S11313407FC89C7FC89FBD134C16FF4CCC00018EF8
S1131350C8AFBDF87C39CC50008EC8AFBDF87C7ED8
S113136012E18EC8A8CC2062ED81CC202DED8186BF
S113137020F6C927CB30ED84397DC8A5271DBDF2E1
S1131380A97DC91D2B2BCE1937108EF85010BFC85C
S11313902A108EE0E8BDEAA816FEA37FC9107DC915
S11313A0271027FE137AC927BD13627CC92616FEAF
S11313B022CE193420D38650BDF2ABCCC0FBBDF293
S11313C0FC8E1760EC81BDF40ECCBAF7BDF2FC8E36
S11313D017A4EC81BDF40ECCBAF7BDF2FC8E17D97C
S11313E0EC81BDF40E39CCBAFBBDF2FC8E1808ECCE
S11313F081BDF40E7E12988601B7C89239108EC84A
S113140089BD0D8AB6C89C44B7C89F8678B7C920E1
S11314107FC8926D9FC88926427DC9262623340839
S113142086001F8BBDF5173508B1C92524EBB1C95A
S113143024240220E4B7C909FCC9088604ED9FC826
S1131440897FC92678C89C78C89C7FC89FCC1465BE
S1131450FDC89D10BEC88310BFC889BD134C860249
S1131460A79FC889398680B7C8EECC13FDFDC89DF7
S11314708EC8AFBDF84F8634B7C9047FC92639CCAE
S1131480BAFBBDF2FC8E182BEC81BDF40E7E1298D3
S1131490BD0AB27E123EB6C89F2710B6C88FB0C828
S11314A09FB7C894B6C89FB7C88F3986FF108EC837
S11314B09FA7A08E14B8AFA4398660BDF2ABFC160A
S11314C000BDF2FC8E1704EC81BDF40EFC1602BDC7
S11314D0F2FC8E1704EC81BDF40EBDF2E6FC16049A
S11314E0BDF2FC8E1723EC81BDF3D8FC1606BDF2C9
S11314F0FC8E1737EC81BDF40EBDF35BBD05493995
S1131500B6C92027287DC9102623BDF2ABCC098299
S1131510BD152ECC09A2BD152ECC09C2BD152ECCED
S113152009E2BD152EB6C9208005B7C92039340695
S1131530CC2000BDF2FC3506F0C9208E1A72BDF332
S1131540B7390B26D38B0120CF108E5AA0CCFC28A0
S1131550FDC82A200A108EF0E5CCFC28FDC82A8E8E
S11315601AFC8608F6C8965A3D3A1F13BDEAA839F4
S1131570AEA4A684102700582B47841FD6943DE7B9
S11315809FC897D7EFA6845F843F4848482402C683
S113159005482505270B5C20F8D7E78180271C0F19
S11315A099AEA4EC84CB05588EFC8D3AEC84584952
S11315B0DDF6AEA4EC81AFA47E045A862097992070
S11315C0E081C02419AC3A2706AE3AAFA426A1396B
S11315D08EC900F6C9036F858EC8F06F8539843FC4
S11315E097957DC90EEC81AFA47E05707E00D48EE4
S11315F0C8C5108EC8DEC606E18423066FA46F84B6
S11316002185F0851895F788091A062F09F700EE49
S1131610F7F7F400F7090012090908000100081A95
S1131620062F09F700EEF7F7F400F709001209098D
S113163060000100091AFA120C00EE091800E5090D
S11316401E00E5091800EE09600001000B1AFA12E9
S11316500C00EE091800E5091E00E5091800EE0962
S11316605E00E22020E001000E1AFA120C00EE09DE
S11316701800E5091E00E5091800EE094000E22003
S113168020E01E00E22020E00100061A0AF6F6001F
S113169000140A00000A00D80100061AF6F60A002F
S11316A00014F600000A00D80100071AE80008FC3C
S11316B00608F60414F8140808FC0100051AEC00E6
S11316C02814F8F004FC04040100091A00EEECFFED
S11316D0280000FA0AFFFAD800090AFFD800000619
S11316E0F6FF0628000A0A010000071A00F6ECFFBC
S11316F0FCECFF2C0000EC00FF0414FFD400001EDF
S11317001401000009FEFF007F000400FF008000B8
S11317100400FF007F000400FF0080000400FF00BD
S11317207F010008406400F60AC4D8F11E140F08B3
S1131730F1F6F8FC0801000A54FF1515FF0900FF33
S113174006FAFF00F1FFFAFAFFFD03FF03030000AE
S113175018FF000000F400FF00000001000000007A
S1131760157FFF003CFFF400FF00BEFF0600FF02F0
S113177006FF0500000009FF1A00FF000CFFFD0C26
S1131780FFF706FFFD0FFFFD06FFFA00FFFDFA005D
S1131790F400FFEEFDFF12FD0000D9FFEEFDFF1285
S11317A0FD01000011700000F2FFFB00FF00FBFFD1
S11317B0F4F4FFFEFAFF2211FFFD06FF0002FF040E
S11317C000FF0002FF06FDFF09FAFFFDFAFFF40324
S11317D000FFFDFF060F0100000E7000FBF2FFFF8B
S11317E003FFEE03FFFDFAFF0FFDFF00F900000306
S11317F0FFF1000000FCFF0504FFFB04000004FFF0
S11318000009FF03FD0100000A700000F00005F666
S1131810FFFB05FF0909FF04FEFFFCFCFF03FD00BD
S11318200208FFFE05FFFFFB0100000A700000F044
S11318300005F6FFFB05FF000AFF0401FF02F7FFA6
S113184008F900F610FFFE0401000002FEFF000884
S11318500000F8010003FE00FE00FF00080002F88B
S1131860010004FEFF0008000400FF00F800FC0073
S1131870010005FE00FE00FF0008000400FF00F860
S113188000FE00010003FE000108FF000000FFF855
S113189001004F5280E85040E04D5553494380E8E1
S11318A050C0E547414D4580E85040E047414D4533
S11318B0203180E850C0E047414D45203280E85057
S11318C090354558495480E85040D8564F494345CF
S11318D0203180E85015D8564F494345203280E8DE
S11318E050E6DA52485954484D80E850D6E0464C08
S11318F055544580E850D6E05049414E4F80E85059
S113190030EF4F4E80E85030ED4F464680E85005AA
S1131910E54C4F554480E85005E5534F465480E864
S1131920509090434F4D504F5345804F564552462B
S11319304C4F57804849804C4F5780E85090904511
S113194044495480E85098EA444F5480E850C0EA2F
S1131950414C4C80E8509090504C41598043594D33
S113196042414C80534E41524580EE41958A43207A
S11319702020442020204580EE4195F5462020205B
S113198047202020412020204280EE4CB097232085
S113199020202380EE4CB000232020202320202070
S11319A02380EE4CD0E84D20206280E850DDD844FE
S11319B0454C45544580E850BCD8494E5345525493
S11319C080E850FEE84B45598053454C45435480CC
S11319D0E850BCC85452414E53504F534580E850D0
S11319E0DDE54C4F4F5080E8501FDB4552415345D5
S11319F0801608161E1634164C1668168A169A1681
S1131A00AA16BC16BC156AFFF005FF0A1EFF10FBE0
S1131A10FFF6E200FD01FF0A1E00F603FFF6E200F6
S1131A200102FF0AFD000206FFF60300050EFF0A8D
S1131A30FD000206FFF60300F9F4FFE2000000F1E6
S1131A40FF0A0FFFF60F0100000C6AFF0AE2FFFE17
S1131A500DFF0104FF0201FFFEFFFFFD02FFFA0B71
S1131A600005F1FFD3000000F1FF0A0FFFF60F019C
S1131A700000E4F400181010180010F000E8F0F072
S1131A80E800F0100100052AFFA600FF003CFF5A01
S1131A900000A6F1FFB000010000052AFFA600FF28
S1131AA0003CFF5A0000A6E2FFB000010000052A36
S1131AB0FFA600FF003CFF5A0000A6D3FFB00001C0
S1131AC00000017FFFC40001000002FFFF007F014E
S1131AD000000130FFE200FF000A010230FF0014A1
S1131AE00000F6FFE20001053000000FFF00F1FFE7
S1131AF0E200FF000F000FF1FF000A012020204345
S1131B002020208020202042202020804220464C7B
S1131B104154208020202041202020804120464C18
S1131B2041542080202020472020208046205348F4
S1131B304152508020202046202020802020204513
S1131B40202020804520464C4154208020202044E1
S1131B50202020804420464C4154208020202043D3
S1131B60202020808604BAC910B7C9108610B7C8CF
S1131B70FFCC008210BEC8872020CE194CBD02A124
S1131B807DC8F827078607B7C910201FCE18BEBD29
S1131B9002A17DC8F81027FF74396FAB83000126BA
S1131BA0F96FA4BD0CC535107E00D4BD0C4D20F6D4
S1131BB07FC918BDF192340886C81F8BBD0F22352A
S1131BC008CE19C1BD02A17DC8F827037E0AB2CE92
S1131BD019E7BD02A17DC8F827037E0B0ACE18BE03
S1131BE0BD02A17DC8F81026F9E5BD02708620A5C6
S1131BF0842726CE193F108E60E0BD0C43CE19AB6E
S1131C00BD02A17DC8F827037E0A08CE19B6BD021D
S1131C10A17DC8F8279D7E0A2ECE1923108E60D888
S1131C20BD0C43CE19DEBD02A17DC8F81027FF8389
S1131C307E0A39CE19D0BD02A17DC8F81027FF73E2
S1131C407E0A528EF850BFC82ABDEAA8398EC92F21
S1131C506F808CCBC823F98607B7C9107FC8FD7F76
S1131C60C8FE8610B7C8FF8EC883108EC889CCC939
S1131C702FED81EDA1C30108ED81EDA1C30108EDB4
S1131C8084EDA4398602B7C89B8EC8A8BDF84F8ED0
S1131C90C8AFBDF84F8607B7C89A8601B7C824BD38
S1131CA004B6BD02FF108EC904CC3420EDA1CC20B3
S1131CB080EDA4CC0218FDC908CC0103FDC88186BF
S1131CC0FFB7C880398EC883108EC889EC81EDA116
S1131CD0EC81EDA1EC84EDA439BFC88FFCC90A43A3
S1131CE053C30001FDC90C7DC90A27041F21200725
S1131CF0BEC88F10BFC88F1F104353C30001F3C861
S1131D008FFDC88F4F5FF3C90A10AE8BF3C90C1057
S1131D10AF8BF3C90A10B3C88F26EB4F5F398EC857
S1131D209CB6C90027028610A780108E0D8A10AFBA
S1131D3081B6C90127028610A780108E0DA610AFA8
S1131D4081B6C90227028610A780108E0DC410AF79
S1131D5081F6C90E2B0C8EC9116F806F806F806F56
S1131D608439108EC9118EC89C8603F6C90EC4032B
S1131D703D3AAFA1F6C90EC403588EC8893AAFA440
S1131D806D942605FCC908ED94398EC89C9F977FF5
S1131D90C903108EC889BD0DF0DCF6DD4B8EC89CDE
S1131DA0BCC9112762398EC89F9F978601B7C903A2
S1131DB0108EC88BBD0DF0DCF6DD498EC89FBCC902
S1131DC0112744398EC8A29F978602B7C903BD1054
S1131DD0528EC8A2BCC9112701396F84109E8DA6EA
S1131DE0A2109F8D398EC8F3A6858EC8F0A78539B9
S1131DF0BD0570F6C9038EC90096E7810524E6A6E1
S1131E00858EC8F0A785396F84AE9FC913EC83AF64
S1131E109FC913969A4C810826014FB7C91539BD3D
S1131E20F2A9867FB7C891CCF850FDC82ABDF192BB
S1131E30CE192B108E10D8BDEAA8B6C8914A26E454
S1131E408682B1C90E102702907E0E90BD027ABD23
S1131E500C847FC92A7FC92C7CC8EEBD0CC5BD0D7E
S1131E601EBD11A2BDF289BD02FF7FC90F7FC8EA62
S1131E707FC8EB7FC88F7FC8908606B7C894F6C822
S1131E809AF7C915BD075B8682B1C90E10270226D1
S1131E90BDF2E6B6C880BDF1B4FCC881FDC81FBD63
S1131EA0F1F8BD14B9BD0649BDF289BDF35B7DC827
S1131EB0EE1027011CBD0766BD06126D9FC91127D0
S1131EC00BBDEAF0BD05EF7FC8F8203F7DC8F827B9
S1131ED035FCC90810AE9FC913EDA1BD1196B6C952
S1131EE015F6C89AF7C916B7C89ABEC911BFC897DC
S1131EF0340886C81F8BE680AD9435086F9FC911DE
S1131F00B6C916B7C89A7DC814266686C81F8B0D35
S1131F10122703BD10770D132703BD1089BD0F22AF
S1131F20200D96A527080AA52604AD9FC8A63986C4
S1131F30D01F8B7DC8151027FF56B6C91B43B4C9E3
S1131F4010B7C9107FC90FBD02708620A58427036E
S1131F507E00D4CC0000AE9FC913ED817DC92A2731
S1131F6003BD0F677E00D4BD02708620AA84A784B7
S1131F70397DC90E102A0073BD0F7D20108682B1F1
S1131F80C92A1027FE997CC92ABD134C39BD027099
S1131F908620A5842708AE9FC913A6842003B6C94A
S1131FA008F6C8EFE79FC911AE9FC913EC81AF9F34
S1131FB0C9136D842605CC2224ED84B6C89AB7C90A
S1131FC0157FC92C8EC8F0B6C90E84036F867E0EA9
S1131FD090BD1007BD031ABDF35BBD05EFBDF192C3
S1131FE0CE1954BD02A17DC8F8270C7FC90E7FC845
S1131FF0EEBD027A7E0E5BCE18BEBD02A17DC8F88E
S9030000FD
