S11300006720474345203139383380ED77F8500075
S1130010B03344204D494E452053544F524D800037
S1130020BD0F92BD1093BD0DC6FCC83DDD08F6C8DA
S113003045C4BF8607BDF25B86BBBDF1B4F6C845B7
S1130040CA408607BDF25BCC0E80BDF25BC602D708
S11300500D1CEFBDF2A9B6C892272DB6C8982B285F
S1130060BD1232CC7FA0BD113CCEC880BD11BD34C1
S113007006B6C872270791092503BD0F2D3506CE94
S113008013D1BD11B57E018DB6C898102E00FEB6F1
S1130090C8B4BAC8932706BD0A5A7E0187F6C89425
S11300A02721504FBD113C8EC9FC8607F6C89454D5
S11300B0CB0DBDF3B786CD970C7E0187102B00C7FF
S11300C07E0FD5B6C88F26F48EC89ABD1148B6C81F
S11300D0982A248E154E8604F6C899CB052803B7B2
S11300E0C8983406F7C899BD1136BDF3D6E6616ADF
S11300F0E426F4350620098EC9FCCC070DBDF3B700
S113010086CD970CB6C826850F1026007A8EC8E4D3
S11301108610E6002704E60E272B300F4A26F33418
S113012006B6C872270791092503BD0F2D35068E23
S1130130C8E48610E60027066C036C036A0E300FD1
S11301404A26F120428EC8E48610E6002704E6021F
S11301502735300F4A26F3B6C8B32B2B7AC8B38E93
S1130160C8D58611300F4AE60026F98602A7028612
S113017006A7018608A7036F0EBDF517A70486809E
S1130180A7067CC8B26C00BDF2A9BD05B93406B699
S1130190C872270791092503BD0F2D350686D29114
S11301A00923EABD0C61BD0D2FBD0F5E3406B6C830
S11301B072270791092503BD0F2D3506BDF1F8BD42
S11301C0F2A5B6C82684014848488EEEADCEC8D6FE
S11301D0BDF61FBD084386C81F8B9692270F0A924F
S11301E027082B389611840F2732BD109396B42616
S11301F02B969327270F8886FF97C4CEC8E4A64082
S113020027102A0A0A88A64E91C4220297C4334FA3
S113021020EC968826060F938610979486D01F8B21
S11302203406B6C872270791092503BD0F2D35067C
S1130230867E910923EABDF2A9B6C8922729B6C8D9
S1130240982B24F6C89E86688E7F30BD11883406AC
S1130250B6C872270791092503BD0F2D3506CE13A5
S1130260D1BD11B57E03FCB6C8BB27688EC8CA864B
S113027004E600265F30034A26F786C81F8B96984B
S1130280260686FF97BC20489692263D0FBB0FBCDE
S11302900AB4BD0A25BD0F3B340696722708B1D0B7
S11302A0092503BD0F2D3506CE15A7BDF68D0F7795
S11302B09EC0A6842A058E14519FC08EC8E4861061
S11302C06F006A0E300F4A26F786D01F8B7E03F626
S11302D086D01F8BB6C898102E0121B6C8B4BAC8F0
S11302E0932706BD0AF87E03F6F6C89427204FBD6F
S11302F0113C8EC9FC8607F6C89454CB0DBDF3B7E8
S113030086CD970C7E03F6102B00EB7E102AB6C820
S11303108F1026FFF28EC89ABD1148B6C8982A1FBE
S11303208E156EF6C89986043406BD1136BDF3D613
S1130330E6616AE426F4350686CD970C7E03F68ED4
S1130340C9FCCC070DBDF3B786CD970C3406B6C8EF
S113035072270791092503BD0F2D3506B6C89AF6F5
S1130360C89C1F02CEC8E48610B7C887A64027627F
S1130370A64E265EA642488E13DDAE86A644E64609
S11303801E01BDF8FF244B6F40BEC8C03014BFC867
S1130390C0B6C8B08A80B7C8B08601B7C8B186C82D
S11303A01F8B3144BD0D08340696722708B1D0095D
S11303B02503BD0F2D35060A980ABB86D01F8B7AFC
S11303C0C89E26327AC892CECBEB8EC880BDF8D8B0
S11303D02024334F7AC88726938EC8E48610E6001B
S11303E02614300F4A26F77AC8BB8EC9D486046F08
S11303F000300A4A26F9BDF2A9BD064A3406B6C839
S113040072270791092503BD0F2D350686549109DE
S113041023EABD0DACBD0CB9BDF2A5F6C845C4BFF9
S11304208607BDF25BBEC8253001BFC825BD046385
S1130430BDF687BD124086D01F8BBDF289BD090C65
S11304403406B6C872270791092503BD0F2D35065A
S11304508601910923EAC6105A26FDCC0E75FDCB00
S1130460F93CEF86C81F8B96B49A939ABB263A96AA
S11304709427379626850327300A94262C3406962B
S1130480722708B1D0092503BD0F2D3506CEC8E467
S1130490C601A6402713E740BDEA3E8630BDE7B556
S11304A010AF48AF4A334F20E939D695961B270938
S11304B02B03F00004CB02D795968F102600B59637
S11304C0129A131026009A96142728D1A02716D121
S11304D0A62708969F270E96A5261896A58B12295F
S11304E012DDA52008969F8B122908DD9F96B08AFD
S11304F00497B0CC0000DDA1DDA3DDA7DDA9DC9F5E
S113050080062A014F979F2708BDE7B5109FA19F3A
S1130510A3DCA580062A014F97A52718BDE7B510CF
S11305209FA79FA9340696722708B1D0092503BD59
S11305300F2D3506DC9AD3A1D3A1D3A7D3A7DD9A77
S1130540DC9CD3A3D3A3D3A9D3A9DD9C960F8508A0
S1130550270E961526040A9626060A978606979667
S1130560398680978FBDF51784038B03979096B0D7
S11305708A1097B0968F2A170A90270CBDE98A979C
S11305809AD79C0F9B0F9D390A8F861F979039D657
S113059090C1F02F07969080049790390F900F8F99
S11305A0BD0F46340696722708B1D0092503BD0F46
S11305B02D3506BDF5179795398604CEC9D4B7C82D
S11305C087867F97040F0AA64027506A40274A86E9
S11305D0CD970C3406B6C872270791092503BD0FC1
S11305E02D3506A645E64797010F0086CF970C0CDC
S11305F000D7010F05EC45E341E341ED45EC47E34A
S113060043E343ED47C640D50D27FC0A0A334A7A33
S1130610C88726B10F0A7E12326F40B6C89727EDFD
S11306207FC897B6C8B08A08B7C8B0FCC89AED4569
S1130630FCC89CED47FCC8C6ED41FCC8C8ED438628
S11306400DA740B6C8C5A74920C38604CEC9D4B7F0
S1130650C887867F9704A640102700EEB7C889860E
S1130660CD970C3406B6C872270791092503BD0F30
S11306702D3506A645E64797010F0086CF970C0C4B
S113068000D7010F057FC889A645E6471F028EC81B
S1130690E4C610F7C888A6002704A60E270A300F60
S11306A07AC88826F17CC889C640D50D27FC0A0A79
S11306B0A602480F0AF6C889270E7E074AA6002715
S11306C024A60E2620A6024888068B04B7C88A1FD3
S11306D020A0042A0140E0062A0150B1C88A22055C
S11306E0F1C88A230A300F7AC88826D17E074A8641
S11306F0C81F8B96B08A8097B00FB16F40A64997F8
S11307008934503104BD0D08CE13F1A6024833C616
S1130710A601810626020FB2488E13E3EC868EC82A
S113072080BDF87CECC4BDF87C35106F00FECA4374
S11307309689A7C0AFC10CBD1183CA772603CECA60
S113074047FFCA43354086D01F8B334A7AC8872770
S1130750037E065686C81F8B96BD102700DC0ABD93
S1130760340696722708B1D0092503BD0F2D35062E
S1130770FECA45A6C09789AEC11183CA772603CEA7
S1130780CA47FFCA45A602102E008A108EC8E48606
S113079010E6202604E62E2609312F4A26F3108E71
S11307A0B0006C02EC01ED21C618E70CE72CCE1367
S11307B0F7ECC4E703E7236F2E9788BDF51784078A
S11307C0978EDC88CB10D08EBDF601978A1D5849D0
S11307D058495849ED0AD68A1D584958495849ED8F
S11307E008BDF5178407978EDC88C010DB8EBDF634
S11307F001978A1D584958495849ED2AD68A1D58E7
S11308004958495849ED28EC04ED24EC06ED266CD2
S1130810206C002025A60144241C8604A701D68947
S1130820C82086703410BDE7D235061E01ED0A10CB
S1130830AF086C0020046F006A0E86D01F8B86CD33
S1130840970C39CEC8E48610B7C887A64010270095
S1130850B18E13AEE64EC108260AB6C8B4BAC89320
S11308601027009EA685B1C8272703BDF2ABA64476
S1130870E646EB4E9701867F97040F0086CF970CD0
S11308800C00D7010F05A640817F273CB6C8B4BA37
S1130890C8B52634B6C8932707A64EB1C8C42628BF
S11308A07FC88DEC44E34828037CC88DED44EC46B6
S11308B0E34A28037CC88DED46B6C88D270AA641B5
S11308C0810426046F40203A8E138CA64148AE86DC
S11308D08108240BB6C826BBC887840F48AE86E6B9
S11308E0438640950D27FCA6402703BDF40E86CD14
S11308F0970C3406B6C872270791092503BD0F2D3E
S11309003506334F7AC8871026FF4039CEC8E486AF
S113091010B7C8877FC88EA640102700D5102B00BB
S1130920DBA64185022745B6C88FAA4EBAC89826C9
S11309303BA64C27046A4C203386C81F8B969AA08A
S113094044D69CE046BDF5938010978D0C8EE6410D
S1130950C10626048B0B978D86D01F8B3406B6C830
S113096072270791092503BD0F2D35068E13AEE6B8
S11309704EC1082608B6C8B4BAC8932775A685B16F
S1130980C8272703BDF2ABA644E646E04E9701868E
S11309907F97040F0086CF970C0C00D7010F0586B4
S11309A0C81F8B968E27118E13B7E642A685D68D67
S11309B0BDE7B510AF48AF4A86D01F8BE6438E1310
S11309C09AA64148AE868108240BB6C826BBC887C0
S11309D0840F48AE868640950D27FCBDF40E86CD67
S11309E0970C3406B6C872270791092503BD0F2D4D
S11309F03506334F7AC8871026FF193986C81F8BEE
S1130A0096B49AB5261CA64E91C42616EC4CA04466
S1130A10E046C1042306C1FC1023FF296F4C867FE6
S1130A20A7407E095886129787CEC8E4BDF517A75C
S1130A304CBDF517A74D847F81602F0DA64D8020F6
S1130A40A74D334F0A8726E43981282C06A64D8BFF
S1130A5028A74D334F0A8726D339B6C8B4102700C8
S1130A6085B6C8B6488B10BDF2AB3406B6C872273B
S1130A700791092503BD0F2D3506FCC8B747BD11E5
S1130A803CF6C8B68EEF26BDF40E86CD970CFCC896
S1130A90B747BD113CF6C8B68EEF5DBDF40E86CDEA
S1130AA0970C3406B6C872270791092503BD0F2D8C
S1130AB03506FCC8B747BD113CF6C8B68EEF94BDE9
S1130AC0F40EBD12323406B6C87227079109250305
S1130AD0BD0F2D3506BDF2A9CC7FA0BD113CCEC8FB
S1130AE080BD11BD2011BDF2A9B6C8B527097AC8C9
S1130AF0B5CECA0CBD11AB39B6C8B427E9B6C8B671
S1130B00488B10BDF2AB3406B6C87227079109258D
S1130B1003BD0F2D3506FCC8B94797010F0086CFDA
S1130B20970C7FC888867F97040C00D7010F058631
S1130B30038E13A84A2B0CE68650F1C8BA26F54C4E
S1130B40B7C888C640D50D27FCF6C8B68EEF26BDBB
S1130B50F40E86CD970C3406B6C872270791092582
S1130B6003BD0F2D3506FCC8B94797010F00867FDA
S1130B7097040C00D70186CF970C0F05B6C88827B9
S1130B802E50FEC8BEE74E8E13AAE686E743BEC8C3
S1130B90C0A680A741BFC8C06F426F446F4686801D
S1130BA0A740FCC8B747A744E746334FFFC8BEC6B3
S1130BB040D50D27FCF6C8B68EEF5DF7C888BDF4A6
S1130BC00E86CD970C3406B6C87227079109250303
S1130BD0BD0F2D3506FCC8B94797010F00867F97D6
S1130BE0040C00D70186CF970C0F057AC8B77AC8D2
S1130BF0B929227AC8B77AC8B9291A7AC8B77AC87B
S1130C00B92912B6C826850326267AC8BA7AC8BA7C
S1130C107AC8B6201B8610B7C8BA8660B7C8B57F35
S1130C20C8B48620B7C8B67CC893CCC8E4FDC8BE97
S1130C30C640D50D27FCF6C8888EEF94BDF40EBDD2
S1130C401232BDF2A93406B6C872270791092503EA
S1130C50BD0F2D3506F6C89E86688E7F30BD11887F
S1130C6039CEC8CAA6402748EC4197010F0086CF69
S1130C70970C867F97040C00D7010F05A6408B0DB7
S1130C8028014FA7404444C640D50D27FC970427AC
S1130C900B8E1512860EB7C823BD107E86CD970C19
S1130CA03406B6C872270791092503BD0F2D3506F2
S1130CB033431183C8D62DAC39CEC8CAA640273FCA
S1130CC0EC4197010F0086CF970C867F97040C00A8
S1130CD0D7010F05A6404444C640D50D27FC970410
S1130CE08E1530860EB7C823BD107E86CD970C3482
S1130CF006B6C872270791092503BD0F2D350633A3
S1130D00431183C8D62DB539CEC8CA0F8EDF8BA642
S1130D10402712918E2304978EDF8B33431183C8AF
S1130D20D62DECDE8B6C40A6A1E6A4ED413939B694
S1130D30C8BBB4C8BC27F7B6C89A270C2B024A4ACA
S1130D404C27052B024A4A4CB7C89AB6C89C270CB4
S1130D502B024A4A4C27052B024A4A4CB7C89CB678
S1130D60C8952714852026024A4A4C843F270985C2
S1130D702026024A4A4C843FB7C895B6C89ABAC8D6
S1130D809CBAC8952622B6C82644251C7AC8BB2B13
S1130D90177CC898CC00018ECA1BBDF87CB6CA204B
S1130DA04A850326037CC89E7E10F639B6C8BBB4B8
S1130DB0C8BC27118ECB81C608A6848B0AA7805A8B
S1130DC026F77E10F63986D01F8BCC00FCFDC83D7B
S1130DD0F7C873CC0008FDC86CF7C8707FC8717F72
S1130DE0C872CC7E82B7CBF8D70ECC0E5AFDCBF9A5
S1130DF086CD970C7FC88EFCC83DDD08F6C845C477
S1130E00BF8607BDF25B860EBD0F14C480F7C868A9
S1130E10F6C845CA408607BDF25BCC0E80BDF25BC6
S1130E20C6605A26FDCC0EFFBDF25BF6C845C4BFB2
S1130E308607BDF25B860EBD0F14C4807DC868268C
S1130E40035D2605F7C86820C7960D852026A87C73
S1130E50C88EB6C88E8102269E3986D01F8B7FC865
S1130E6023BD12320F0AB6C873B7C8727AC870109D
S1130E702E0080200EB6C871B7C8727CC86C7AC8C0
S1130E80702E70C608F7C870F6C86CFBC86D1F9842
S1130E90800940C10927142A0ABBC871250DB7C8A7
S1130EA0712008BBC8712403B7C871FBC86EFBC8A6
S1130EB06FC016271D1F985F40475647564D2B0A93
S1130EC0F3C873250DFDC8732008F3C8732403FD0C
S1130ED0C873B6C873801AB0C8712208B6C8718BBB
S1130EE01AB7C873FCC86DFDC86EB6C86CB7C86DB8
S1130EF07FC86C12CC0EFFBDF25BF6C845CA4086B3
S1130F0007BDF25BBD123210CECBEACC0E5AFDCB3C
S1130F10F97E00290F030A039701861997008609B1
S1130F2097000F03D6010A038601970039F6C845D6
S1130F30C4BF8607BDF25B7FC87239CC0000DD9A5E
S1130F40DD9C0FB30FB2CC00009795DD9FDDA5DDCE
S1130F50A1DDA7DDA3DDA90F980F990FBC3986C8C1
S1130F601F8B9695C6078E137CCEC9FCBDF61086E2
S1130F707FD695D7C5BDE7D2109FC69FC8340696C5
S1130F80722708B1D0092503BD0F2D350686D01F61
S1130F908B397DC83B273D7CC8247FC888BDF1BA06
S1130FA0B6C80F810B27F6FCC80FC10B2626810F8C
S1130FB02622CE13F9BD11ABBDF192BDF2A97AC8B8
S1130FC08826EFCE1429BD11ABBDF192BDF2A97AEA
S1130FD0C88826EF39BDF2A9F6C89086063406867D
S1130FE0CD970C3406B6C872270791092503BD0FA7
S1130FF02D35066AE4272E8603B7C823B6C89AE6B9
S1131000612A015F5454F0C89C50BD113CE6E45879
S113101058EB612FCAD7048ECB71A6E44A48AE863A
S1131020BD107E20BA35067E0187BDF2A9F6C890B0
S11310308606340686CD970C3406B6C87227079107
S1131040092503BD0F2D35066AE4272D8603B7C88D
S113105023B6C89AE6612A015F5454FBC89CBD11AB
S11310603CE6E45858EB612FCBD7048ECB71A6E451
S11310704A48AE86BD107E20BB35067E03F6EC8161
S1131080BD11500A0AF6C8285A26FD0F0A7AC82349
S113109026EC3986C81F8B8EC8876F808CCBDA26E6
S11310A0F9CE13BA8ECA0CA6C0A78026FA867EB7DC
S11310B0CBF8CCFC38DD2A8EC880BDF84F0F200F4A
S11310C0210F22BD0A25BDE8E38EC8E49FBE8E141D
S11310D0519FC0CC7F00DDB7C610DDB9C620D7B69E
S11310E00AB48603979ECE15A7BDF68DCCCA47FDDC
S11310F0CA43FDCA4539860934026AE4260686CD08
S1131100970C358286CD970C3406B6C872270791A2
S1131110092503BD0F2D35068603B7C823A6E44A67
S11311208ECB81E686C12023D1D7048ECB7148AE05
S113113086BD107E20C4D704EC81201497013406A8
S1131140867F97040F00200EC67FD704A684E6028C
S113115097010F00340686CF970C0F0A0C00D701B5
S11311600F053506BDF584E77FAA7FC6408140237D
S11311701281642304860820028604D50D27FC4AC4
S113118026FD39D50D27FC393404C680337836065C
S1131190350281092302863C8B30C62D3606361073
S11311A020138D0CA6C426FA398D0AA6C426FA3952
S11311B0ECC1FDC82AECC1BD113CBDF575FFC82CBE
S11311C08EF9D4CC18830F01970BD7000A00CC807A
S11311D081120C00D700970012120C00B6C82B978E
S11311E001CC0100FEC82C97002004A686970AA60D
S11311F0C02AF8868197000001860197008CFBB411
S1131200272C3088501F30B3C82CC00258210086C8
S113121081125A26FA9700F6C82A5858D7010A00AC
S1131220C6010C000F01D7009700C683209C869846
S1131230970BCC00CDD70C970ABDF35BBDF57D3978
S11312409656265FBDF533108ECA23CE12AACC0360
S113125080DDAB96B2270F96B08A0197B0860E97C1
S11312603FCC0150DD404F97AD263896B09AAE97EB
S1131270AF27300F4596AC94AF27201F899AAD97BE
S1131280ADD5B02604D4AE2608EC42EDA4EC44ED72
S113129022ADD496AB270C861F97463347312404DE
S11312A0AC26D296AD97AE0FB039134B00000000B8
S11312B0FF131F0A000E08FF131F00900E060012F2
S11312C0F500800D0300130800900E060012E200E2
S11312D0800C06FF131F00800D0300131F02501023
S11312E000006A23275DECA4C300081083010024D6
S11312F052EDA4202A6A23274AECA4C300201083B9
S11313000120243FEDA42017AEA46A232735A62389
S113131081052409810426038E0090300AAFA48E2F
S1131320C8420AAB96ABE622E786488B053086ECCA
S1131330A4ED848E1376A6462B089BABA6869A450D
S113134097453996AC4394AD97AD3996B094AC2794
S11313500297673440861F974696B1CE136E48486D
S113136033C6BDF92E0FAB3540967727D6393F3FAC
S11313700007383F00052010080402013F00C4089C
S1131380D8D820000040E00028D83C0815BF15FF3D
S1131390163F167FC8D6C8D6158E15DF161F165FE2
S11313A0169FC8D6C8D6158E0004081008006950C8
S11313B046413C37322D2828407F38E04D494E4580
S11313C0204649454C448028E020202020203180BC
S11313D00008E047414D45204F564552800D0D0809
S11313E0080606010003250500075001100110102E
S11313F0000000003501004003209050524F475236
S1131400414D4D454420425980E09057494C4C4948
S1131410414D204841574B494E538090C0202020D5
S113142031393833202020800020885645435452D7
S1131430455820414E4420494D414745528001F8CA
S1131440425980E0C04A4F484E20524F53538000C7
S11314500000000000000000000000000000000088
S11314600100000001000000010000000200000073
S1131470020000000200000003000000030000005E
S11314800300000201000002010000020100000349
S11314900100000301000003010000030200000337
S11314A0020000030200000101000001010000012C
S11314B00100000202000002020000020200000318
S11314C00300000303000003030001010100010104
S11314D001000101010002020200020202000202F4
S11314E002000303030003030300030303010101D8
S11314F001010101010101010102020202020202D1
S113150002020202020303030303030303030303AC
S113151003803500F30DF3FFE126EC03F3E6EB0063
S1131520F1EC10F1FAEE1DF80FE40F1219F7061A98
S11315303515F31AF3DDE110EC00F3FFEB15F1C5FB
S113154010F9FAFF1DD90FFC0F0719FB062B3F20DA
S11315500108F040F82880F9010820FCFCFEFB900B
S113156001084008102060100108040601C03F343F
S11315700108F040F82880F9010820FCFCFEFB90EB
S113158001084008102060100108040601C000484A
S113159000FF0000FFDC00FFB8B8FF006CFF24244C
S11315A0FF24B8FFB82401ED8FFEB6000C010C0037
S11315B00C0118000C010C000C060C050C00801624
S11315C0BF16BF16BF16BF16BF16BF16BF16BF166F
S11315D0BF16BF16BF16BF16BF16BF16BF16BF165F
S11315E0D816D816D816D816D816D816D816D81687
S11315F0D816D816D816D816D816D816D816D81677
S1131600F1170D172917451761177D179917B51786
S1131610D117ED180918251841185D18791895186F
S1131620B118CD18E919051921193D195919751958
S11316309119AD19C919E51A011A1D1A391A551A41
S1131640711A8D1AA91AC51AE11AFD1B191B351B2B
S1131650511B6D1B891BA51BC11BDD1BF91C151C14
S1131660311C4D1C691C851CA11CBD1CD91CF51DFD
S1131670111D2D1D491D651D811D9D1DB91DD51DE6
S1131680F11DF11E101E101E2F1E2F1E4E1E4E1E6B
S11316906D1E6D1E8C1E8C1EAB1EAB1ECA1ECA1E7A
S11316A0E91EE91F081F081F271F271F461F461F83
S11316B0651F651F841F841FA31FA31FC21FC200B1
S11316C0280CFFB444FF4CA4FFB4C4FF4C54FFA83F
S11316D0ECFF58FCFF00180100280CFFB43CFF4C41
S11316E0ACFFB4BCFF4C5CFFA8FCFF58ECFF001837
S11316F001FF0000002F00FF911EFF21F2FF4DEFBC
S1131700FF91C0FF215000DF0EFF00A201FF000087
S1131710002F00FF8C04FF251DFF4EDEFF99B9FF4B
S1131720186800DBE3FF0DB601FF0000002F00FF87
S11317308BE9FF2344FF52D3FFA2BEFF0B6E00DDF3
S1131740BCFF17D501FF0000002F00FF8CD0FF1C49
S113175061FF58CEFFABCBFFFD6600E49FFF1EFA8E
S113176001FF0000002F00FF91C0FF106EFF5ED14B
S1131770FFB2E1FFEF4D00EF91FF212101FF0000D7
S1131780002F00FF99B9FF036CFF64DAFFB8FCFF78
S1131790E42900FD94FF1E4201FF0000002F00FF1A
S11317A0A2BEFFF457FF69EAFFB917FFDDFE000B85
S11317B0A8FF175901FF0000002F00FFABCBFFE784
S11317C037FF6EFEFFB830FFDBD30018C8FF0D648F
S11317D001FF0000002F00FFB2E1FFDF0EFF6E10DB
S11317E0FFB23FFFDFB00021F2FF005E01FF000007
S11317F0002F00FFB8FCFFDBE3FF6E22FFAB47FFC7
S1131800E79700251DFFF34A01FF0000002F00FFAA
S1131810B917FFDDBCFF692CFFA242FFF49100233E
S113182044FFE92B01FF0000002F00FFB830FFE464
S11318309FFF6432FF9935FF039A001C61FFE105A5
S113184001FF0000002F00FFB23FFFEF91FF5E2F6A
S1131850FF911EFF10B200106EFFDFDF01FF0000DA
S1131860002F00FFAB47FFFD94FF5826FF8C04FFB9
S11318701CD700036CFFE1BD01FF0000002F00FF37
S1131880A242FF0BA8FF5215FF8BE9FF230200F4CD
S113189057FFE9A701FF0000002F00FF9935FF184B
S11318A0C8FF4E02FF8CD0FF252D00E737FFF39CC5
S11318B001FF0000002F00FF9140FF21B0FF4D11F8
S11318C0FF91E2FF210E00DF50FF00A201FF0000A4
S11318D0002F00FF8C30FF25D3FF4EFEFF99CBFF76
S11318E0183800DB2DFF0D9C01FF0000002F00FFC6
S11318F08B17FF23FEFF52EBFFA2BEFF0B5800DD48
S113190002FF17A701FF0000002F00FF8CFCFF1C43
S113191029FF58DAFFABB9FFFD6C00E4D7FF1EBE08
S113192001FF0000002F00FF91E2FF104EFF5ED187
S1131930FFB2C1FFEF6F00EFB3FF21DF01FF000033
S1131940002F00FF99CBFF0366FF64CEFFB8D0FFE2
S1131950E46100FD9AFF1E0601FF0000002F00FF56
S1131960A2BEFFF46FFF69D4FFB9E9FFDD44000BA9
S113197092FF172B01FF0000002F00FFABB9FFE718
S113198069FF6EDEFFB804FFDB1D001898FF0D4AE7
S113199001FF0000002F00FFB2C1FFDF50FF6EF017
S11319A0FFB21FFFDFF20021B0FF005E01FF000065
S11319B0002F00FFB8D0FFDB2DFF6E02FFAB35FF19
S11319C0E7C90025D3FFF36401FF0000002F00FFE7
S11319D0B9E9FFDD02FF6916FFA242FFF4A9002363
S11319E0FEFFE95901FF0000002F00FFB804FFE4E7
S11319F0D7FF6426FF9947FF0394001C29FFE143A6
S1131A0001FF0000002F00FFB21FFFEFB3FF5E2FA6
S1131A10FF9140FF109200104EFFDF2101FF0000F4
S1131A20002F00FFAB35FFFD9AFF5832FF8C30FFCB
S1131A301C9F000366FFE1FB01FF0000002F00FF75
S1131A40A242FF0B92FF522DFF8B17FF23BC00F421
S1131A506FFFE9D501FF0000002F00FF9947FF1831
S1131A6098FF4E22FF8CFCFF25E300E769FFF3B6E5
S1131A7001001800FF17AFFFD139FFD1E9FF172F7D
S1131A80FFC72FFF51E9FF5139FFC7AF010018000D
S1131A90FF21ACFFCA41FFD502FF0F10FFBF10FFAB
S1131AA05502FF4A41FFD1AC01001800FF2CB5FFDD
S1131AB0C240FFD61CFF0CEFFFBCEFFF561CFF42D9
S1131AC040FFDCB501001800FF36C9FFB934FFD36D
S1131AD030FF0CD1FFBCD1FF5330FF3934FFE6C9CE
S1131AE001001800FF3FE7FFB222FFCE3EFF11B90D
S1131AF0FFC1B9FF4E3EFF3222FFEFE7010018009D
S1131B00FF4308FFAC09FFC641FF19ACFFC9ACFF96
S1131B104641FF2C09FFF30801001800FF4427FF8A
S1131B20AAF0FFBE3CFF24ADFFD4ADFF3E3CFF2A2C
S1131B30F0FFF42701001800FF4041FFABD8FFB5C8
S1131B402CFF2EB9FFDEB9FF352CFF2BD8FFF04157
S1131B5001001800FF3951FFAFC7FFAF17FF39D19C
S1131B60FFE9D1FF2F17FF2FC7FFE951010018002C
S1131B70FF2E53FFB5BEFFABFEFF40EFFFF0EFFFBC
S1131B802BFEFF35BEFFDE5301001800FF244BFF80
S1131B90BEC0FFAAE4FF4411FFF411FF2AE4FF3E94
S1131BA0C0FFD44B01001800FF1936FFC6CBFFACB1
S1131BB0CFFF432EFFF32EFF2CCFFF46CBFFC936BA
S1131BC001001800FF1119FFCEDEFFB2C2FF3F472C
S1131BD0FFEF47FF32C2FF4EDEFFC11901001800BC
S1131BE0FF0CF7FFD3F6FFB9BEFF3653FFE653FFF2
S1131BF039BEFF53F6FFBCF701001800FF0CD9FFF4
S1131C00D610FFC2C4FF2C53FFDC53FF42C4FF565F
S1131C1010FFBCD901001800FF0FBEFFD528FFCA72
S1131C20D3FF2146FFD146FF4AD3FF5528FFBFBE4D
S1131C3001001800FF17D1FFD117FFD1C7FF1751BB
S1131C40FFC751FF51C7FF5117FFC7D1010018004B
S1131C50FF21BAFFCA2DFFD5D8FF0F42FFBF42FFB5
S1131C6055D8FF4A2DFFD1BA01001800FF2CADFF53
S1131C70C23CFFD6F0FF0C27FFBC27FF56F0FF4203
S1131C803CFFDCAD01001800FF36ADFFB942FFD3C5
S1131C900AFF0C09FFBC09FF530AFF3942FFE6ADF6
S1131CA001001800FF3FB9FFB23EFFCE22FF11E74B
S1131CB0FFC1E7FF4E22FF323EFFEFB901001800DB
S1131CC0FF43D2FFAC31FFC635FF19CAFFC9CAFFB3
S1131CD04635FF2C31FFF3D201001800FF44EFFF1B
S1131CE0AA1CFFBE40FF24B5FFD4B5FF3E40FF2A27
S1131CF01CFFF4EF01001800FF4011FFAB02FFB519
S1131D0042FF2EADFFDEADFF3542FF2B02FFF01187
S1131D1001001800FF392FFFAFE9FFAF39FF39AFDA
S1131D20FFE9AFFF2F39FF2FE9FFE92F010018006A
S1131D30FF2E47FFB5D4FFAB28FF40BFFFF0BFFF26
S1131D402B28FF35D4FFDE4701001800FF2453FF82
S1131D50BEC4FFAA10FF44D9FFF4D9FF2A10FF3EE6
S1131D60C4FFD45301001800FF1954FFC6BFFFACD1
S1131D70F7FF43F8FFF3F8FF2CF7FF46BFFFC95402
S1131D8001001800FF1147FFCEC2FFB2DEFF3F196A
S1131D90FFEF19FF32DEFF4EC2FFC14701001800FA
S1131DA0FF0C2FFFD3D0FFB9CCFF3637FFE637FF48
S1131DB039CCFF53D0FFBC2F01001800FF0C11FFDA
S1131DC0D6E4FFC2C0FF2C4BFFDC4BFF42C4FF56DE
S1131DD0E4FFBC1101001800FF0FF0FFD5FEFFCA9D
S1131DE0BFFF2154FFD154FF4ABFFF55FEFFBFF090
S1131DF001FF0000002400FFFBBFFFE115FFE10D20
S1131E00FFFB1FFFE31FFF410DFF4115FFE3BF0170
S1131E10FF0000002400FF0CBCFFDB30FFDD2CFFC3
S1131E20F4E8FFDCE8FF3D2CFF3B30FFF4BC01FF8E
S1131E300000002400FF1DE1FFCF2FFFD131FFFB85
S1131E40BFFFE3BFFF3131FF2F2FFF05E101FF008B
S1131E5000002400FF2418FFC312FFC51AFF0CBCA6
S1131E60FFF4BCFF251AFF2312FF0C1801FF00002A
S1131E70002400FF1D41FFBFEBFFBFF3FF1DE1FF87
S1131E8005E1FF1FF3FF1FEBFF054101FF00000009
S1131E902400FF0C44FFC5D0FFC3D4FF2418FF0C5B
S1131EA018FF23D4FF25D0FFF44401FF00000024D1
S1131EB000FFFB1FFFD1D1FFCFCFFF1D41FF054125
S1131EC0FF2FCFFF31D1FFE31F01FF0000002400EB
S1131ED0FFF4E8FFDDEEFFDBE6FF0C44FFF444FF14
S1131EE03BE6FF3DEEFFDCE801FF0000002400FFBD
S1131EF0FBE1FFE1F3FFE1EBFFFB41FFE341FF41C6
S1131F00EBFF41F3FFE3E101FF0000002400FF0CBD
S1131F10BCFFDB1AFFDD12FFF418FFDC18FF3D12D3
S1131F20FF3B1AFFF4BC01FF0000002400FF1DBFAB
S1131F30FFCF31FFD12FFFFBE1FFE3E1FF312FFFA3
S1131F402F31FF05BF01FF0000002400FF24E8FF3C
S1131F50C32CFFC530FF0CBCFFF4BCFF2530FF23AE
S1131F602CFF0CE801FF0000002400FF1D1FFFBF31
S1131F700DFFBF15FF1DBFFF05BFFF1F15FF1F0D81
S1131F80FF051F01FF0000002400FF0C44FFC5E60D
S1131F90FFC3EEFF24E8FF0CE8FF23EEFF25E6FF76
S1131FA0F44401FF0000002400FFFB41FFD1CFFFF8
S1131FB0CFD1FF1D1FFF051FFF2FD1FF31CFFFE33F
S1131FC04101FF0000002400FFF418FFDDD4FFDB13
S1131FD0D0FF0C44FFF444FF3BD0FF3DD4FFDC189A
S1131FE001000000000000000000000000000000EC
S1131FF000000000000000000000000000000000DD
S9030000FD
