S113000067204743452031393832800E39F8503063
S1130010D0464F52545245535380F85010F04F4637
S113002080F850F0D84E41525A4F448000BDF1AF91
S11300300C2486FF972986BB97808E01039F81CC71
S11300400203BDF7A90A798EC8836F808CCBBF26C3
S1130050F9CC1000FDC9238EC8A8BDF84F8EC8AFD7
S1130060BDF84FCC0100FDC928FDC92F967A4A4836
S11300708E1659EE86FFC926FFC92D8EC934BDF8E8
S11300804FA641BDF85E8EC93BBDF84FFEC92DA6F3
S113009041BDF85E8605B7C91AB7C92CB7C933BDC7
S11300A012900F9B203BBD12D9E6233404C10327D1
S11300B00EE622CB08C1112F166C60C60120106F0A
S11300C060C601AEA4A6844C260B8E16102006AE84
S11300D0A430890008AFA4E7223504E7236F246F16
S11300E02586339780BD12AD860197D70FD80FCAE6
S11300F00FCBBD12D9EC2297CDA626B7C91AD7CCFF
S1130100C1031027008EEEA48EC8CE8608BDF683E8
S1130110A6242704E625DDD0CE0E8BBDF68D860100
S113012097D68E11CB9F9D861F979C8E12399FA0C8
S1130130865F979FBDF517B7C921BD13E02003BDA6
S113014012E33408BDEAF0BD0BBF3508BD13347AA1
S1130150C921260DBD08F6BDF517843F8B04B7C928
S113016021BD0467BD0563BD063EBD081CBD093E37
S1130170BD0EA5BD0F3EBD0F78BD1045BD0C89BD9C
S11301800A9425BE96CA1027FF1C96CB26B1BD1231
S1130190907E00E1860197D8865097F8BD12900FA3
S11301A0CA0FCB864097CE860697D90FDCCC0200C7
S11301B0DDDA8E042A108EC9C9BD1458BDF5178422
S11301C01F8A08B7C921BD13E02003BD12E3340818
S11301D0BDEAF0BD0BBF3508DCDAFDC9CCCEC9CA17
S11301E08EC9D9860EBDF6838EC9E8860EBDF68308
S11301F08EC9F7860EBDF6830F8FB6C9C92A078448
S11302007FB7C9C90C8FB6C9D82A07847FB7C9D8A4
S11302100C8FB6C9E72A07847FB7C9E70C8FB6C924
S1130220F62A07847FB7C9F60C8F968F1027001E15
S11302300AD9868097EE0FF10F7796D98102102D97
S113024000A3B7C9D7B7C9E6B7C9F5B7CA04B6C9D1
S113025021265D962684188108275881102754CEBC
S1130260CA23C60AA6402707334E5A26F72041FC64
S1130270C9CEC30A00ED45FCC9D0ED47A645E64703
S1130280ED498601A740BDF5172A0FDCE5A045E03E
S113029047BDF5938010A74B2007BD146ACB20E718
S11302A04B8650BD135FBDF517840F8A04B7C9216F
S11302B07AC921BD0467BD063EBD0563BD081CBDEA
S11302C00EA5BD0F3EBD0F78BD0C89BD0A9496CA1C
S11302D01027FEFA96F78130102CFEF296CB1026EA
S11302E0FEE97E00E1867F97F68EC9CECECAAF8640
S11302F008BD13BA8EC9CECECABA8610BD13BA8E43
S1130300C9CECECAC58618BD13BA8EC9CECECAD040
S11303108620BD13BA862097EF2003BD12E396F61C
S11303208130102D0094800297F68E1D19CECADFFD
S1130330108ECAAF86FEBD13A58E1D94CECAFF10C3
S11303408ECABA8602BD13A58E1DFBCECB1F108E9E
S1130350CAC586FDBD13A58E1E29CEC9D8108ECA66
S1130360D08601BD13A53408BDEAF0BD0BBFB6C8E5
S1130370F6BDF2ABFCCAB7BDF2FC8ECADFA680F6AE
S1130380C9D5BDF3B7FCCAC2BDF2FC8ECAFFA680B4
S1130390F6C9D5BDF3B7FCCACDBDF2FC8ECB1FA602
S11303A080F6C9D5BDF3B7FCCAD8BDF2FC8EC9D856
S11303B0A680F6C9D5BDF3B720083408BDEAF0BD60
S11303C00BBF35080FED0FEEBD0467BD0563BD0817
S11303D01CBD0EA5BD0F78BD0C8996268403261678
S11303E096EF2B0C270A0CF8280C867F97F820062A
S11303F096F827020AF8BD0A9496F88120102EFF79
S11304001D96CA270996CB1026FF107E00E1BDF584
S1130410338E165F969BAE868601BDF85EBD12D9FB
S11304206C26BD12900FCC7E00A63C190000020081
S1130430E0000000E00000000007210000000000D0
S1130440000000000000000000290000000000007F
S11304500000000000000000310000000000000067
S11304600000000000000096CA102600F496EC2755
S1130470034A97EC0FDD0FDF961C270C2B06860230
S113048097DD200486FC97DD961B270A2B04860340
S1130490200286FD97DF8603978FCECAAFA6402B36
S11304A00933C8100A8F26F52018DCE59BDDDBDF55
S11304B01F0110AE49EC4EBDF8FF24E50FDD0FDF40
S11304C020DF96E19BDD97E10FE2D6E3DBDFD7E3A4
S11304D00FE481902C048690201ED6D82614D6D7FB
S11304E0270881102F128610200E815C2F0A865C4B
S11304F0200681F02F0286F097E197E58ECB3FBD71
S11305001462978FD7E88ECB5FE686D7E98B058E8A
S11305101992E686D7E7968F488E1952AE869FEADF
S113052096E391E82F0496E8200691E92C0296E9D7
S113053097E397E63408C6D01F9B8ECB7FF6C88F0F
S1130540A1852E0C8ECB9FA1852D05BDF2A5200380
S1130550BDF2A1BEC8E5CE16C1B6C8E7BD14F435D8
S11305600835808E18089FC48609978FCEC942A685
S1130570401027008FBD136D2979257796D827055C
S11305808E1A1F20038E19FFA645BD14629790E7AB
S11305904C96D826055D276220035D2756968F81E9
S11305A0052F1E96D8262CA64E2614BD10BF29430F
S11305B0240F6A4D273D867FBD135F8603A74E6ACD
S11305C04EA6478ECB7FD690A1852E1E8ECB9FA1A3
S11305D0852D17340886D01F8B8E1A32A64CA6861A
S11305E0BDF2AB3145BDEA6D3508334F0A8F102695
S11305F0FF7D396F407AC91B20F0A64B26F5862073
S1130600A74B20AE961526040FEC20DE96EC9ACA72
S113061026D8968F81052FD2868097ED6C40DCE139
S1130620ED45DCE3ED47DCE5ED498603A74D8607A0
S1130630A74C860897EC6F4B7CC91B7E05B68606D3
S1130640978FCEC9C9108ECA23A64010270119104E
S11306502B0120D6D8266C8440275B6A4D2617DCF4
S1130660D2ED41DCD4ED43A64084BFA740BDF517CD
S11306708A40A74D203EBD136DA6458ECB5FBD14A9
S113068062E1472D04E747200B8ECB3FE686E14726
S11306902E02E747A64581902C1ADCD24353C300AF
S11306A001ED41DCD4ED43A64084BFA740BDF5175E
S11306B08A08A74D20566A4D2609A6412A05BD077A
S11306C0FE2049EC43E347ED478ECB5FA645BD14BE
S11306D062E1472D04E747200B8ECB3FE686E147D6
S11306E02E2AE747EC41E345ED45E6412B06811010
S11306F02C06200D81902C09EC414353C30001EDDD
S113070041EC434353C30001ED43DDDA8E1992A655
S113071045A749BD14629790E74CE6202A08EC45AA
S1130720ED25EC47ED27A647A74A8ECB7FD690A1AF
S1130730852E358ECB9FA1852D2E340886D01F8B18
S11307408E19B7A64EA686BDF2ABEC49BDF2FC8E5F
S11307501667B6C82644448406AB40843EAE86A6DB
S113076080E64CBDF3B73508334F312E0A8F10267F
S1130770FED739A6202A073440BD09273540A64EA6
S11307808001A74E81482F67E6405454C406D79091
S113079034601F328E169FAE85CECADFA62180023A
S11307A0A721E680E7C0BDF6108E16A5D690AE85CB
S11307B0CECAFFA6228B02A722E680E7C0BDF610B0
S11307C08E16ABD690AE85CECB1FA6238003A7236F
S11307D0E680E7C0BDF61035603448C6D01F9BA63E
S11307E04EBDF2ABAE49A64CBD14D93548200C6FB2
S11307F0403440BD11CB35407AC91C7E0768BD1416
S11308006ACB20C43FE74B8630BD135FA6408A40C5
S1130810A740BDF517841F8A08A74D399626484876
S1130820843FC6088E1E38CECADFBDF61096CC8132
S11308300127058E187620038E18E49FC4860A9734
S11308408FCECA23A6401027009C102B0098BD13FE
S11308506D1029009A10250096A645E647DD9234CE
S11308604086039790CECAAFA6402B0B33C8100A1C
S11308709026F5354020129E9210AE49EC4EBDF8FC
S1130880FF250220E7354020668E1992A645BD1447
S1130890629792E74CA6408440270354E74C96D8CD
S11308A0262AA64D2612BD10BF2944240D8640BD1C
S11308B0135F8604A74D20026A4DA6478ECB7FD6D0
S11308C092A1852E218ECB9FA1852D1A340886D026
S11308D01F8BBDF2A5EC49BDF2FC8ECADF8608E68B
S11308E04CBDF3B73508334E0A8F1026FF56396FC7
S11308F0407AC91D20F086069783BDF51784078BBF
S1130900029784810623034F20F70A83272FC60EFC
S11309103DC3CA231F02A6202B0596844C20E296D1
S1130920E18B10A1252C161F238601A740BD146A54
S1130930CB20E74B8640BD135F6F4D1F32398603D2
S1130940978FCECAAFA64010270107102B0114BD04
S1130950136D10250106A647E6432A0681A02D0A39
S1130960200481602E046A4D267BBDF517843F8ADE
S113097020A74DA64BBD1488A74BBDF517843F8A0D
S113098010BD135F868097F096CE84802757108E13
S1130990C98D86049797A6202708312F0A9726F633
S11309A020433460DCE5A045E047BDF59380108129
S11309B0142D04812C2F043560202A1F23A74B8675
S11309C07FBD135F35608601A720868097ED7CC9C3
S11309D01BEC45ED25EC47ED27EC49ED498607A7CF
S11309E02C8604A72D8E19BFA645BD1462E74C8E34
S11309F0CB5FE686D7908ECB3FE686D791C606E7D7
S1130A004E8E19DFE686E74FA64084BFE647D190B5
S1130A102D06D1912E028A40A740340886D01F8B20
S1130A20BDF2A5EC49BDF2FC8E16B1B6C82644440D
S1130A3084063402AE868608E64CBDF3B7EC49BDA5
S1130A40F2FC8E16B93502AE868608E64CBDF3B7C5
S1130A50350833C8100A8F1026FEEA397AC91E6F8A
S1130A604020EFA64DD626C403260D8001A74D8154
S1130A703F2C05BD123920E73408C6D01F9BBDF2B8
S1130A80ABEC49BDF2FC8E1EDA8605E64CBDF3B72D
S1130A90350820BE96CA2642B6C91CBAC91DBAC9B1
S1130AA01E9AD09AD19AF19AF29A779AF09AEF977D
S1130AB0D7262496CD81112D1B9EE5108E5C00CC8B
S1130AC00404BDF8FF2410961C270C2B0A0FD6CC67
S1130AD09000DDE17E0BB97E0BBC96CB26F696CA60
S1130AE02B298A8097CA867F97F78EC8E1CEC8F9EA
S1130AF08610BD13BA8EC8E1CEC9048620BD13BAD0
S1130B008EC8E1CEC90F8630BD13BA96F78002971E
S1130B10F781302D708E1B05CECADF108EC8F98682
S1130B20FEBD13A58E1B20CECAFF108EC9048602FB
S1130B30BD13A58E1B35CECB1F108EC90F86FDBDF0
S1130B4013A5340886D01F8BB6C8F7BDF2ABFCC919
S1130B5001BDF2FC8ECADFA680F6C8E7BDF3B7FC80
S1130B60C90CBDF2FC8ECAFFA680F6C8E7BDF3B778
S1130B70FCC917BDF2FC8ECB1FA680F6C8E7BDF3F7
S1130B80B735082037BD12D96A26DCD0BBC91C4C46
S1130B90FBC91EED2496792717B6C92CBAC9332789
S1130BA014969B8B028402979BBD12D9E62627E9F3
S1130BB0B6C91A2604860197CB1CFE391A0139B628
S1130BC0C92227307AC922BDF2A9CE1715BDEA9DE4
S1130BD0CE165FB6C89BEEC6108E463EBDEAA8CCC4
S1130BE0FA38FDC82A8E8030F6C91A2B07270586E5
S1130BF068BDF393B6C8D7261FB6C8CD81112D188A
S1130C00BDF2A9B6C8CC81022C08CE171FBDEA9D3F
S1130C102006CE1730BDF385B6C8D8264BBDF2A545
S1130C20CE16D9BD14D2B6C8CC271B4A2725865464
S1130C30BDF2ABCE16E7BD14D28648BDF2AB8E1F13
S1130C4058BD14BF20188654BDF2ABCE16E7BD14B0
S1130C50D2200B8654BDF2ABCE16EDBD14D2BDF23C
S1130C60A1CE16F3BD14D239B6C8F62706BDF517C2
S1130C70B7C829B6C8F8BDF2ABCE1703BD14D2BDB0
S1130C80F2A5CE170DBD14D23996F2102B012D10FA
S1130C9026013D96EF102600D996ED9AEE9AF09A29
S1130CA0F12606BDF6877E0DE70F5686FFBD0DF2D1
S1130CB096F12B2F2642D6EE273E2A09861097EE70
S1130CC08E00809FF30AEED7449EF3D6EEC501272B
S1130CD00430102002300C9FF39F4B86FE944597FE
S1130CE045201586FFBD0DF2860197F10F778680AA
S1130CF09767CE0E31BDF92ED6ED273C2A04861017
S1130D0097ED96F02B020FF00AEDC10A240BC107F0
S1130D102403582004C610D0EDD743D74286183D8B
S1130D20DD49C610D0EDD74686243DDD4786E986E9
S1130D30F9944597457E0DDAF6C91E26040FF02076
S1130D402FD6F0272B2A04862097F00AF0962685C2
S1130D500127015F57D743D74286F99445974586C3
S1130D602090F0C6083DC30080DD49C30050DD4734
S1130D702068810126020FF5D6EF96F5260AC18078
S1130D802604864897F50CEF0AF52A020FF586FF2C
S1130D908D60575757BDF58BC10F23015AD744D7E0
S1130DA043D742D746CC0100DD4B830070DD498335
S1130DB00030DD4786C894459745202586FF8D324F
S1130DC0860197F20F7786809767CE0E35BDF92E90
S1130DD00FED0FEE0FF00FEF0FF1BDF92E96772602
S1130DE0060FF10FF20F67340886D01F8BBDF2890E
S1130DF0358834560F564D2A05BDF53335D684074C
S1130E001F893406484848AAE09A4597458EC83F4A
S1130E106F806F806F800F46CEC8473502C602448C
S1130E20240A6F85586FC55C6FC55A545A2AF03529
S1130E30D608FF00023F000001FEE8FEB682891AD0
S1130E400F8289150582891A0A82891D1E82891AD0
S1130E501E858E1D0F858E1A05858E1D0A858E2191
S1130E601E858E1D1E8C85210F8C851D058C85216C
S1130E700A8C85241E8C90181E91891D0F91891847
S1130E800591891D0A918921642180FDC3FEB6A7BD
S1130E909B0F0FA79B0F05A79B0F05A79B0F05AEE5
S1130EA0A2167F2280CEC9428609978FA6402607C4
S1130EB0334F0A8F26F63996CA261BA64B271710DE
S1130EC09EE5DCEAAE49BDF8FF240B868097F20C60
S1130ED0CABD13D820DA968F81052FD4108EC9C9C4
S1130EE086069790A6202608312F0A9026F620C061
S1130EF03420AE4910AE29CC0404BDF8FF352024BB
S1130F00E7A6202BCC868097EEA62EA04CA72E8198
S1130F10022E20A6208A80A7208650A72ECC00006F
S1130F20ED21ED230FEE868097F1CC0010BD134F19
S1130F307E0ED134401F23BD07FE3540209396CA50
S1130F402611CEC9C986069790A6402607334F0AB4
S1130F509026F639109EE5AE49DCEABDF8FF24ED93
S1130F60868097F20CCAA6408A80A7408650A74E76
S1130F70CC0000ED41ED4339B6C91D2714108ECACB
S1130F8023860A978FA62027022A07312E0A8F2646
S1130F90F43996CA261D3420AE29109EE5DCEABD3C
S1130FA0F8FF3520240D868097F20CCA6F207AC989
S1130FB01D20D8CEC94286059790A6402608334FF7
S1130FC00A9026F620C53420AE49CC040410AE297C
S1130FD0BDF8FF352024E7868097F1A620844026BB
S1130FE00896CE8440260F2006CC0050BD134F6FC8
S1130FF0207AC91D20438ECA77C604A6002707306D
S11310000E5A26F720E98641A720A700EC25ED0516
S1131010EC27ED07EC29ED097CC91DA62BBD14882E
S1131020A72BBD1488A70B34601F138640BD135F24
S11310301F238640BD135F3560CC0050BD134FBDE8
S113104013D87E0F8B108ECAAF8603978FA62026E7
S11310500831A8100A8F26F539844027F496CA2649
S11310601AA6202B163420AE29109EE5DCEABDF822
S1131070FF35202406868097F20CCACEC942860525
S11310809790A6402608334F0A9026F620C33420B2
S1131090AE49EC2E10AE29BDF8FF352024E8A62079
S11310A02B1886C0A7207AC91E868097F1867FA751
S11310B02DCC0100BD134FBD1239BD13D82092347D
S11310C040A64B9797EC415849DDBEEC435849DDA7
S11310D0C08608D6B6CB803DD6CCC1012605D6BA8B
S11310E0502002D6BACB805849584958498E175CCB
S11310F048EC861027009B102B009B97905D2604DC
S1131100D6900F908E17DC58D791AE85A60197C65E
S1131110A60297C796CC81012614A6034097C8A6B9
S1131120044097C9A6008B20843F9795200CA60302
S113113097C8A60497C9A600979596C9D6C790C81C
S1131140D0C640DD8396B690C6D6BAD0C8DDC2DC20
S1131150838D63DD8596B890C6D6BCD0C8DDC2DC6D
S1131160838D53DD87968598872A2196C0D6BE4005
S1131170DDC296C6D6C890B6D0BA8D3ADD8896C779
S1131180D6C990B6D0BA8D2E98882B10969010267A
S1131190FF6E1CFC35C01A021CFE35C0D695DB97C9
S11311A0C43F54549EC49691AE86E6852BE8E74B23
S11311B01A011CFD35C03404D6C2BD14A73406A6DA
S11311C062D6C3BD14A7E3E1326139346096D027F7
S11311D0668606CEC9C9108ECA236D4026046D20CA
S11311E02709334F312E4A26F1204396CDA7408656
S11311F080A720CC5A00ED45ED25CC0000ED47ED4D
S113120027BDF517843F8B02A74D8607A74E8E197D
S113121092A645BD1462E74CE72CDCD2ED41ED21EA
S1131220DCD4ED43ED237CC91C7CC91D0AD0BDF57B
S113123017843F8B30979C35E0344096D1274F86F6
S113124003CECAAFE640270833C8104A26F6203535
S11312508601A740CC5A00ED45CC0000ED47BDF512
S113126017843F8A20A74DBDF517BD1488A74BBD31
S1131270F517843F8B10E64BBDE7D210AF41AF4367
S11312807CC91E0AD1BDF517843F8B10979F35C0CA
S11312908EC942CC0000ED818CCADF2FF9860F97EE
S11312A0ECCC9000DDE1DDE5CC0000DDE30F9C0F2C
S11312B09F7FC91B7FC91C7FC91D7FC91E0FED0FEE
S11312C0EE0FF00FEF0FF10FF20F77BDF5330FF6BE
S11312D0867FB7C922B7C92539108E1663969B102D
S11312E0AEA639BDF5330FEF0FF10FF20F773408C7
S11312F086D01F8BBDEACFCEEE2FBDEA9D35088E7A
S1131300C8A8CECBEBBDF8D88EC8AFCECBEBBDF81A
S1131310D8BEC923301FBFC923270FB6C925270547
S11313207AC9252004960F26063935067E002D3508
S1131330067E0047960F260BBEC91F301FBFC91F6C
S11313402708398E8000BFC91F3935067E002D3429
S1131350168EED9F969BAE86EC60BDF87C35963478
S113136030E64BBDE7D210AF41AF4335B0EC45DDBD
S1131370B6E34134021FA8840244A77F3502ED4539
S1131380A749E341DDB8EC47DDBAE34334021FA8C3
S113139084F2AA7FA77F3502ED47A74AE343DDBC69
S11313A0A67E1F8A393470AB2AA72AE680E7C0BD1F
S11313B0F610EE62335F8DB535F03430BD146ABD7E
S11313C0E7D210AF40AF423530EC00ED44A748EC13
S11313D002ED46A7496F4A396F407AC91B0FEC39B1
S11313E096CC8103274481012717CE1A3A8ECB3F2E
S11313F08640BDF683CE1A7A8ECB7F8640BDF683B7
S113140039CE1A3A8ECB5FC6208D44CE1A5A8ECB73
S11314103FC6208D3ACE1A7A8ECB9FC6208D30CE11
S11314201A9A8ECB7FC6208D263986B0C6208ECBE5
S11314305FBDF552C6208ECB9FBDF5528648C620AF
S11314408ECB3FBDF552C6208ECB7FBDF55239A65B
S1131450C040A7805A26F839E680A680A7A05A265D
S1131460F9398B80444444E686393412BDF5178E2D
S11314701478840FE68635920B0A090807060504DA
S1131480FCFBFAF9F8F7F6F53410444444840434C8
S113149002BDF5178403ABE08E149FA68635902811
S11314A02E2D2C181613143406A6E4A86135063420
S11314B001BDF5843D35012A054353C30001398636
S11314C0FFB7C829A6804AB7C823EC81BDF2FC7EC9
S11314D0F4378E0000867F201BF6CADFCA80F7CA65
S11314E0DFF6CAFFCA80F7CAFFF6CB1FCA80F7CB64
S11314F01FCE16D1B7C883BFC884AEC1272DFCC880
S113150084BDF2FCB6C8839704A6802B05BDF3DA2C
S113151020E81F89841FC520260DC5402605BDF37C
S1131520B920D78D0C20D38D9D20CF86FFB7C82935
S113153039B7C823EC8497010F003002120C00B6AF
S1131540C8CC8101260150D701CC0000201BB7C8AC
S113155023EC8497010F003002120C00B6C8CC8132
S113156001260150D701CCFF00970AD705CC0040D3
S1131570D50D27FC12970AB6C8234A2AD17EF35404
S113158000010600FE00010000010800FE00014009
S113159000010A00FE00018000010A03FE00014070
S11315A040010C03FE00018040010E03FE0001C057
S11315B080010A03FE000140C0010C03FE0001800B
S11315C0C0010E03FE0001C000021003FE000180F2
S11315D0C0021405FE0001C0C0021406FE00020091
S11315E000021E06FE000180C0021E06FE0001C0AD
S11315F0C0022806FE00020080022808FE000180C6
S1131600C0020808FE0001C0C0020808FE00020073
S113161000032005FE0001C0C0032406FE000200F2
S1131620C0032806FE00024000032808FE00020052
S1131630C0032A08FE000240C003300AFE000280F4
S113164080032808FE000200C0033808FE000240A0
S1131650C003480AFE000280FF158015C81610C991
S113166034C93BC926C92D1B4A1B651B801B9B1B08
S1131670B61BCB1BE01BF51C0A1C2F1C541C791D2C
S1131680191D321D4B1D641D7D1D941DAB1DC01DF8
S1131690D31DE61DFB1E121E291E291E291E291CF0
S11316A09E1CC71CEA1CAD1CD81CFB1CBA1CE11DEB
S11316B00A1E4A1E6E1E921EB61E5C1E801EA41EAC
S11316C0C81ABA1AC31ACC1AD91AE41AEF1AFA00A9
S11316D000CADFCAFFCB1F00001EE61EEF1EF81F64
S11316E0011F0A1F1300001F1C1F3100001F3A1F97
S11316F04F00001F631F6A1F711F7A1F7F1F841F03
S11317008B00001FA71FBA1FCF1FE800001F901FE8
S1131710971F9E0000FA2550484C4556454C80FAC8
S11317202570E0594F55204D415920504153538065
S1131730F92874D44142414E444F4E20414C4C2030
S1131740484F504580F9286CD059452057484F20C0
S1131750454E544552204845524580000100000042
S1131760000000000000000004000400010001006B
S1131770000000000000040004008000800001005C
S1131780000000000000040004008000800001004C
S11317900100000004050405800080008000800032
S11317A001020200000005000500800080008000A6
S11317B08000020002030506050680008000800008
S11317C08000030006000600800080008000800086
S11317D0800003000600800080008000000017EAFB
S11317E017EF17F417F917FE18033B980890CC3637
S11317F0052DCA04042B5F02ED0798ED601A3AEB3D
S1131800261C4307235E40100000181618261836BD
S113181018461856186680802A1780800D808080AC
S113182080808080338031310F80800D8080808083
S113183080808031808080318080330F0F80800EE3
S1131840808080808080800F808080808080803154
S1131850808080800C808080808080803180803493
S11318600D0D80800E80800F80808080808080318C
S1131870808080320F8000001884189418A418B453
S113188018C418D4808024282B8080808080808095
S11318908080808024242A80282880808080808002
S11318A080808080808080802C2C2A2A2C28808034
S11318B080808080808080808080808080181580F7
S11318C012128080808080808012181514120C807F
S11318D08080808080808080808080808080808004
S11318E01315800C000018F219021912192219326A
S11318F019421818168080808080808080808080C3
S1131900808018141A808080808080808080801875
S1131910141480161412140E0F808080808080802E
S1131920808028282C288080808080808080802867
S11319302A2428808080808080808080342C2C28F9
S1131940282C808080808080808080808080802996
S113195029240E0C0E0C0E0C0E0C0D0A0D0A0D0A89
S11319600D0A0C090C090C090C090B080B080B08CF
S11319700B080A070A070A070A07090609060906DF
S113198009060805080508050805070407040704EF
S113199007044040403E3C3A38363432302E2C2A3C
S11319A028262422201E1C1A18161412100E0C0CA1
S11319B00C0C0C08080808384048505860687040FF
S11319C0404040403E3C3A38363432302E2C2A28AF
S11319D0242422201E1C1A18161412121010100F80
S11319E00F0F0F0F0E0E0E0D0D0D0C0C0B0B0A0A24
S11319F00909080807070606060606060606060776
S1131A000707070706060606060505050504040478
S1131A1004030303030202020201010000000007A1
S1131A200707070706060606060505050504000060
S1131A30000000485058606870784844403B363194
S1131A402C28241F1A1B1C21262B30333635342D09
S1131A5026211C16101010101010B0B2B4B6B8BA6B
S1131A60BCBEC0C3C6C7C8CFD6DEE6F0FA000604C3
S1131A7002FFFCF9F6F6F6F6F6F66864605B56517A
S1131A804C48443F3A1A1A1A1A1A1E24282E334D67
S1131A9046413C3630303030303090929496989AAB
S1131AA09C9EA0A3A6A7A8AFB6BEC6D0DAF0F60542
S1131AB0050401FDF8D6D6D6D6D6031600FEFCE8FA
S1131AC0FC04F0031600FE04E804041005FCF8FA14
S1131AD000FC080408060004F884F6F804F0060084
S1131AE01E07000484F608041006001EF900FC8496
S1131AF002F902F61A04FC00E9FE840207020A1A3B
S1131B00FCFC00E9020C1600FEFCE8FC0408FC08DE
S1131B10FA00FCF804F8060004081600FE04E804C1
S1131B2009FCF8FA0004F00600FC10060102F61A9B
S1131B300400FCE2F909FC08FA0004100600FCF0B9
S1131B4006FF020A1AFC0004E2070C00F9000EF971
S1131B5007F4FEFCF6060807FE00EDF7FAFA0406A1
S1131B60FA0C0206080C00F9000EF907F4FEFCF664
S1131B70060807FE00EDF7FEFB0804F60DFE060856
S1131B800C00F9000EF907F402FAFA060409FA0047
S1131B90EDF7FEFB0804F60DFE06080C00F9000E36
S1131BA0F907F402FAFA060409FA00EDF7FAFA045E
S1131BB006FA0C02060809F5000A0BEE031A02F4F1
S1131BC0F200FA0CF2E6021203F60B09EF00100B16
S1131BD0EE031A02F0F200FA10F2E6021203F10B1D
S1131BE009FA00050BEE031A02F8F200FA07F2E60E
S1131BF0021203FC0B090000FF0BEE031A02FEF2B3
S1131C0000FA02F2E6021203010B1106000804FBBB
S1131C1000FE05EA02FE04FD0000F808FB00FCF8E3
S1131C20FB00F803000204140202050500F8041185
S1131C3006000804FB00FE05EE00FE04FD0000F8AB
S1131C4004FD00FCF8FB00F8030002041402020582
S1131C500500F8041106000804FB00FE05EE00FE72
S1131C6004FD0000F804FD00FCFCFD00F803000284
S1131C7004100002050500F8041106000804FB0026
S1131C80FE05EA02FE04FD0000F808FB00FCFCFD72
S1131C9000F803000204120002050500F80406001F
S1131CA0F9000EF907FDFA00ED02FA060805F80E30
S1131CB0F4FEFCF6060807FE020505F6F6F7FAFA46
S1131CC00406FA0C02FB0507F5000A0B0705F4F2FB
S1131CD000FA0CF2F704F60B03FF0BE8022003F8FA
S1131CE0FA0306EFE003180208FA070E00FC02FDEF
S1131CF007ECF900F914FA02070402060609EA02DD
S1131D00FE04FD0000F808FB120506F4FDF8FB00D4
S1131D10F8030001041802EA050BFC06F604FE06AB
S1131D20FC0000F809FB00FAF7FB00F804000206C7
S1131D300A040BFC06F604FE06FC0000F809FB008E
S1131D40FAFCFD00F80400020605020BFC06FA0288
S1131D50FE06FC0000F805FD00FAFCFD00F8040096
S1131D60020605020BFC06FA02FE06FC0000F8055A
S1131D70FD00FAF7FB00F8040002060A040AFCFB63
S1131D8008FC04F608040403FDFF0103FCFCFCFF4B
S1131D90FE0302070AFCFB08FC02F608F804FEFD39
S1131DA0030201FD01FC05FE08020709FCFB07FD17
S1131DB0FEF8FEFAFDFD0301FEFC04050408040C14
S1131DC008FCFB07FEF8FCFE0102FDFDFE04010A0F
S1131DD004030608FC060702F804FEFF0202FD02E3
S1131DE004FE0AFC03F809FC060703FE08FE06FDD0
S1131DF00303FFFE0404FB04F604F20AFC060804D1
S1131E00020A08080402FDFD02FFFDFFFCF8FEF8CB
S1131E1002F80AFC060804040A08FC04FDFD01019A
S1131E20FDFC02FC01FEFA02F9060E000202FC02AD
S1131E30FCFC04FC0402FE02020003FBFB03FBFDAA
S1131E400305FD0505FD0503FCFAFB00080400F885
S1131E5000F4FEF3FDFD0202000CFE0EFB0008FC84
S1131E600008000CFE0DFD0302FD00F3FEF1FB0073
S1131E70080400F807F4FAF3FCFD0303040BF80D5F
S1131E80FB0008FC0008070CFA0DFC0303FD04F337
S1131E90F8F1FB00080400F803F405F703FDFC0265
S1131EA0F908FA0EFB0008FC0008030C05090302FC
S1131EB0FCFEF9F8FAF1FB00080400F800F402F360
S1131EC003FDFC02FC0CFE0EFB0008FC0008000CE9
S1131ED0020D0303FCFDFCF3FEF10800FA04FC14FC
S1131EE000D004140504C390AE601C2800C0D0C305
S1131EF0F0CA30381800E0C8C3380228ECFC00D817
S1131F000CC3805058CC2800C040C3001C3024E8C7
S1131F1000D8ECC3304030D0FC00C828C9610700A9
S1131F2009FB0000F3040000F9FC0000F2050000C6
S1131F300AC35D06060100F2F901C961080008FB45
S1131F400000F4040000F8FB0000F404000009C3DE
S1131F505C0906FE00F2FAFE04620E08FEF8FE02B8
S1131F60FEFEFEC21ED21C182004C21840E00CE87B
S1131F7028C32CDC18F0F8E0E0E0C13BABC0E8C1BA
S1131F8024403020C248281018E814C15840E8F012
S1131F90C2000000A0E0E0C20000005FE020C388AF
S1131FA07079D0008084D0A80A031D08E90640088F
S1131FB0B808000410000010F408A9000C10000078
S1131FC008F8000018F80000060C040018F404AB2C
S1131FD00004080008FC00F4F8FCF80018FCE8FC15
S1131FE000E8080000E8F800A610EA10FAE0F4009F
S1131FF0FC0C0000DEF400121212121200000000A9
S9030000FD
