S1130000672047434520313938338019E0F84018D8
S1130010C4504F4C4152205245534355458000BD76
S1130020F1AF4F5FDD210A24CC0204BDF7A90A79A0
S11300300A7A8EC880CC0368BDF548967A97E3CCDB
S113004000C0DD3DBD1020860597D5D679270297DF
S1130050D6CC0BB8DDD38ECAEECC7FA0ED1EC63451
S1130060ED07BDF84F3009BDF84FBDF1AF8EC88024
S1130070CC004EBDF548CE1FCB860CD6E33D33CB2A
S11300808EC8E5860CBDF683BD0D00860497B2BD0F
S113009010DABD0CB1861091D7230297D78EC89180
S11300A0CEC8804F97BC97ADBD0F578603979F81ED
S11300B00226044F5F2027BDF5171FA9D7A1BD1144
S11300C0194D2A03BD19DA1093E725EB1093E922A1
S11300D0E6340296A11F8A35022A03BD19DAED819E
S11300E06FC06FC0969F4A26C47FCB868605979FB4
S11300F0CECA89BD11195757575757DB86CB20C431
S11301003F867FBDF6019797571DD384ED44D6975C
S1130110571DD380ED40BD1119575757571DD38232
S1130120ED4233480A9F26CB4F97BA4A97DDBDF17B
S1130130AFBDF687BDF92E96BA260C960F26040A93
S1130140BA20040F110F0FDCB4102700F5BD0CE822
S113015025355D27200DBF260C3402CC0410BD12BA
S1130160F303BF35028002241C96E3810324014C6F
S113017097E37E006A81E0250A96C9260A863F979E
S1130180C920048B0297B40FA90FA896B497DD81F8
S1130190C0250286C04444444444C606CECB080F5E
S11301A097340EA6C50DC226150DB52604A0E4206D
S11301B002ABE42A09D6B4C1E025014F847F34029E
S11301C09A9797973502E661A7C5272097A7BD138D
S11301D044BDF1AAFCC8ABBDF2FC867FB0C8AA97A7
S11301E006BDF2AB8E1B5C0806BDF3AD350E5A2A74
S11301F0B096B444340ABDF1AA867FA0E0BDF2AB48
S1130200CE1A51BD104335089697260297B496C26C
S1130210262DDCDF0DB62709C3001224104F5F2002
S11302200CC30014108307FF2F03CC07FFDDDF96F8
S1130230B5260CDCE1C302AA2403CCFFFFDDE17E7A
S1130240096696C2264296B6273E96B726104F5F99
S1130250DDDFDD8A0CB626300CB70AB6202ACC00C6
S113026009BD12F30AB6262096B72B0B0AB600B7BF
S1130270CCF900DD8A20114F5FDDB6DD8ACCE0FFCA
S1130280DDB4BD0D057E096696BD1026024196DEDD
S113029027292A148ECAEECECBEBBDF8D88ECAF726
S11302A0CECBEBBDF8D800DE9ED3301F1027ED5027
S11302B09FD396111026FD7A7E06A0BD0CE825F882
S11302C096B08180240C96B69ABC102600CB96AECC
S11302D027044F5F200B96AD2A05CC01302002DCA9
S11302E0E5DD8AD611C508276A96D72716D6905C0D
S11302F0C403D79096B08110250F444444444A91D6
S1130300902506860697CB204A8600BD11652543B5
S113031096D7BD0CD297D7860F97C7D690E7468E4F
S11303201C8B583A96DF2A014F8B04D686CB20BD0E
S1130330F601ED48A601BDF6611F891DD384ED4485
S1130340A601BDF65B1F891DD380ED40E6841DD355
S113035082ED42DCDF108307002D05830040205628
S113036096B08170243396AE2707BDF517850C2609
S113037028960F84062722810627458504270DDC4D
S1130380DFC30020108307002E36202ADCDF830021
S1130390201083F9002D29201DDCDF10938A2716F5
S11303A02E0AC3000A10938A2E0A200A83000A1018
S11303B0938A2E02DC8ADDDF96B69ABC10260041B1
S11303C0D6BC2616D626C5012610D686961B270A25
S11303D02B035A20015CC43FD7860D1C27232B0511
S11303E0CCFF402003CC00C0DD9796889B9897995A
S11303F0D6971DDD97DC82D9989997DD82969997D7
S11304008896DF2A014081052309DCC0C300012549
S11304100B2007DCC08300012502DDC0DCDF47566A
S11304204756475647561F98D686CB20BDF60197A8
S1130430971D584958495849DD8ED6899685D38EDB
S1130440D7899785D68E1D998429029784D6971DBE
S1130450584958495849DD8CD6879681D38CD7871B
S11304609781D68C1D998029029780DCB626329616
S1130470B02717819925080F560AC36C4E2034D62D
S113048026C51F2605BD0CD297B096BD2641860A07
S1130490D6DF2A01505C3D3406DCE1A3E12505DD0D
S11304A0E17E05C74F5FDDE1BD0F570ABECE1A03DB
S11304B0BDF68DC64DD7BD0FD7108E1AB596D26A2C
S11304C0B6E6B68802EAB6260696DE26020ADED626
S11304D0BDC00E102500CED79D96BE2638C12F2252
S11304E0075858CB4350200BC40F585858582B0169
S11304F050C07F969D340ABDF1AAD706350248BD87
S1130500F2AB86CE970C8E1DF2BD16AC86CE970C40
S1130510BD16AC350896DD800424014F97DDDCE17F
S1130520270983082024024F5FDDE1DCDF2717342D
S1130530012A03BD19DA8300382A024F5F35012AE4
S113054003BD19DADDDF8E1F89CECB0ED626C41F7C
S1130550C1182D02C018A685A7C05C1183CB26251F
S1130560EFCC0080EDC1BD11191D8A019BBB810137
S11305702E0681FF2D0297BB96BBC650DD2A969DA1
S11305804848340ABDF1AACC7F80A0E0BDF2FCBD8E
S1130590F2A98E1EB7EC81BD1026CECB0EBD105530
S11305A0BD102035080ABD261E96779A5627040CDE
S11305B0BD201496D2D6792704880297D2BDF5338C
S11305C096DE26037E006A969E27040A9E204ABD74
S11305D0F517979E8603BD1165253EBD11191D585B
S11305E0495849108300C02E061083FF402CECD3D9
S11305F080ED40BD11191D58495849108300C02E83
S1130600061083FF402CECD384ED44BD11195757D9
S11306101DD382ED428605A74B96B927040AB9205B
S11306201396DF2A0140340296B8A0E097B8240E4E
S1130630860597B98602BD11652503BD111F860481
S1130640BD1165253096268401A74BBD1119572786
S1130650FA1DD380ED40BD11195727FA1DD384ED3F
S11306604486FFA749BD11192A015054C10E23F530
S11306701DD382ED4296BC9AB62625DC8093912A3E
S113068003BD19DA1093EB221FDC8493952A03BD72
S113069019DA1093EB22119EC09CED240B7E073DCA
S11306A096BC27F9D6C2260B0ABC1027F9EF2803FB
S11306B0BD10DA96E38102250CBDF51785F72605F2
S11306C08609BD10140FAF0FAE9626840127079636
S11306D0864C843F9786860297A03408BDF1AAC64B
S11306E003F7C89FF6C8BCBDF58BF7C89758F7C881
S11306F0985FF0C898F7C8DDB6C897BDF2AB8E1CFA
S11307002D8608F6C89F3D3085CECB0EB6C8264848
S1130710C603BDF6108640F6C8A03DC040861FBD86
S1130720F2FC8ECB0E8603B7C823BDF2D5BDF354BD
S1130730F6C89F5A2AAB7AC8A02AA4350896AF27D0
S1130740020AAFCEC8F18E1ABDE6472B3058583A8C
S113075096BD270696BE26026C4EA64E270D8B0824
S11307602405BD11BB2016A74E200C96C29ADE9A12
S1130770BD2604AD9120023002AE84AD9133C81180
S11307801183CA8925C096AF97AE108E1AD1EEA1F7
S113079031223420AEA1ECA1DDCE8CCAD4260611C0
S11307A083CABA2703BD1219108C1AE525E6352031
S11307B0108C1AE525D896BC102600F8CEC8918E68
S11307C01B7CBD13C2CC00C0BD12C825020FADBD39
S11307D013382405BD1344280F96AD2604DC82DDAE
S11307E093860197AD7E08B4C6FFD7ADCC7FD09079
S11307F0AA34081F9BBD0FAFAD91BD0FADCCA4FFB4
S1130800BD0D173508DCAB0DB627024F5F474757C0
S113081057DDABCEC8A74FE6C0BDF58B34064FE617
S1130820C0BDF58BE3E4EDE44FE6C0BDF58BE3E139
S113083044564456F7D006C1052235DCABBDF584D9
S113084081042213C104220FD6B0C14024099EDFC3
S11308502B058C01002F2696DF2A01403402340236
S11308603402ABE019ABE019ABE019BD0FF5201A67
S1130870CEC891CC000ABD12C825DC200D96AE2648
S1130880D696B626050CB6BD10DAD6B03408BDF13E
S1130890AAC160241A7FC8248E1B20BD152F7AC8D4
S11308A024FCC8ABBD0D178E1B2AC61FBD16AABDDE
S11308B0F3543508CECA898ECB87A647263DBDF5AD
S11308C017A74747474747479B869736BDF5EFA687
S11308D0472A0140D6DF2A01403402BDF661401F99
S11308E0891DD380ED403502BDF65B1F891DD3847D
S11308F0ED44DC8283000EED426F46DCDF2A07BD47
S113090019DA4756475647564756108300D02403F2
S1130910CC00E0DD97E646A643D397E746A743A677
S1130920428900A7426A47BD13381CFD2418BD1331
S1130930441A01291196AAA780DCAB4757ED817CA4
S1130940CB861CFD1A011FA92908251096DF2B0A46
S1130950200A96DF2A041F9A25026F473348118321
S1130960CAB11025FF5496C2260B96DE270496BD05
S11309702703BD0D5D9E2530019F25BDF1AA86206C
S1130980950D27FCFCC83DDD08BDF1BABDF1F8BDED
S1130990F2A9CCAC80BD0D17CCFF109706F7C8297F
S11309A08E1AF4BDF46E3408BDF1AF96B0816024A4
S11309B04796AD2B35867F5FD026BDF6010F2435D3
S11309C0083406CCA800BD0D17CC15999706F7C8B6
S11309D029BD0FA98E1B16BDF46E7AC824BD0FADB8
S11309E03506BDF3DF3408BDF1AF96DE9ABD9AB487
S11309F09AC29AAE9ABC270535087E0A7CC63F96F1
S1130A00B32602C67F3404DC9193801F022A03BDFF
S1130A1019DADD97DC95938434062A03BD19DAD3F9
S1130A2097DD973506BD17D7D086CB10D1B12713E4
S1130A30D7B1D7368E1B34CECB27EC81EDC19723AB
S1130A40BDF6160AB2261C03B327140AC5DC974464
S1130A505644564456445644564456C1042402C689
S1130A6004D7B2D6B0350AC1502411BD0FAFCCA8FB
S1130A7000BD0D17C6158ECB27BD16AABD0FAD7FC1
S1130A80C824CCB5CFBD0D1786189706CEC8D7BDE0
S1130A901701CC0041BDF2FC7AC82486189706CE13
S1130AA0C8B0BD1701BDF2A986CCB7C8297FC82438
S1130AB0CCA29EBD0D178E1B44BDF3D6F6C8E154DF
S1130AC054BDF3B17AC824BDF3B57FC824CCA220A9
S1130AD0BD0D178E1B44BDF3D6FCC8DFC307001041
S1130AE0830E002F03CC0E004756475647564756F1
S1130AF054545CBDF3B17AC824BDF3B58601340205
S1130B007FC824CE1B58ECC1BD0D17C605D706CC33
S1130B107F006DE4260140BDF4396AE42AE87AC80E
S1130B2024BDF35432618ECB3DA6846F804D27588B
S1130B30F6C8DEFAC8BD2650F6C8AD2B4BF6C8B0D1
S1130B40C160244434023402CCA800BD0D1786349D
S1130B509706A684847F817E2605C61FF7C8C6A68D
S1130B60842A02867F847FBD0FAFA661A1E4270893
S1130B70EC01A01EE01F2002EC01BDF2C330036AA9
S1130B80E426CFBDF354326286849706B6C8C226E3
S1130B9011B6C8B4270C443402867FA0E0BDF2AB82
S1130BA0200EBDF2A9B6C8DEBAC8C2BAC8BD273085
S1130BB0CCFA28FDC82ACC02078E1F83BD1026CE8E
S1130BC0CAFEBD103ABD1020B6C8792713CCFC303C
S1130BD0FDC82AB6C8D2CE1AB98802EEC6BD103AEC
S1130BE0BDF2A9CCFC30FDC82AB6C8D2CE1AB9EEE3
S1130BF0C6BD103AB6C8DE27287FC8C2CEEE2FBDC8
S1130C001035BACAEBB7CAEB2706CE1AA6BD103503
S1130C10B6C8BD264DB6C82685102746CE1A9520DF
S1130C2017B6C8C22705CE1A8D200DB6C8BD271128
S1130C30B6C879270CCE1A79CCFA28FDC82ABD107B
S1130C403AB6C8DE261CB6C82685062715B6C8AE31
S1130C502705CE1A322008B6C8AD2A06CE1A41BDE1
S1130C601048BDF289CECB86A6C46FC04D273F7F06
S1130C70C82434023402867FA0C43402BDF2AB8699
S1130C80FF9706A661A1622604EC412006EC41A070
S1130C905EE05FBDF312350297068E1B6BBDF3CE8B
S1130CA033436AE426D032627AC824BDF3547E0109
S1130CB02E8ECAFECC8F3FED81BDF84F33068E1ABF
S1130CC0B5D6D2E6958620A7C24C5A2704A7C220DF
S1130CD0F9391F8984F0C40F5A2A08C60980102ADA
S1130CE00286903404AAE03934029611840198C231
S1130CF097C2462403BDF533961184FE97113582BD
S1130D00CC0100DDB4862097864FC6068ECB08A79B
S1130D10858B105A2AF9393406F6C8BDC10E240948
S1130D20F6C8CA260435062015BDF517BD111947A6
S1130D3047474747ABE0545454545454EBE07EF2D5
S1130D40FCF6C8AA58F7C8A6C6FFF0C8A6F7C8A6F6
S1130D50FCC8ABBDF2FCF6C8A6547E16AA9656266D
S1130D6016D6C327132A1000C34FBD0F578680978A
S1130D7067CE1A2ABDF92E39D6C427110FC40F77AE
S1130D80CE1A2E86809767BD0F57BDF92E8605BDF6
S1130D900F57D6DF2A01505858581D340658495861
S1130DA04958493406CC0800A3E1DD4BCC01B0A37B
S1130DB0E1DD47CC080A9742D7449626484848477D
S1130DC047472A0140974686DA94459745D6C62771
S1130DD02A0AC68604BD0F574394459745C11F266A
S1130DE0078E00809F479FCC54D74256561D8A01D8
S1130DF048481F891DD3CCDDCCDD47D6C5271B0F42
S1130E00C58604BD0F574394459745CC01100DADDD
S1130E102A024756DD47C60FD742D6C8260896AFE2
S1130E202724860F97C88605BD0F574394459745D9
S1130E300AC85858581DC30080DD4BC30020DD4745
S1130E40860A97449742D67727040FC7202BD6C724
S1130E5027278602BD0F570AC7C1082C035820064E
S1130E603404C617E0E0C00424015FD743C60FD0A2
S1130E7043D74686EF94459745D6CB27160ACB86AB
S1130E8002BD0F5743944597455858D7438E0040A9
S1130E903A9F49D6C927250AC98680BD0F57C12F55
S1130EA02305C04F5020015757D744D743D742BDDD
S1130EB0F517841F9746C6C7D445D745D6BC273AED
S1130EC08680BD0F57BDF58B34041D3406C30080E6
S1130ED0DD4BC30080DD49CC0200A3E1DD473502D0
S1130EE0474747810524028605974497439742BDA7
S1130EF0F517974686E894459745D6CA27120ACA35
S1130F0086018D534394459745D744CC0500DD4B6A
S1130F10DCB627425D2B3F86038D3C4394459745C1
S1130F20D6261D8E0400308B1F10DD4BBD19DA84CC
S1130F3007DD4996B6444444810F2302860F974443
S1130F40974396B681E0250E86F7944597459626F5
S1130F504848841F97463934560F564D2B0F261692
S1130F600F560F778EC8C5CC0009BDF54896772675
S1130F7003BDF53335D684071F893406484848AA8B
S1130F80E09A4597458EC83F6F806F806F800F460B
S1130F90CEC8473502C60244240A6F85586FC55C23
S1130FA06FC55A545A2AF035D6865F2002867FF6DA
S1130FB0C8DD3D7EF2ABB6C8CA2664A647810226C8
S1130FC01DF6C8DFBDF58BC102240F585858585878
S1130FD0583404BDF517A1E0240486992017FCC8F1
S1130FE0DF2A03BD19DA484884F054545454543465
S1130FF004AAE08A01F6C8CA2625F6C8B6FAC8B714
S1131000261DC60FF7C8CA3402FCC8DFBD19DAFDB5
S1131010C8DF3502BBC8B01924028699B7C8B039F5
S11310208EF9D4CC5007B7C8DCBFC8D85A3DF3C832
S1131030D8FDC8DA39ECC1FDC82AECC1BDF31220D1
S1131040148D05A6C426FA39ECC1FDC82AECC1BD2D
S11310500D17BDF575FFC82C6FE2BEC8D8CC188338
S11310600F01970BD7000A00CC80810C00D70097A2
S113107000BDF57D0C00B6C82B9701CC0100FEC85D
S11310802C97002004A686970AA6C02AF886819782
S113109000960D84022702A7E40001F6C8DC86014D
S11310A09700BCC8DA242930851F30B3C82CC0028D
S11310B0588681125A26FA9700F6C82A5858D7013A
S11310C00A00C6010C000F01D700C68397002094C4
S11310D08698970BBDF354A6E03934568ECAB1CC2A
S11310E00035BDF548CEC8F1FFC8D01F31C611BDCB
S11310F0F53F6A4733C8111183CA892404EF0F20CE
S1131100EACEFFFFEF0F8ECAE6CE1AEF8605BDF6D4
S113111083B6C8F0B7CAE935D6BDF5171F8939CCEF
S11311207F01D79FD6860DB62602CB20C43FBDF6DD
S1131130018EC8801E893446D69FE6E51D5849E3D2
S113114081EDC4BD111957571DE3C4EDC1300233FD
S1131150420A9F2AE33546BDF517C61E3D1F891D69
S1131160D382ED42393436D6B62704D6B72C3BD6D3
S1131170BC26378ECAE6E6862730DED01183FFFF11
S11311802728EC4FDDD03506A7476A868E1AD1484A
S113119048AE86E6848D17E74D108EF9DCA6A5AA25
S11311A084A78058EF851CFE35B01A0135B6340289
S11311B04F5424034C20FA1F8935823436DCB6267A
S11311C0296F4EA6478ECAE66C8648488E1AD1AE61
S11311D086108EF9DCE64DE6A553E484E78486FFA9
S11311E0A747A74DDCD0DFD0ED4F35B6BD13C2A65F
S11311F04E10260226BD13381CFD2407BD13441AC5
S1131200012801393408BDF1AA867FB0C8AABD0FF0
S1131210AFAD911CFD1A0135883476A6842710E6FB
S1131220C4270CDD9786FF979C979D0D9726023562
S1131230F60C9C049724F40D98260CEE66A6C4972D
S11312409886FF979D20E40C9D049824EADC9C4832
S11312504C585CAE62AE86EE66EEC5A60EAA4E266D
S1131260D68D7024D2BD1338241E96A7D6A9BDF5F9
S1131270843404ABE04444444481092302860934A1
S1131280028609A0E0BD1014A6472625108E1AE593
S1131290A60781032611A60B84079BD71997D79617
S11312A0E18B20250297E1A60748ECA6BD12F30ABC
S11312B0C4BD11BB108EF9DC6C0EE60DE6A553E43B
S11312C0F802E7F8027E123734108EC8808D02359A
S11312D090DDCE3450860397A0ECC1A3812A03BDD0
S11312E019DA1093CE2E080AA026EE1A0135D01C66
S11312F0FE35D034568E1AB996D2AE8630023506F3
S1131300BDF87C96E4261CEC0181322516C13525F6
S1131310128E1AB596D26C96BD0CB1CE1A16BDF6C5
S1131320920AE435D0EC409380D7A7EC429382D75D
S1131330A8EC449384D7A939CC00608D8B24048D08
S1131340E41A013996869736BDF5EF96A7BDF66186
S1131350340296A9BDF65BA0E081022F2697AA96D7
S1131360A88D23291EC1C82F1AD7AB96A9BDF66133
S1131370340296A7BDF65BABE0408D0A2905D7ACD5
S11313801CFD391A02391FA92A0140D7A191AA2CA0
S11313902ED6AAC0022528C10E22020A23108E1EB0
S11313A039E6A53D0D232608475647564756475666
S11313B00F235D2B0A96A11F8A2A01501CFD391A9E
S11313C002393470108ECB3DA6A0C6033D31ABCCA0
S11313D000C0BD12C82442EC40938047564756D7FC
S11313E097EC44938447564756D79886209086971F
S11313F0368EC8973302BDF616EC84ED21BDF59305
S11314005FD026D036CB10C43F58AE64A607810304
S11314102602CA80E7A47CCB3D35F0BD13382405F1
S1131420BD1344280139A64EC67FD0AA3D1F895456
S1131430A64E443402867FA0E0340EBDF1AAFCC857
S1131440ABBDF2FC3506D706BD0FAF860FB7C82378
S11314508E1C2DBDF2D53588BD13C2A64E26BCEC1C
S1131460429382102FFD88DD97EC40938034042A48
S113147003BD19DA108300603504222ED7A7EC448B
S1131480938434042A03BD19DA10830060350422DE
S113149019D7A996869736BDF5EF96A7BDF661973D
S11314A09996A9BDF65B90992E013997AA96A9BD84
S11314B0F661979996A7BDF65B9B9940BD13862963
S11314C0E9D7ACDC972A03BD19DA1083007E240C1B
S11314D09698BD13862905D7AB7E12043408CC7ABE
S11314E0D097AB90AA1F9BBD0FAFFCC8ABBDF2FC5D
S11314F086FF8D133588BD0D417FC8248E1C19BD10
S11315000D417AC82486F0970634108E1C1DC60E31
S1131510B6C8A63D3402FCC8ABA0E08B80CB805497
S1131520545454A0853510802644405F7EF3DF3444
S1131530168603B7C8A04F5FFDC8A286CE970CB627
S1131540C8A04479C8A24479C8A3AE62BD16AC7AD7
S1131550C8A02AE23596B6C8B62705B6C8B72C196E
S11315603410BD0D413510B6C8A644443402B6C883
S1131570A6A0E0B7C8A67E0D503410CCCE7F970C41
S1131580F0C8AABD16AA86CE970C9606D606444481
S11315909706D006D7063510BD16AAF6C8B6545419
S11315A05454C1072302C6078E1BAA5D2703BD1529
S11315B02F3008C102240458582007300A860AC074
S11315C0023D3ABD152FB6C8B680402563817F23FE
S11315D002867FB7C8A6CCC4E0BDF2FCB6C8A69705
S11315E006CC3A1ABDF3DFCCC420BDF2FCB6C8A6C3
S11315F09706CC3AE67FC824BDF3DF7AC82486A0D8
S1131600B0C8A69706CC00CEBDF3DFCCC600BDF2B1
S1131610FCB6C8A6800824014F970686CCB7C82913
S1131620CC3A00BDF439BDF354B6C8B681E0240108
S113163039F6C8B7260786E0B0C8B620028BE15F4A
S1131640FDC8AB40B7C8A67AC8A38D037FC8A38ED4
S11316501B8EBD0D507E0D50B6C8A7F6C8A9BDF5AA
S113166093F6C836E0465AC43F5454C1082309349B
S113167004C610E0E07AC8A358AE85BD0D417FC80A
S1131680A339A64BC6123D30857E0D41FCC8ABBDC7
S1131690F2FCC67FF0C8AA54A6464479C8A344798C
S11316A0C8A28D064F5FFDC8A239D706A680B7C869
S11316B0237FC8A40F0A7AC8232A0C7FC823864034
S11316C0950D27FC7EF34F78C8A57AC8A42A0A860C
S11316D007B7C8A4A680B7C8A5A6807DC8A227015D
S11316E04097010F00F6C8A5A6800C007DC8A3276B
S11316F0014097011D970A0F058640950D27FC2090
S1131700B3B6C82434327FC824108E1FB18601B703
S1131710C89F8607B7C823B7C8A4A6C4F6C89F271E
S11317200444444444840FA6A6B7C8A58E1FBB8DA9
S1131730A87AC89F2ADC3532B7C8247EF34FE6481E
S11317401DE340ED409380108300C02E2F1083FFD3
S1131750402D29E6491DE344ED449384108300C0E1
S11317602E1A1083FF402D14A64781002708CC00B1
S113177004BD12C82501398699BD10147E11BBCC55
S11317800004BD12C8240BA64B8A8084BFA74B7EDD
S11317900FB696268501263ECC01E0BD12C8102462
S11317A0FA19BD11195454541D3406EC4293822A7B
S11317B003BD19DA10A3E12F49EC421093822E0ADB
S11317C0C300031093822E0A200A8300031093821D
S11317D02C02DC82ED42391083007F2E1B1083FF24
S11317E0812D15108C007F2E0F108CFF812D093454
S11317F020A6E0A6E07EF59347561E0247561E0239
S113180020D5EC4093801F02EC4493848DC98B1047
S1131810D6DF2A015026015CDD9786019799CC001A
S113182050BD12C8E64B2506C4870C992002CA088D
S11318309697A0468B10843F81202202C4BFE74BB9
S11318402A77969790868B04843F8108230F968687
S11318508B209797C50827020C997E192C9686A091
S1131860468B21843F810223EFC5082606C4CFE7B7
S11318704B20E79697A046843F8102223CC5082767
S1131880D9C5402634C407D79F27261F328601BDF9
S113189011651E32251BCC060FD7C71E12BDF68359
S11318A01E218604D697BDF601ED280A9F8678A7E7
S11318B04BA64B84F89A9FA74BE64BC508276D9619
S11318C0BC9AB62704C43F2022C5C0261EBDF51706
S11318D02717B6CAE68104251096DF2A014081063F
S11318E02509BDF51795EF2602CA80E74BCC002DDC
S11318F0BD12C82408E64BCA30E74B202FE64B2A1A
S113190006C4CFE74B2025C430C130260FBDF517E0
S113191085F72618E64BC4CFE74B20105D260DBD96
S1131920F517842026028A10AA4BA74BDC983DD7D2
S113193098E64B2A04860A97AF9697C4302712C1BB
S11319403026048B20200A852027048B1020028057
S113195010D698843F3406A646E646A0E0843F2786
S11319600881202D035C20015AC43FE746A6E0BD50
S1131970F601A748E74AE64A1DE344ED44E6481D5C
S1131980E340ED4039CC00C0BD12C8251CEC2093C7
S1131990801F02EC449384BD17D7D6DF2A07812029
S11319A024077E11BB812024F9CC000CBD12C81081
S11319B025F6033996268503261FCC00C0BD12C820
S11319C01024F7F7C603D79FCC000CBD12C810250E
S11319D0F5E4E6491DE342ED42394353C3000139BE
S11319E0FEE8FEB6A61A06A41A06A61A78A41A07D2
S11319F0A21A07A11A079F1A079E950E6C9F9307B8
S1131A007F0080FEE8FEB6950E0D960E0F92950EA1
S1131A10138A93077F00FD69FEB63902380239053F
S1131A203405310534052D0A00802701000112FF19
S1131A300003FC1EC4E6424154544C45204D4F441F
S1131A4045FC1E8EE4444F434B494E47204D4F44C2
S1131A5045F83018E05355424D4152494E4580F8FF
S1131A603008E0524541445920464F5280F830F83E
S1131A70EA4C41554E434880007FD04E455854208F
S1131A80504C41594552205245414459807FF150B0
S1131A9041555345807FD85245504C41593A2041D5
S1131AA04E59204B4559FD21AAE74D2E494E444934
S1131AB043544F5280C8D5C8D6CAECCAF5173E1C49
S1131AC093173E1C7519851BF8177F1CB419B41C99
S1131AD04DCAB10000CABA0001CABD0002CAD4008E
S1131AE003CADB000400000750050010000275045F
S1131AF0010B0305020D34FFF0FCFFF004FF001896
S1131B00FF1004FF10FC0000E802001802F3340088
S1131B10688102007F01FF72CC000068FF8ECC0157
S1131B20046038BA10000010BA3804500800F000FD
S1131B30080800F0075C7F0008001800E80500F6BC
S1131B401805100003401000007FF0000081007FA2
S1131B50024000FC0804F804A2C1007E06D6C00DB1
S1131B60340018F334680000809800070002FE0275
S1131B70FE00FEFE00FE02FE020002021556077E73
S1131B802000F060E000F0A010A02000106007EE3C
S1131B90320020F0FA1006F0F4B0E608CE4005D882
S1131BA0FCE84AB8B648FE00FC1803600400FE0CCA
S1131BB0FE000180200002401E0CE20004501C18AC
S1131BC0E4000400FEF404501A24E6000600FCE8D5
S1131BD004501830E8000800FADC0450163CEA000F
S1131BE00A00F8D004501448EC000C00F6C4045069
S1131BF01254EE000E00F4B8145814F60D7FE600EB
S1131C000B020D0D020B02F50DF30BFEF5FEF8F3BE
S1131C10F3FEF5FE0BF30DF5020100F300000409D9
S1131C200D11151818181815110D09040010D0E01D
S1131C30D80022D200D0E9F932F920201040D01087
S1131C4030F0F0E9D0304012F0F021F0D011EC1671
S1131C5082087F09E20F1EE80C0012EBE209F10C86
S1131C600609EB087F09E5151E001EEBEEEE0CF4E9
S1131C70EE00DC1E0011EC0D4108FFFAFEFEFAFE38
S1131C8006FA020602020602FA06FE02FE0202FE3C
S1131C90FEFE0211EC168C0DFD0204FE04FC00FE97
S1131CA0FC02FC0400FB02FE00E8F60B0EFD01FE44
S1131CB0FDFEF40711EC16581CCA1CE11D001D237F
S1131CC01D461D631D8B1DAE1DD10A7D0A00FAF64B
S1131CD0E80A1E00FA0AE8F61BFB0D03C00004F331
S1131CE0030E7E0AF0E20A0B16FC010B00FCFF1047
S1131CF0E0FB0AF40A010005FD04F30103FC0D00F6
S1131D00107F0AE5E70A0C28FC0100010B0000FF24
S1131D10FCFFBD0ACEFC1409020002FE06F6030213
S1131D20F70A00107F07DAED0A053CFD0400020CF7
S1131D300000FEFCFCBD09BAFD1B0A020001FF08FD
S1131D40F40902EE0B010D7F00D0F30A054CFB06EB
S1131D5000040F0000FCFBFAB803AAFF1C0C0200ED
S1131D600AF30E127F04EAF805FC25040AF904FFBD
S1131D70021B00FEFEEFF8FD01F8FED3011009017D
S1131D8001060002F6074000FE0AF9107FFFEEFC90
S1131D9004FA1B0708F4062100F3FA03F6BDF8E37E
S1131DA00309080002040002F908FFFD07F9107F87
S1131DB001F3FB03F8190803F1032800EFFD06FB08
S1131DC0BDF7E60206080002030002F904FFFF085B
S1131DD0FC0F6DF2FF12F705090002FB09EEF7F89C
S1131DE0FF17FEEE1602EA02E9FE1EFC0D020004D5
S1131DF0F3020E55F0F0E8E838F8F818180C20F45F
S1131E00102CE0F854E8200C14C8DCEC1CE4D424B6
S1131E10F81255C0E8E0F44CC008202CF40CE4148B
S1131E2028EC14551C2420FCF848E8F0C4340420A1
S1131E30E4C0FC2040CCD0E814805540332C25204D
S1131E401C1A171514121110F1E4D8CDC3BAB2AB91
S1131E50A49E98928D8984807C7875726F6C696673
S1131E6064625F5D5B5957555452504F4D4C4A491B
S1131E7048474544434241403F3E3D3C3B3B3A3961
S1131E8038373736353534333332313130302F2F1C
S1131E902E2E2D2D2C2C2B2B2A2A29292928282794
S1131EA027272626262525252424242323232222E6
S1131EB0222221212121200D100000000000000019
S1131EC000007FF8000000000000000000000FC0C8
S1131ED00FC000000000000000000078000078003F
S1131EE00000000000000001C000000F000000001E
S1131EF0000000000F00000001C00000000000000E
S1131F000038000000007000000000000000E00045
S1131F100000001C0080000000000780000000009A
S1131F200700E0000000001C000000000000003872
S1131F300000000070000000000000000F0000001E
S1131F4001C00000000000000001C000000F0000FC
S1131F50000000000000007800007800000000008D
S1131F60000000000FC00FC00000000000000000CF
S1131F7000007FF8000000000000000000000000E6
S1131F800000000000000000000102030405060731
S1131F9008090A0B0C0102030405060708090A0BC9
S1131FA00C00FF0000001800BC004200BC00000050
S1131FB000FC306E7AB2DADE70FEFA18030018E81C
S1131FC0FDE8FD00E81803001800140000030004F5
S1131FD080060001A4FF0100C0060009000C0003F4
S1131FE044F702010008000C0010000400DD0302A5
S1131FF0000C00120018000580F104FFFFFFFFFF32
S9030000FD
