S113000067204743452031393832800F86F8502025
S1130010B0535041434520574152538000BDF14CE9
S1130020BDF164CCF850DD2A8EC880CC02806F808C
S113003083000126F9CC02C3DD93DD958620971A4F
S1130040861F97C8863F97C9865F97CA867F97CBD6
S11300508E0F21CEC8FFC6204F3456BDF61035563C
S11300604C33445A26F38602C607BDF7A9967A4A4A
S1130070488E0F40308610AE848EC88BC60A5A272D
S113008006A6A0A78020F7BDF1AFCC0000DDE6DD19
S1130090E897F8CC6000DDEABDF1AFCC0000DDF5F7
S11300A0DD8897C5CC0800DDF1DDF3CC0190DDE1FE
S11300B0DDE38EC9EDDC8BED08ED0A8668A70EBD85
S11300C0F517A70C8600A788188619A78819CC0DE0
S11300D0A9ED8814CCCA2BED881630881AC624BD25
S11300E0F53F108EC9FF8610A7A4BD0B478ECA7DAD
S11300F0DC8BED08ED0A8698A70EBDF517A70C86D4
S113010000A788188619A78819CC0DFBED8814CC94
S1130110CABBED881630881AC624BDF53F108ECAB6
S11301208F86F0A7A4BD0B47CC0000FDC97FFDC995
S1130130B6BDF1AABDF2E6BD0755BDF1F8BDF2A901
S1130140BDF1BAB6C87981012603BD02ACBDF1AFD9
S1130150108EC9ED8ECA679FC68EC812CEC81B8684
S11301600497C4860097DECCC97FDDD8CCC8E1DD16
S1130170DFCCC8F1DDEFBDF1AABD090ABDF1AF10B6
S11301808ECA7D8ECAEE9FC68EC816CEC81D864006
S113019097C4860497DECCC9B6DDD8CCC8E3DDDFCE
S11301A0CCC8F3DDEFBDF1AABD090ABD0936BDF225
S11301B0A9BD0412B6C8F82642BD07A5B6C8E51005
S11301C027009E86F0B7C8F8CC0096FDC8EDBDF5B3
S11301D033BDF289CEFF26BDF1AFBDF68D2067FC9D
S11301E0C8E6C10A270AFCC8E8C10A27037E0098AA
S11301F086FFB7C8F8CC0C00FDC8ED81F02747CEC8
S11302000F25CC20E0BDF2FCBDF495CE0F29CCE047
S1130210A8BDF2FCBDF495CE0F37CCC0C8BDF2FC2E
S1130220BDF495FCC8ED830001FDC8ED1027EDD0A9
S1130230810B2B09C48027057FC80F2053B6C80F34
S11302401026FE43204ABDF1AFBDF687BDF1AABD1D
S1130250F289FCC8ED5AFDC8ED26357FC8F816FFB3
S11302607ECCC97FFDC8D88EC9EDCECA67108ECAB0
S11302707DBD09CACCC9B6FDC8D88ECA7DCECAEE2A
S1130280108EC9EDBD09CABD0604BD0CCABD0299D4
S1130290BD053ABDF1927E0131B6C8268401270717
S11302A0CE0D82BDF27D39CE0D8720F7B6C8F82772
S11302B001398EC9EDCECA7DBD02BC398640B7C8AE
S11302C0F7CC0000BD03984D2657B6C97F261C867F
S11302D060B7C8F7A60CE60EBD03A04D270D5D263A
S11302E00A818026068601B7C81939A6C8192716B7
S11302F0B6C97F2711C630B7C8F7A60CE60EBD03F2
S1130300984D261D200F867FB7C8F7A60CE60EBDB4
S113031003A04D260CB6C880F6C882BD03984D27AD
S11303200681802762202EB6C8F527094AB7C8F58A
S1130330B6C8F6202DBDF517840381012709810372
S1130340270C7FC8F6201B86FFB7C8F62014860149
S1130350B7C8F6200DB7C81D8608B7C8F55D2614C2
S11303602028B7C81DA644E646BDF5843404ABE096
S113037081032B16B6C8F927057AC8F92011B6C827
S11303800F84BFB7C80F397FC81D860AB7C8F9B62E
S1130390C80F8A40B7C80F397FC8C07AC8C02003C5
S11303A07FC8C0FDC8BEA64CE64EB0C8BEF0C8BFEC
S11303B04050FDC8BEBDF584F7C8C2BBC8C22B05FA
S11303C0B1C8F72B024F39A6C812843FB7C8C286FA
S11303D0C81F8BFCC8BEBDF593C6D01F9B8010847C
S11303E03FF6C8C027048B20843FB1C8C2260486C8
S11303F0805F392A028B40C6FFB0C8C281202B021D
S11304005C5C34048020BDF5845F81182A015C356E
S11304100239B6C8F8264DFCC8882648BDF51784AD
S113042001260ACC0100FDC8887FC88A3986FFB737
S1130430C88ACC0100FDC8888EC880BDF517840128
S1130440260ACC7E00ED84CCFF002008CC8100ED90
S113045084CC0100ED04BDF5175FED02BDF5171F57
S1130460894FED06B6C88A260AFCC888830001FDB8
S1130470C888398EC880A684E602BD0683271DB6C7
S1130480C891F6C89034068601B7C8918607B7C8E4
S113049090BD06F43506B7C891F7C890A684E60265
S11304A0817F1027FF7DC17F1027FF778180102770
S11304B0FF71C1801027FF6BB6C8F8260CEC84E3EB
S11304C004ED84EC02E306ED02A684E602BDF2FC30
S11304D08E0F0BC60ABDF40EBDF35439EC9FC8EF62
S11304E05D2627B6C8F8270139EC9FC8D85D2701D7
S11304F039A6012744CC08FFED9FC8EF3430C61459
S1130500BD0D303530EC9FC8EF5D272D2A214D26D7
S1130510195AC1E8261FC6013406BDF5175FED2C34
S1130520BDF5175FED2E3506200B4A260820E24C58
S1130530810826015FED9FC8EF39B6C8F8266286A8
S113054005B7C8ECFCC8E1BD072CB6C8C18EC89776
S1130550BD05CF8620A703A704B6CA068EC89CBDD6
S113056005CF8680A703CC6020BDF2FCCEC897BD22
S1130570F495FCC8E3BD072CB6C8C18EC897BD0569
S1130580CF8620A703A704B6CA968EC89CBD05CF04
S11305908680A703CC6080BDF2FCCEC897BDF495DD
S11305A039B6C8E78EC897BD05CF8680A703CC604F
S11305B0208D13B6C8E98EC897BD05CF8680A703E2
S11305C0CC60808D0139BDF2FCCEC8977EF495C60F
S11305D030E784E701E702806425046C8420F88B0B
S11305E064800A25046C0120F88B0AAB02A702A6DA
S11305F0848130260E8620A784A6018130260486B5
S113060020A70139B6C890260139B7C8EC8EC9EDC8
S1130610A60CE60EBD06832703BD06A3308819A6E3
S113062080271DC6055A27183404A608270CA6845B
S1130630E602BD06832703BD06F43504300920E530
S11306408ECA7DA60CE60EBD06832703BD06A33025
S11306508819A680271DC6055A27183404A608271A
S11306600CA684E602BD06832703BD06F4350430D8
S11306700920E58EC880A600E602BD06832703BDD7
S113068006F439BDF584F7C8BEBBC8BE25132B11CB
S1130690B1C8EA2C0C81052B08B0C8EA40B7C8BE23
S11306A0394F39B6C8912605A60C402002A60C2B5A
S11306B006F6C8BE3D200A40F6C8BE3D4353C300FB
S11306C001BD072CEC04F3C8C0ED04B6C89126059F
S11306D0A60E402002A60E2B06F6C8BE3D200A40F8
S11306E0F6C8BE3D4353C30001BD072CEC06F3C856
S11306F0C0ED0639A600BD0707E304ED04A602BD5C
S11307000707E306ED0639F6C8912601404D2B0B89
S1130710F6C8BE3DBD072CFCC8C03940F6C8BE3D76
S11307204353C30001BD072CFCC8C039FDC8C0F643
S1130730C8EC5A260DFCC8C04D2A06C30001FDC8EA
S1130740C0393404FCC8C047B7C8C01F9846B7C8EE
S1130750C1350420DDCC0000BDF2FCBDF2A1FCC813
S113076025C40F2617C604CEC8935A270F3404BDD8
S1130770F5178A07840FA7C0350420EE108E0ED318
S1130780CEC893C6045A2604BDF354393404A6C013
S1130790B7C8288605B7C823AEA13460BDF2D535E5
S11307A060350420E07FC8E5108EC9ED8EC97FA6B0
S11307B001272981012709CC0200ED28ED2A201CFC
S11307C0CC0000ED28ED2AA7A819A684260E86FFE2
S11307D0B7C8E5FCC8E8C30001FDC8E8108ECA7DAF
S11307E08EC9B6A601272981012709CC0200ED286C
S11307F0ED2A201CCC0000ED28ED2AA7A819A68418
S1130800260E86FFB7C8E5FCC8E6C30001FDC8E6AE
S11308103910BEC8D8A6212719BBC8DE4A48108E95
S11308200E8C31A6ECA41F02C600A6A02704E786FE
S113083020F839A6C42701398664A7C0BDF51784FA
S11308400FB7C8BEC60AA6C081012702C603340476
S1130850FCC8CCEDC135043404BDF517843FA7C0F2
S1130860BDF5178A0F8497A7C0B6C8BE4C840FB7CE
S1130870C8BEA7C06FC06FC035045A26DA86FFA76A
S1130880C439A6C126013934104AA75EECC1FDC89B
S1130890BEA6C481FF272EBD08C8B6C8268401267B
S11308A004334520ECA6412B05A6C44C2003A6C462
S11308B04A843FA7C18E0E6CA6C048EC86ABC4EB3D
S11308C041EDC120CC35103981202A2248488EC8F8
S11308D0FF3086C601F7C823FCC8BEBDF2FCEC435A
S11308E0BDF2FCE641C41FBDF3B1BDF35439802011
S11308F048488EC8FF3086EC844050FDC8FBEC02AB
S11309004050FDC8FD8EC8FB20C93410BD0B5C34BB
S113091020BD096635203420BD0B6C3520FEC8C6C9
S1130920334D35103430BD0B8B35303430BD0BF7BF
S11309303530BD04DC39CC0000BDF2FCC61FD70441
S1130940108EC8C88E0E44C6055A260139A6A48B3B
S113095008A7A02A0140847F3404BDF2ABBDF41083
S11309603504300120E3B6C8F82709A62CE62EFD8D
S1130970C8C220233420BD0AF6BD0AF6BD0B14BD3F
S11309800B14A6A1A6A1A6A1E6A1FDC8C2BD0B3069
S11309902703BD0B473520AEA8163430BEC8C6BDEC
S11309A00C3635303430BD0811FCC8C2BDF2FC35FC
S11309B0303430E69FC8EF2705D704BDF410BDF3EB
S11309C0543530FEC8D8BD088239A69FC8D827013F
S11309D039A60CE60EFDC8CCECC810FDC8D24050B8
S11309E0FDC8BEECC813BBC8BEFBC8BFFDC8D6EC6F
S11309F0C8134050BBC8BEFBC8BFFDC8D4CC000060
S1130A00FDC8CEBD0AA5B6C8D02652B6C88A2711DD
S1130A10B6C880F6C882FDC8CEBD0AA5B6C8D02621
S1130A203CA62CE62EFDC8CEBD0AA5B6C8D0262D00
S1130A3031A819A6A0260139C6055A27FA3404A6F6
S1130A4028270FA6A4E622FDC8CEBD0AA5B6C8D0A5
S1130A5026063504312920E235044FA728FEC8D8DC
S1130A60E641B6C8D08401262FB6C8D0810627280F
S1130A70810227128603C104272AC1032726C10045
S1130A802718860420148602C1042718C1022714DB
S1130A90C1002706860420028601A741C604BD0DB5
S1130AA030BD0833393430CEC8D27FC8D08601B7C0
S1130AB0C8D1EC9FC8D8C10127395A58F7C8FAB62B
S1130AC0C8D1B1C8FA2718BEC8CE10BEC8CCCC064F
S1130AD006BDF8E52409B6C8D1BAC8D0B7C8D0B69F
S1130AE0C8FA8106270D3342B6C8D148B7C8D181A8
S1130AF00826CC353039ECA1E322A1262B07A62603
S1130B00C600ED22396026A1262C04A626C6006064
S1130B1026ED2239ECA12601392B0CC1002703BD97
S1130B200B3CAB26A72639C10027F7BD0B4320F2A7
S1130B30ECA1260139E3A4EDA4860139CB8025017B
S1130B40394C39C0804C393408BDF1AFA6A1AEA1EF
S1130B50EEA1BDF61F35088601A75339A6C42704A4
S1130B602B0686FFA7A81039860120F83124BD0B77
S1130B70732000ECA12B0D270AB3C88D2C03CC00E5
S1130B8000ED3E39F3C88D2BF820F3B6C892B7C8F0
S1130B90ECA603260139A62CE62EFDC8C031A819FF
S1130BA0A6A02601394A3422C6055A27473128A669
S1130BB0A026F7861EA73FB6C8C05FAB43ED37B685
S1130BC0C8C15FAB44ED39A6C45FBD072CFCC8C0E7
S1130BD0ED3BA6415FBD072CFCC8C0ED3DB6C97F07
S1130BE081142A0BB6C9B681142A045FBD0D3035B1
S1130BF022A73F3935223931A819A6A0260139C6C2
S1130C00055A27FA3404ECA4E324EDA4EC22E326E9
S1130C10ED22A6A4E6221F013128A6A027144AA784
S1130C203F861FB7C828867F97041F10BDF2C3BD37
S1130C30F354350420CBF6C8F8260EF6C88FF7C84F
S1130C40ECF6C8C4F4C80F261B6FA818CC0000ED3E
S1130C50A4ED228601A784B6C8C443B4C8C5B7C8E6
S1130C60C58D4F393430BEC8D8A680270AA68481E2
S1130C70012604353020D2B6C8C4BAC8C5B7C8C521
S1130C808D303530EC9FC8DF27BF830001ED9FC84E
S1130C90DF86FFA7844FE60A2A014ABD072CFCC859
S1130CA0C0EDA14FE60B2A014ABD072CFCC8C0EDDC
S1130CB0A43927108104270881402704C60C200684
S1130CC0C6082002C610BD0D3039108EC8A18EC8CA
S1130CD000C607F7C8BD7AC8BD260139EEA1ECA14C
S1130CE0810027F23406ECC181FF272A2B05BDF2CF
S1130CF05920F3847FFDC8BEA6C02B0BE63F3DFB05
S1130D00C8BFB6C8BE20E7E63F3D40BBC8BFB7C8B2
S1130D10BFFCC8BE20D835064A2604ED3E20B75A8B
S1130D202704ED3E20B0E65FED3EECC4ED3C20A68A
S1130D308E0D433A1F128EC8A13AECA1ED81ECA1AD
S1130D40ED81390D5B01010D6801010D7501010D86
S1130D507A01010D7F01010D8C3001071C0A100678
S1130D601F0B000C100D00FF071C0A10061F0B00C0
S1130D700C400D00FF071C090DFF071C090FFF099C
S1130D8000FF030102C080030102EE80071C080F6C
S1130D90010100C0FF170D9880C002FF170D9F804E
S1130DA0EEFEFF010DA60800FF000A00FF12E2FF9D
S1130DB01900FF121EFFEE1EFFE700FFEEE200D84F
S1130DC000FF310F0000E2FFCF0F000FFBFFE7E74A
S1130DD0001E00FFC40000003CFF3C0000E200FFD6
S1130DE019E700F1FBFFD8FEFF0004FF28FE007F97
S1130DF000007F0000030000000201004B00FFB56B
S1130E00E7FFB5E7FF2823FF001EFFD823FF4BE7CA
S1130E10FF4BE700D800FFECEC000028FF14EC00C7
S1130E20BAF1FFEC05FF0014FF140500ECF1FFD844
S1130E30FEFF0004FF28FE007F00007F0000030087
S1130E4000000201001400FFD8000014000100009B
S1130E5014FF00D800001401000EF2FFE41C000E81
S1130E60F201000E0EFFE4E4000E0E01000102FE8A
S1130E700101FFFF0100020201FFFE0000FFFF006D
S1130E80FF010002020000FEFEFEFE020E9C0EA9FF
S1130E900EAD0EB10EB80EC50EC80ECB0306090C6E
S1130EA00F12181E242A3036001E242A0018303649
S1130EB000181E242A3036000306090C0F12151BD5
S1130EC021272A2D000609000F120006090F1227F8
S1130ED02A2D000EDB0EE70EF30EFF7090981080A3
S1130EE038207F7F2048A8C088D87F38707F0028AA
S1130EF080B0A08888287FD87078D860E0D88080B7
S1130F00B070E07F287FF08038A0800000D8FF28F0
S1130F1014FF003CFFEC28FFD8D8FF14B0002800D1
S1130F20011400D800454E4480505245535320418B
S1130F304E59204B455980544F20535441525480AC
S1130F400F4E0F560F5E0F660F6E0F760F7E030067
S1130F500030010000060600004001000005080002
S1130F600040010000040500001801060005070008
S1130F700018010601050700001801060005090014
S1130F80000801060004FE28FEB6021807180C101B
S1130F900B080B300E181318981C10971A08971A80
S1130FA0301A800000000000000000000000000073
S9030000FD
