S113000067204743452031393833800F43F848206F
S1130010E05350494B458000BDF18B8EC880CC0223
S11300207FBDF5488EC920BFC8918EC922BDF84F47
S1130030300CBDF84FCC0200BDF7A98640B7C92BE0
S1130040B7C93744B7C929B7C93596794A0F79C6AC
S113005004F7C920B7C9392703F7C92CBD0509BD61
S113006004C386189793CC0010DD96CCF0E0DDD461
S1130070CC0C61FDC906BD0D44FCC896C110260513
S1130080BD0D6C2003BD0D6CFCC906C1602C03BD05
S11300900CF3BDF1AFBD08190F9A9626850126D63B
S11300A0969781102714F6C9075CC17022020C9A36
S11300B04C4C81602C21979720BCB6C9074A813FDC
S11300C026040C9720F20A9A20EE340ABDF34ABDA6
S11300D0F272350A7E10009E91A6018102242F86B9
S11300E0028DE786038DE386088DDF86078DDB8628
S11300F0058DD7BD0D30BDF1AF96D581602E0F0CA7
S11301001C0CD5BD082420EB4353C3000139BD05A5
S113011009868097B8109E91A62197908EC89EEE6E
S11301202ABDF5171F302B028DDEED818677A702DD
S113013030038CC8AD26E8BDF1AF969048484834EA
S1130140028668A0E02A014F978F96B12653961233
S1130150271C96D32623BDF51781602D014497B340
S11301609E948C1E9426038E1E7830079F94960FBF
S113017044250696AF81032628860397B2BDF34A29
S1130180865CF6C8B3BDF2FC8E03F3C6303414BDEE
S1130190F40EAE61BDF4103514BDF410BDF1AF2002
S11301A04D0FB296B19AB62606D6AF961B26015FBE
S11301B02A015ADE943406BD07483506E146262E48
S11301C096D5A0418BFA81052224A6418B0997D5A7
S11301D097ADC60AD7B4A6454C4C97B50D1B2A0655
S11301E03DD7D44C0AAF97B10FB00F200F1CBD0CF4
S11301F04496D32609BD0954BD09DCBD0B5F8EC9E5
S11302003A8603108E1E5E340297AEBD0575350224
S1130210312B4A26F24AA78496E39AB1264A96B627
S1130220270980032E014F97B6203D96AFD6D5BD42
S1130230048C2A344ABD09A3340296AFBD09A3A095
S1130240E097B60AAFBD04C3201EBDF517E6022B26
S11302500286FF4856E702C4E0C1E02606E602C46F
S11302607FE70296995F203396D19AD326428EC8AF
S11302709EEC81BD0108E3842FD091992F1DBDF51B
S113028017E602C501260286FF4859E702C407C1E2
S1130290072606C6FEE402E7024F5FED8430038CB6
S11302A0C8AD26CD96B1273E96AD97D59626840344
S11302B0265A96D4D61B27712E1990B497D4C60308
S11302C0BD089D96B14C91B52D054F0FD40C2097C8
S11302D0B120569BB497D4C603BD089D0AB12649E4
S11302E00CAF0C200FD496AF273F48489BAF8EC865
S11302F099308696D5D69DE38497D5D79D96E327E6
S11303002896B09BD52803BD042E97D596CF2719E0
S113031096AF8103261396B2270FD6D5D0B3C1105A
S1130320220796E32703BD04DD96AFD6D5BD09A306
S113033097B79BD49BB68180270796AFBD04BF2A8D
S113034003BD042E96D32603BD0824BD0E88BD0428
S11303500096D5BD078CBDF192B6C9382658BDF2BA
S113036089B6C8D1BAC8B6260FBDF1F83018BD0396
S1130370DB8D6886FFBDF1B4BDF2A9FEC891A6432A
S1130380A149270D81312609A749C607BD089D6CDF
S1130390C4C688B6C8792702C61F344486881F019C
S11303A0E6C48669BDF393BD03E535443342867FD5
S11303B0BDF37A7E0137CE0F83BDF378B6C93927F2
S11303C0A0B6C826853F2699B6C8798801B7C879EA
S11303D0488E1E3DAE86BFC8912086E68027051D47
S11303E08A01A71F398EC9228D038EC92ECECBEB6D
S11303F07EF8D8FF3F00000007FFC100000007019E
S11304003406B6C938271DBDF1AABDF1BABDF1AF96
S11304109611260BD626C50726127AC938260D351D
S1130420167E001896D12F0420290CD13586340667
S11304300FD3B6C93826F596D12618BD04C34F5F2D
S1130440DD9EDDA3DDA80F5696D10CD1C604BD08F0
S11304509D0F68813826D335068606BD00CACE1E98
S11304603D967948AEC66A848802AEC6E684260EF6
S11304708802AEC6E684260686FFB7C938399F913E
S1130480449779A601979035107E010ECEC93A346F
S11304900696998BF69780ECC1A1E42EFA2D0BE019
S11304A061CB2DD18022F0403586ECE4CBF68E1E54
S11304B05648AE86E1032DEFC1702EEB4F358634DE
S11304C00620E98EC80FC60E7EF53FFEC8916C412A
S11304D0AE4A30881C8C03002E02AF4A3996D326CC
S11304E00B860597560F688620BD0ADD817F27039A
S11304F00CD3398DD68601BD00CA8600BD00CA86DC
S113050005BD00CA35107E005CBDF1AF8EC893C630
S11305108CBDF53F861597984897998E1E7F9F94BA
S11305208603971F4497AF9720BD09BA867FB7D03B
S11305300E8E072EBFCBF9867EB7CBF81C6F8605CF
S1130540C6058E1F32CEC8ED10AE8110AFC433C5C0
S11305504A26F58EC906CE1F3C8615BDF6838E1F2E
S113056078BFC9158E1F9ABFC91A8EC8D6CE1F1B55
S113057086177EF683BD0726CEC9530F9BA6A49784
S11305809C8D4500AECEC953BD0726E6C04FDD8421
S1130590A6A4979CBD07379780E623DB85E0B808BF
S11305A0AB22BD06CDA621979CBD07379080AB2416
S11305B0E62548584858BD06EC0A9B26CBBD0726BD
S11305C0EC22AB24EB252005BD0726EC22BD06CD8D
S11305D03410C60A8EC881BDF53F86809780AEB8B8
S11305E0069F8C3510968C9580270C8D6904802687
S11305F0F4968D978C20EEDC8434108E070193865C
S11306002E0E8E06D6D699E7C00C9BD7814FDD847B
S1130610E0B808BD06BFAD8435109681260EDC8493
S1130620DD868D329386BD06BFBD06D68D0220625F
S113063096AE2B10A780E6B8084FDD96DC8693961D
S1130640EB23E780398D0FE6B8084F3406DC84A32A
S1130650E1108300E039D6994FD384DD84E7C00CE0
S11306609B39968C958027108DDB2C2C048026F2E8
S1130670968D978C068020EADC8493868D418D7854
S1130680DC84DD868DBF2C14DC8493868D318D460D
S11306908D9EDC84DD8620D48D0620658D0220901D
S11306A00A9BC6E04FEBB80849DD848D129386C1DE
S11306B03F2C0B48583402863FB7D00435023934F6
S11306C0048D741F8990829783D7823584340A8677
S11306D07FB7D0042002340A8D44A6E497010A00AF
S11306E086CE970C0C00D7010F05358A340E861F71
S11306F0200A340E863F2004340E867FB7D00420AF
S113070002340E8D19A6E497010F001E110C00D7B8
S113071001CC00FFD70A970586C0970E358EBDF130
S1130720AA96002AFC398DF6BDF3547EF1AF7FD032
S11307300AC67FF7D00E3BA6B808978B0F8ADC84D5
S1130740938ADD8A969C3D398DDCECC4BD06CDA62A
S1130750435F8D9EA642C620BD06D6A6445F8DA1EA
S1130760860CB7D004A645978086A65FBD06D686BC
S1130770F8C6808D8C0A802712869E5FBD06D686B9
S1130780F8C67F40BD07010A8026DE39B7C8848DCC
S11307903B8E0FBEBDF3AD8D338E0F89BDF4108D2E
S11307A02B8E0FD5BDF410BDF354CE0F96108EC80A
S11307B0D68D0231248D18ECC1BDF3BE30A4860160
S11307C0BDF3DA8E0FF1BDF3CE7EF354BDF34AFCD4
S11307D0C8D4BBC8B7BBC8B6BDF2FCB6C893262301
S11307E0B6C884C6148B8044433DF6C8D12D14B0DA
S11307F0C8D18B022A0D8E0806C608BDF40E35102A
S113080020C74F97043900CE00FF640000ECE2FFDC
S1130810C43C001E14FF009C018EC9103316DF83F4
S1130820330520098EC8DE3316DF83330FDF81A63C
S11308300085012613AD98038502273DEF018A0147
S1130840A700E6D4E7436F423410EE0110AE40A691
S113085042C60B3D5C31A59E8386059785EC84AB2F
S1130860A0EBA0ED810A8526F46A43260A6C42E6D1
S1130870A42602E7F4E743351030059C8126B0CE68
S1130880C915A600840626138602D69A270D2A04C3
S113089086063345C6018D05A700394F393404F661
S11308A0C856270DC1062716C1072712F6C8532BB1
S11308B00DE6E42B0BF7C8567FC8687FC8673584FC
S11308C0C47FF7C8673584CEC8EDA6008406261712
S11308D08602D61C27112A0486063345D6E326044D
S11308E0C6018DB9A700394F399615271296B1263E
S11308F0F6CEC8F7961C4897B0C6838DA08603AA87
S113090000A7003996D126DFCEC8FC8602D614266D
S1130910094FD613271086063345D6B127034F2037
S113092005C681BD089DAA00A7003996BA2B189662
S1130930B29A122712D6B386038D688B20DDB80FC6
S1130940BA0FBB860197BC39BD0E88D626C50326CF
S1130950F60CBA3996BA2BEF2EEE969027E996B894
S1130960818027C70AB896BB9BBC3402BDF584813D
S1130970102D0200BC9780350297BBDCB89B80DB4E
S1130980BB340EBDF34AECE4BDF2FC350E1F03BDCF
S11309900C922A04863F97BABDF1AAC61D8E0D9B00
S11309A07E0A954D27118E1E56340448AE86CB80A0
S11309B0A6843DAB0A3584868039968F97C3C607D3
S11309C0D7BF54D7BD54D7C15CBDF5172A0150D742
S11309D0C0CB7FD7BE0FC20FC40F98399690810247
S11309E025F9BD0726DCBD8DBA9BBF9BC4BD06CDD2
S11309F0D6C227060AC227C22073D6BA2E6FD6BE25
S1130A008E0200BD0AFFD7C296C09BBE29AC97BE1A
S1130A1096C4270F9B9897C4BDF58481032E020FBB
S1130A20C4204A96BF81282E0481052E0200C19B52
S1130A30C197BF96BD91AF2734D6C327040AC320FC
S1130A402CD68FD7C3C60391AF2F03504A4AD798E9
S1130A504C9780D6BEBD09A38B80978196BDBD09F6
S1130A60A38B8000819B8197C4D680D7BD8E1E9BAB
S1130A70D62654C406AE8596C0D6C22618D6BE3431
S1130A8002BDF1AA8620CB8054533D1F893502BD97
S1130A900C9B7EF1AF3402BDF1AA3502C12023EFD5
S1130AA07EF1AF96D58B8044433D393446CE281A27
S1130AB020053446CE211ADF80D6808DE69780D675
S1130AC0818DE097813506A0E4E061BDF5849180D5
S1130AD02208D1812204868035C04F35C0DE913092
S1130AE0425F3402BDF87C3502BBC91F1981302D29
S1130AF006BD04CB4F0C90B7C91F5F395F3590DE3C
S1130B00D41E039BB7340696D126F196E827408578
S1130B10042631A6E480FCCB108D902A321F108D60
S1130B20BCC604BD089DD690C1052F1486039780CA
S1130B308EC89EEC84BD0108ED8430050A8026F33E
S1130B40C6183590A6E48005C010BD0AAB2BCE357F
S1130B5006BD0AB22A07BD042EC601D7BA5F39966C
S1130B609027FB810227F7BD0726DCC64D102F0016
S1130B708EBD09A39BC9BD06CDD6C527060AC527C8
S1130B807E2046D6BA2E42D6C78E01008004CB05FD
S1130B90BD0AFFD7C5D6C9DBCBD1C8270DC10526F1
S1130BA00B3404C682BD089D350400CBD7C9D6CA10
S1130BB058969081052D0158DBC7280B810A2D0218
S1130BC00FC600CA0AC653D7C7D6C78E0F9ABDF13F
S1130BD0AAB6D0002AFBB6C8C527041F89200986F7
S1130BE020CB8054533D1F898609BDF3B78E0FAEC9
S1130BF0B6C8CB2B0230088603BDF3B97EF1AFD65D
S1130C00908603C1082D0296AFC670DDC686209774
S1130C10C8860897C9CCFFFFDDCA0FD239BDF517C6
S1130C208403880327FC34024848ABE48EC899C681
S1130C30920FCE6D8635022A0150DDCCBD048C2A7C
S1130C40020FCC3996CF26FBBD0726DCCC4D27CD31
S1130C50BD09A33404C0082804350420C08014BD91
S1130C6006CD8B1435041F038D282A0C03CFC6062A
S1130C70BD089D8605BD0ADD96CC48489BCC8EC830
S1130C8099EC86D3CD2996DDCD8E1F05D6CD4F7E2A
S1130C900A7F96D49BB7D6D57E0AB23402D704EC29
S1130CA0816DE42A0150BDF312A61DB7C823EC815F
S1130CB06DE42A015097010F001E110C00D701CCDE
S1130CC0FF40970A0F05D50D27FC0F0A7AC8232683
S1130CD0DD358203B00010E030001020B010B0E821
S1130CE086283402FCC906BDF2FC35029704BDF324
S1130CF0CE203A8D388E0E308DE6CE0CDC108EC9A7
S1130D00088D0231248D12ECC1BDF3BE30A48601DE
S1130D10BDF3DA8E0D267EF3CE8D12FCC906BDF22C
S1130D20FC862897043902F41800D00C187EF34A84
S1130D308D128E0E298DF6CC34F8BDF2FCC610A6A9
S1130D40807EF3D8BD04C3BDF1AFBD0E88BDF19262
S1130D50BDF2A9BDF2898E1E418DDABD078C8DCD01
S1130D60CC2470BDF2FC8E0CD37EF3CE8E0DF88DA8
S1130D70198E0DC08D148E0DDC8D0F8E0D9A8D0382
S1130D808E0DA98D0AA6807EF3B78D037EF40E8D99
S1130D909CFCC896BDF2FCC636390610DC110BEE7D
S1130DA00901EC01ECEB0611090A1820DC01E91534
S1130DB0F8E2E9EE14E904DF161722F4F12719200A
S1130DC000E616FFFAFEFFFE070002F9FFF2F4FF49
S1130DD008EFFF01F9000609FFF9FE0100EB0BFF24
S1130DE005050003FEFFF8FD00FFF5FF080100FE06
S1130DF0FCFFFA03FF03FA0100D418FFDF22FFFF10
S1130E00D2FFE702FF011AFF12E5000600FFFFF51B
S1130E10FFE801FFFFE6FF141A000500FFFFD4FFFF
S1130E20201A00E8EDFF02540102D8000010C4F2B9
S1130E30260014EC14E2F60714F10000E9D8F100DE
S1130E40E232F1ECF600E70FF1E2000F0F001914A3
S1130E500A1EF614140014D8000505FB0005000A48
S1130E600AF1F105FBFB0005000AF6DDFBF6050AB5
S1130E7005002500F9F6FB0AFB0A170617F1009690
S1130E805626048602975639965627292B0A48CEA9
S1130E900EECEEC686019756D667DA6827020F561F
S1130EA0BDF68786038EC842E680C10A2D04C60AB1
S1130EB0E71F4A26F3D66727100F67D768588E0EA8
S1130EC0FAEC85DD4B0F6A0F71D66827B258CE0F46
S1130ED000863E97459E4B9671ADD59F4B917122EE
S1130EE006863F97450F68860C97440C71390F1F8F
S1130EF00F710F2D0F370F43FF26FF7A01D001002A
S1130F0002000F080F140F19850227033088C6301A
S1130F100A86083930108606393088EA860A39FE8E
S1130F2028FD7905015001000250030C80FE28FEC3
S1130F30B6230124011D80FEE8FD7951020004500E
S1130F40120080FE28FEB61D081F041D081C041D87
S1130F500C0508070405080404050C1D0C1A0C25CF
S1130F60022D0225022D0225022D0225022D322DED
S1130F7080FE28FD790C0F180F0C0A0E05100A0EBE
S1130F80050E8005C8454E44800033FCFF00000078
S1130F90FEEAFF000001F81FF8C800DD002314EC8E
S1130FA0EC141414ECEC0023E20000BA1E00E24638
S1130FB0E0BAE046F0BAE246F0BAF046F8BA0A7F80
S1130FC028B802D22AF0C4D2DC28D208BE2C2E447F
S1130FD0E8E24E3240002318FFF4FCFFFC0E00044C
S1130FE0F2FFE4E8FF10DEFF02F2000E12FFF2FC53
S1130FF00102ED2000C013200000000000000000EA
S11310001F89C408F7CA018407C6063DB6D0043454
S11310107BCE126D33C5CCD03F1F8BD704BDF517E3
S113102084034A810226014FB7CA00AEC1BFCA1564
S113103034408ECA18108EF9D4867FB7CA1786FF3B
S1131040F6CA17ED81C6C0E780FECA15A6C0A6A6DB
S11310504444435FED818660A780A6C42B0BCCFF7C
S113106000ED81C6C0E78020E3CC0101ED81B6CA62
S1131070178004B7CA1731A850816322C1CC025F1C
S1131080ED818603A784354010AEC13440E6A0CE7E
S1131090CB591DFDCA02ECA12A238180273681FD8C
S11310A0220827EEA7C0313F20ECEDC17DCA0127FD
S11310B0E5108C12BC26DF8609A75F20D9EDC1C3D9
S11310C0004010A3A42D06ECA1EDC120C9EDC1B3CD
S11310D0CA0220E9C6C0E7C0A7C43540108ECB576A
S11310E0EEC4CC0000FDCA0B4CFDCA0710FFCA0DAC
S11310F010CE10F9AEA47E11D9A0D000303121C693
S113110002F7CA08F7CA07C6103D1F014F970A869F
S113111002B7CA0786084A2AFD127E11B1EC22845E
S11311207F2722817D23D6850126061DFDCA0B203B
S113113009FBCA00F7CA097FCA0A31224F970A86F7
S113114001AEA420CC0F0A8601970010FECA0D350B
S11311507B97047EF354301F26057FCA0820268619
S1131160094A26FD21A620A47ACA072714B6CA086C
S113117026E4B6CA064444B7CA061E121E127E11DD
S11311809EACA42609AE222B943124122009FCCA59
S113119009F3CA0BFDCA09C604A680FDCA06840366
S11311A0A6E6C6069701D7004F970AB6CA094A2A87
S11311B0FDA6C02F6780022F3BC607D7004A2F2801
S11311C04A2E117ACA132B6FFECA11EEC4FFCA0F3E
S11311D0EEC42094FECA113343FFCA11A642FDCACD
S11311E013CE11E77E116804FECA0F3342FFCA0F03
S11311F0EEC420492B1286059700A6C097010A0069
S1131200D600C607D7002036CC03CC9700D70C0FE6
S1131210010A009600860797007E123FCC00CED7C5
S11312200C9700ECC49701A65F33420C00D701432E
S11312300F05970A7E1168B6CA13B6CA1312127D37
S1131240CA137E11684441524E4954804F48204E7F
S11312504F804D4F4C4C59802045454B802048458C
S11312604C5080204F48805350494B4580126712A0
S1131270AF1D8C126313071D8C1258129D1D8C1206
S11312805D12D21D8C125212ED1310125212ED1374
S113129010124512E41310124C12F6131030FF040E
S11312A0C0175517F4FD00FF08A8157915F980201B
S11312B0FF0AC014191478A0FEF8FF0C1478150066
S11312C0FE0C15001579A0FD10FE00FF0A15791516
S11312D0F98010FF0CC01C461D8CFD00FF109814F3
S11312E07814908010FF0CC017F4199E8017FF1318
S11312F0C0199E1AF68010FF18C01B801C46FF15EB
S1131300FD201AF61C468020FF0FC015F9175580E2
S113131013220C13280C13220C13280C13220C1365
S1131320285ACA1813BB132ECA1813DB132EFFA98D
S1131330D9000000FFFFF50000000101FFD6EE0018
S1131340DC0100E91500F8E200E9EE0014E900040C
S1131350DF0016170022F400F1270019200101FF15
S1131360A4E400FAFE00FE07FF02F900F2F400080C
S1131370EF0001F9FF060900F9FE0101FF23E20075
S1131380181E000C3C001E3C002CF80010C6000681
S1131390BC00E8C600DCFA00E21800EE2A00E8EE21
S11313A001FF7F7FFF7F7FFF7F7F0101FF8080FF41
S11313B08080FF80800101027F0405FF86DC00F944
S11313C01100D7F100FF220019E7FFFDDC00EBEA72
S11313D000FF270023E5000C110103FF86DC00F069
S11313E01100D7F100FF220019E7FFFDDC00EBEA52
S11313F000FF270023E50015110101FF9EE200F81C
S1131400F20002F10103CA181DC01E26132EF200B9
S113141002F10103AA999A9566666666666666662F
S11314206666669999659A65A6969999999999991E
S1131430996699666696999969965966969999995D
S1131440999966969966669A6966669699699AA95B
S113145059A6999999A96A66A66965669999A99AF6
S1131460696696996596656666996956A59965A6AD
S1131470669AAA9A6595AAAA56AA9956A95AA556E9
S1131480A966AA5A5566AA9695A96A916F55FA0152
S1131490FF003F3CD00FF0072FF007F4820FFC034E
S11314A0BDD007FC013FF003FF401FF4007FC00BD9
S11314B0FDC03FF0033EE00FF8810FF007BCD00FF2
S11314C0FC023FF403FEC00FF8007FE007BDC03FFD
S11314D0F4013EF00FBC800FFC036FE003FFD02F3C
S11314E0F8803FD00B3DD00FF0420FE407B88503DE
S11314F0F5166ED101BC45ABF010FFC23A3C84FF37
S1131500601E2EC17F544B0EE13F84570EF02FD145
S11315106A4BF05F91598BB0AF509A8B60EF149A7D
S11315204E61EF15993A82FD5754AA48B59F54A6C7
S11315306689BE56556996A96A55999A55A65A550B
S1131540999A66A69A9955A5AA6A565995AAAA6A15
S1131550A995AAAA9AA6996A9A6596A996AAAA9AF0
S1131560669A69AA6AA9A66AAA9AAAA6659A996AAB
S1131570AAAA6AA9AAAA95AAAA6A6999A6E57459FF
S11315809AA665599A96A5695A5A5A96966A5A9A83
S11315909A9A96A665699AA669695A5A9A969596E8
S11315A0A569595A9A969665695A5A9A9696A6655D
S11315B069696969595A9AA69696A696A6A5A5A593
S11315C0696969696969696969A9595A5A5A5A9A62
S11315D05A9A96A69696A696A5A9696959A9695A8A
S11315E06A55A9AA5A9A9AA5A9A5A56969A9A96932
S11315F0A5A9A5A6A5A56969556AAAAAAAAAAAAA77
S1131600AAAAAAAAAAAAAAAAAAAAAAAAAAAAAAAA36
S1131610AAAAAAAAAAAAAAAA9A5A5AA9566AA55AC0
S1131620965AA995AA56A9956AA556F9816EA54612
S11316306EA4566AE0076E95072FF4566DF4816F19
S1131640E4C10BBDC1471FF8410B3EF0461EBCE090
S1131650171DFCD01B2CF8C01F29BDD04B851FF8CB
S1131660C01FE4437FE007BEC00FFD800FFC811F55
S1131670F8411FF8411FFC411FFC800FBDC00B7EC9
S1131680D0073FE0821FF4C11FF8D10BBCE0076D07
S1131690F4421FFC411BBDD0077EE0462FF4C11F5E
S11316A0B8D00B7DE0072EF4421FF8810BBDD00BA0
S11316B07EE0462FE4821FF4D10FB8D00BBDE007C3
S11316C07DF4032EF4422FF8411FFC800FBD800BE4
S11316D0BDC00B7ED0077ED0077FD0077FD0077FA9
S11316E0D0077FD0077ED0077ED00B7ED00BBEC044
S11316F00BBD801FFD411FF8426EF4077EE00BB95D
S1131700911FF4422FE007BE901BF9416FF407BD0F
S1131710D01BE4426F901BF9416AE41BA9916F90BE
S11317201BF9416EE40BB9416F901BF946A9956F03
S1131730955AE956A9556E945AE556A955AA556A7B
S1131740955AA55AA556A956AA56AA55AA556A55F0
S1131750AA566A95AACE8C332B33CE3CCA8CF30C92
S113176033E731D3CC33CC6CD3CC36CB0C33CF3042
S1131770B3CE31E74C33DB1C33CE1C33CD2C33CD0D
S11317801C33CE0C33DF8C31EBCD30F3CE20B3CF12
S11317904C7353CCBE33C4EC31B3DE0C717BC8EC58
S11317A03B13DC4E30FBCFCCBB33D0FE08F13F847F
S11317B0FC3F23FECF44FF23C0FF04F13F41FC0F55
S11317C010FF8784FB23D1FF0CF53F42FC4F10FF31
S11317D003C4FF10E5BE48B93F82ED8F20FF03C864
S11317E0FB21E6EE0CB63BC1FC0F62EFCE60BB03FF
S11317F0CCBB33A99AAAAAA9669A99A69AAA9AAA24
S1131800077D1E0FF30F28E3ECF3CC370333FC37CB
S1131810C2030CBFFFC3C0FFF3F0C0F3F3C3C0CFD8
S11318204303030F0F3C3CF0F0C003077F3CEC0381
S11318300B3F00C30F3CFF00FF03F0FF003FF8C362
S11318400F380EC0FE03F0F300BF34C00F03FF8354
S113185000FF00FDF300FF03FCC302FC03FC0303D1
S1131860FC01F53E0CF20FC03F30C4AFC03FF0C2E4
S1131870FF003FF0033F003FF0037F0CFC0307F041
S11318803FF00F3CD00FC00FFCC03F03FFF043FDFF
S11318900FFCC30FFC74F01F3CF0433FF0C30FFC7C
S11318A0F0033FDCC30B3FF0C30FFCF0030FFCC09D
S11318B0033FF4F0073CF0C10F3FF0C307F4C0C38B
S11318C083F4F2C0C383E2C20F0F2F030FFFF0F0C3
S11318D02F3C900F0CF3C343DCC3737C344C870E52
S11318E0F2788729A90B0BFAB044D2C330CF720C1B
S11318F0F3318CF33CC3F431CE330CF3ECC3248FBB
S1131900399CF20F0B3DBDF0810F0F3CBCF1A00FD1
S11319100F3CCDF0C8CF031D9F3CFCB0C0D34B0798
S11319202E5F170DAF29A8E0C3838F8B0CCFE33054
S1131930CF334DF3E314C331CF730CD32C9F249DC9
S1131940B974F0F0C1913F0C3E3CDCF0FCF0E4D300
S113195001C35B83A32D4B34DD0F433CCF30DCF359
S113196044C32F0EB5E8C3833F1EB0F4D3089F3998
S113197094D20F5BB49952696E95A5AA56659A568E
S113198065AA5A55AA5A55A9AA59656955A5A6968C
S1131990A6699655AA66559A6A69AAAA56A96A9A20
S11319A09966965966AA9AA966996966996566A917
S11319B0A9699669669965AA6A699699669699AAC3
S11319C09A669A69669969965669A69A69F556451A
S11319D0FE02E43F403FC00FDC1E00FF00FF80BF5B
S11319E0C00FF003FC035F0FF0037F80BC30C00F17
S11319F0F0033F1CF003FCC00FF003FC003F0FF0AA
S1131A00033FF0030FF0033FF00FF003FCC0030F9C
S1131A10FCC03FF0F0033FF013E00FF003FFC00FF2
S1131A20F003BF08F0033FF0431FD0033FF0C8CCDE
S1131A3033F003BFC00FF0C00F0FDC2FF0C00F3323
S1131A4087CCD4E00FEA0EBC030F9DECB1D30FD4C6
S1131A50614B19B6E4162CF3CC215F3A551CF66899
S1131A60A35DB955B4E48616AB9A99554B6EA9A4F7
S1131A7066A65639E5E95666AA5A594D3A6931734C
S1131A80539A4DB87CF4A4B1A5F898944FC78AC36F
S1131A90D6227722E2303233CDCEC0B818AAF3343E
S1131AA01E8AF3316997610CD33C1AC3A859AA65FD
S1131AB0D930CF3229CB68667766E61CD33CD3385D
S1131AC0CE65A66695A65995A96A95AA6A65669A89
S1131AD06596696659A6AA5999656655B3CC30D7F7
S1131AE05C669965AAA966A6AA66995966AAA9AA6E
S1131AF0A96666AA9A9A999999A95A95AA56999AF9
S1131B0099A959996A65AA5A956666A666A65A95C8
S1131B10AA56A99999A999A926666A666A95A95A9D
S1131B20D95A65AA56B65699AA959A88D959A856E3
S1131B3099AE959A94AA66A52C3D1B83C3E3F0380D
S1131B400F8CCBD3380CCC45F3303836CC31F30C76
S1131B50FC03FF037C0C3C0F1F3E3C0F8C0FCC0F8F
S1131B60CFC0EFC183D20BCF03CF01CFC0B3C0F33B
S1131B70F0C2F0C0F0C0C3F3C13FF00FFC03FFC0DC
S1131B800FF00FEE0193072E0FFC2C3CC0BFF302A5
S1131B90F7631E08FC50F3C00FC203FC233CE0FFB4
S1131BA0460FF863D7803F000FFC133CF0F3820F1D
S1131BB07CFCF0C007FCC03FF0013FDC2033CA3E90
S1131BC0904FEE023F000FFCC20FFC3403EDCCE556
S1131BD0031EF9037F010FF0830FFCE003DCCCA1AB
S1131BE0033EF403FD000FF0430FF0C30CFC91130C
S1131BF03BF4D50EF403BEC02FF0C05FF8C04EBC5A
S1131C00E0073BE545BDD007FC022FF0CF1CF01BDD
S1131C103BB2838DD849FC503FF08BBC807F64235A
S1131C20739249AD955AB502BE803BB01BD888FC6F
S1131C30A616A56B55955AA955DDC8DC107752AE8A
S1131C4095596677669AAA69AAAAAAAAAA6AAA6AE2
S1131C50AAAAA59AAAAA6A9AA6AA666A9AA66A6962
S1131C605AA55AA556A95AAAA9A6A966A996A669C3
S1131C7096AA96659A96695AAA699AA69A96659AB0
S1131C80695AA669A966AA965AA9AA659A9666691E
S1131C905AAA66AA5996AA695A996A9A96A55A9A04
S1131CA0A659AA65A99699A65A995AA696AA41BE72
S1131CB041AA0FE02FA4EA02F807A93E80BF90DAF8
S1131CC003F846690FC81FA53E702FA87AD03DB00F
S1131CD0BAE03DB43EF03DB83D700E3C0F3C0BDF26
S1131CE003CFC27BC077F00FBC0AFEC07FD00FF4D5
S1131CF00BFC40AFC10FBC1BFCC0BBC10FBC1F7DA4
S1131D00F0FDF0039F0B3FB03FF480FFC107FD07D8
S1131D102FF01FBCC03FF001FFC007FC031FF407F6
S1131D203EE00FBCC01FF4803FE002BF800BFC42CA
S1131D301AF40769E01FA4817F9006FD415AF50754
S1131D4069D51FA456BE915AB9566AA55AA5956A73
S1131D509556AA556AA55AA5956AA595AA9556A910
S1131D605A56A9AA6AA5AAAA5655A95AA595AA5A1D
S1131D705559AA565595AA5A55A9AA5A5595AA5AD3
S1131D805555A96A5555A5AA556955A914060A1D9C
S1131D90A8051D9E0C14060C1D9E0C14065ACA1888
S1131DA01DC01E0F13FB132ECA181DB21DDD1E0FFE
S1131DB0133CFFA9D7000005FF00F20000FA01035D
S1131DC0FFA9D9000505FF03FE00F8FDFFFFF5009C
S1131DD00801FFFEFC00FA030003FA0101FF92E68A
S1131DE000DF2200FFD200E70200011A0012E5FF23
S1131DF0060000FFF500E80100FFE600141AFF05E5
S1131E000000FFD400201AFFE8ED0002540103FF94
S1131E10CDA600110B00EE090001EC0004F100EB6B
S1131E20060011090103FFCDA600130600F30D00FF
S1131E30FAED0000F000EE0C0012040103C920C901
S1131E402C0A000014140014EC14D800C4C43CC4BC
S1131E50280014140014EC141E741E691E5E000580
S1131E604288F715C8ACC8AA502529F08CF510C8CB
S1131E70A7C8A5FA3C4AA48DEF12C8A2C8A0AA39E3
S1131E80C502847C05023B30029E600402EBC5035C
S1131E9092700501FC3003A26004011EA41EC31E3F
S1131EA0E21EE20F00501ED8F60AF6000A000AF6F7
S1131EB0BAC450D8ECECF61400ECF6000028003C50
S1131EC000400F005014CEF60A0800F8000AF6ECA1
S1131ED0ECF6D828D8F6ECF61400ECF60000500026
S1131EE05A11005014CEF60A0800F8000AF6ECE283
S1131EF01ED8E2EC1EECF6F6F61400ECF600002810
S1131F00003C00460A000010FB0F24F508040811E9
S1131F10F2EFD40AF0ECF4F508FD1FE030D0D0E085
S1131F20D0D03000000008C700000008E90000001D
S1131F3009041F781F9A1F4B1FBC1FDE0000F018F6
S1131F40D0F0F0E8D010000000087F04080006027A
S1131F50061002F802E81000000000000000000073
S1131F600002F800FAFEFAF0FE08FE1802F800FA81
S1131F70FEFAF0FE08FE18000300000000000C004A
S1131F80000000040003000000F4000000F8020058
S1131F900000000006000000100003000000000024
S1131FA000000000F40400FD000000080000000C24
S1131FB0020000000000F0000000FA000200002807
S1131FC0002000000000000200000000204000008B
S1131FD00000040000EC00E0E0000000000002004B
S1131FE000000000002000180002000000000000B3
S1131FF0000020C004000000000000F000E4200005
S9030000FD
