S113000067204743452031393832800B1CF8502093
S1130010C853544152204841574B8000BDF1A2CCF3
S11300200202BDF7A9BDF1AF8604971AC67F8EC838
S113003080BDF53FCE0E398EC942BD00BFCE0E76CF
S11300408EC980BD00BFCE0EBC8EC9C1BD00BFCC61
S11300500E0EDDF1860297F38E0F879F818602973D
S1130060894A9783CC781FDDC3C680DDC78639DD16
S1130070D5CC2035DDD3BD0A3DBD05BEBD0125BDB2
S1130080061BBD06B2BD076EBD0832BD0963BD01C6
S11300908BBD01EDBD0234BD02DDBD038DBD054543
S11300A0BD058A7CC876B7C868BD0A48BD04BCBD16
S11300B0F1BABDF1F5B6C8D7261BBDF19220BAA698
S11300C0C08101270DA780A6C0A780A6C040A78035
S11300D020EDA78039BD0A3DBD0A48CC0BC0FDC840
S11300E0F5BDF1BABDF2A9BDF354CC00ECBDF2FCF0
S11300F0CE0FAFBDF495BD054EBD04BCBD05BEBD60
S113010006B2BD076EBD0963BEC8F51027EF5D8C4E
S11301100AFF2C07B6C80F1026FF0A301FBFC8F508
S1130120BDF19220BCBDF1AF968C8109260A0F8CDB
S1130130865897870C890C8996EF91F32711BDF5A2
S1130140178403270E8101271881022722202EBD40
S1130150F1AA39D68F270220CCC698D78F0CEF206E
S1130160C4D696270220BEC680D7960CEF20B6D6FA
S1130170A7270220B0C680D7A70CEF20A8D6B027A7
S11301800220A2C660D7B00CEF209AB6C87A8102CA
S11301902B11FCC81B1E89FDC8B9FCC81D1E89FD96
S11301A0C8BB39CEC81B8EC8B5C604A6C02B06472B
S11301B047474720088B01404747474740AB842BBC
S11301C00F81782C07A7805A26E1200E867820F527
S11301D081882B0220EF868820EBBDF1AF96B6D63E
S11301E0B5DDB996B8D6B7DDBBBDF1AA39BDF2A964
S11301F0BDF354867F9704FCC8B9BDF3128E0D6F0E
S1130200B6C8BE2704C6382002C618BDF40EB6C848
S1130210798102261EBDF354867F9704FCC8BBBDBA
S1130220F3128E0DA0B6C8C02704C6442002C6220D
S1130230BDF40E39B6C8DD2619B6C8DE2660B6C8C8
S11302400F8408B7C8DE27557CC874860CB7C8DD90
S11302508D5ABDF2A9BDF354867F9704FCC8B9BB7F
S1130260C8D9FBC8DABDF312FCC8D9BDF3DFBDF3AE
S113027054FCC8B9BBC8DBFBC8DCBDF312FCC8DB4B
S1130280BDF3DFB6C8DD8102271D8501270C77C8C1
S1130290D977C8DA77C8DB77C8DC7AC8DD39B6C85D
S11302A00F8408B7C8DE397CC8DF20DEFCC8B98BF0
S11302B0804440B7C8D9B7C8DB1F98C580260FC093
S11302C03C5750F7C8DA80484740B7C8DC3950403B
S11302D0CB3C54F7C8DA8B4844B7C8DC39B6C87984
S11302E081022669B6C8E42619B6C8E52660B6C8F0
S11302F00F8480B7C8E527557CC874860CB7C8E45A
S11303008D5ABDF2A9BDF354867F9704FCC8BBBBCC
S1130310C8E0FBC8E1BDF312FCC8E0BDF3DFBDF3E8
S113032054FCC8BBBBC8E2FBC8E3BDF312FCC8E283
S1130330BDF3DFB6C8E48102271D8501270C77C809
S1130340E077C8E177C8E277C8E37AC8E439B6C889
S11303500F8480B7C8E5397CC8E620DEFCC8BB8BB7
S1130360804440B7C8E0B7C8E21F98C580260FCBC9
S11303703C5450F7C8E18B484440B7C8E339C0C483
S11303805750F7C8E180B84740B7C8E339BDF1AF6B
S113039096DF260996E626050FDF0FE639968727AE
S11303A00696E726028D2C968F270696E826028D60
S11303B04B9696270696E926028D6696A7270796FA
S11303C0EA2603BD044596B027CE96EB26CABD04A3
S11303D06920C5109E85BD0514262096BD97BE963E
S11303E0BF97C00CE786309787867F978B8608BDBA
S11303F0048D86FF9784CC0000DD6B39109E8DBD83
S11304000514261C0CE88620978F867F9793860612
S1130410D6BED4BD2607D6C0D4BF260147BD048DA1
S113042039109E94BD0514261B0CE98620979686E8
S11304307F979D8602D6BED4BD2607D6C0D4BF26DC
S113044001478D4939109E9EBD0514261B0CEA8672
S11304502097A7867F97A98604D6BED4BD2607D643
S1130460C0D4BF2601478D2539109EAABD05142688
S11304701B0CEB862097B0867F97B4860AD6BED431
S1130480BD2607D6C0D4BF2601478D0139AB8419D8
S1130490A78424098601AB8219A7848D01398604B7
S11304A095F326020CF3860895F12708DCF1800207
S11304B0C002DDF10CD40CD47CC87239B6C8794AB8
S11304C0B7C8D22741108EC8C58EC8C9BDF84FA77A
S11304D006ED07ECA1BDF87C3302BDF354ECA1BDDD
S11304E0F2FC7DC8D22725F6C8C02704867F2002E7
S11304F0867FBDF2ABBDF495CECBEB8EC8CBBDF8F9
S1130500D87AC8D22B0D108EC8C120BD7DC8BE2795
S1130510DF20D93996E626199EB9DCF1BDF8FF260D
S11305200F8EC8C20FBF860197BD7CC8750CEC4FF7
S1130530399EBBDCF1BDF8FF26F68EC8C60FBD861A
S11305400197BF20E596D84C81252C1297D8BDF38E
S11305504ACC78E6BDF2FCCEC8D3BDF495390C8CF8
S11305600FD896D5840F4A2B068B3097D520DF867B
S11305703997D596D4840F4A2D068B3097D420CE44
S1130580863097D497D50CD720C4B6C8EC2623CE92
S1130590C8F7C60C86FFA7C08D19A7C08D15A7C0C4
S11305A04FA7C08D0EA7C08D0AA7C05A26E68601A4
S11305B0A7C039BDF5172B03840F398AF039B6C8A3
S11305C084270A7AC88427057FC883200EB6C88387
S11305D08A01B7C8837FC8BE7FC8C010BEC881BDAA
S11305E0F2A58604B7C880BDF354CC0000BDF2FC6C
S11305F0AEA1C67FBDF40E7AC8802CEBB6C88327A3
S113060008B6C826840127013910BFC881108C0F91
S1130610A72C01398E0F87BFC88139B6C887273DFB
S1130620815827664AB7C8872754B6C88BBDF2AB32
S1130630BDF354867F9704FCC885BDF312B6C8E7A2
S113064026228E0DC8F6C888BDF40E8D5AB6C8870A
S11306508407270AB6C885BBC88AB7C885397CC849
S11306608A20F1398EC8F7F6C888BDF40EB6C8885A
S11306708B08B7C888B6C88B8003B7C88B39B6C88F
S1130680E727DA7AC8EC7FC8E7394AB7C88786FB18
S1130690B7C88A7FC888867FB7C88BCC7800FDC866
S11306A0857CC87316FF83B6C887840326037CC879
S11306B08839B6C88F273F81982775B6C893BDF28D
S11306C0ABBDF354867F9704FCC88DBDF312B6C846
S11306D0E826348E0DFFF6C890BDF40E7DC8D726EB
S11306E0157AC88F2711B6C88DBBC891B7C88DB607
S11306F0C88F84032730397AC8EFB6C8E826013991
S11307007FC8E87AC8EC398EC8F7F6C890BDF40EF5
S1130710B6C8908B08B7C890B6C8938003B7C8937F
S11307207AC88F27D239B6C890BBC892B7C8903957
S11307304AB7C88F865FB7C893BDF51785012718D8
S11307408E8000BFC88D8626B7C8908601B7C89131
S113075086FFB7C89216FF638E1800BFC88D7FC886
S11307609086FFB7C8918601B7C89216FF4DB6C8E8
S11307709627438180276FB6C89DBDF2ABBDF35465
S1130780867F9704FCC894BDF312B6C8E92628BE38
S1130790C89BF6C899BDF40E7DC8D726197AC896A9
S11307A02734BD0827FCC894BEC897A080FBC89A0C
S11307B0FDC894BFC897398EC8F7F6C899BDF40E22
S11307C0B6C8998B08B7C899B6C89D8003B7C89DA9
S11307D07AC8962701397AC8EFB6C8E92601397F65
S11307E0C8E97AC8EC394AB7C896865FB7C89D7F0E
S11307F0C8998E0F07BFC897BDF5178501271486C2
S113080002B7C89A8E0E39BFC89B8E5080BFC89459
S113081016FF6486FEB7C89A8EC942BFC89B8E5025
S11308207FBFC89416FF50B6C896840326037CC8BD
S11308309939B6C8A7274D8180102700B1B6C8A939
S1130840BDF2ABBDF354867F9704FCC89EBDF31282
S1130850B6C8EA2630BEC8A0F6C8A8BDF40E7DC846
S1130860D726217AC8A7273C8D6EB6C8A427458110
S1130870012753FCC89EBEC8A2AB80FBC8A6FDC816
S11308809EBFC8A2398EC8F7F6C8A8BDF40EB6C874
S1130890A88B08B7C8A8B6C8A98003B7C8A97AC8DE
S11308A0A72701397AC8EFB6C8EA2601397FC8EA12
S11308B07AC8EC39FCC89EBEC8A2E080BBC8A5FDBE
S11308C0C89EBFC8A239FCC89EBEC8A2EB80BBC8E4
S11308D0A5FDC89EBFC8A239B6C8A78403260EF6D4
S11308E0C8A4C1012E047CC8A8397AC8A8394AB75B
S11308F0C8A73408BDF1AF865F97A98E0F079FA2E2
S113090086FE97A5BDF5179A2684038103273E81A9
S11309100227248101271097A40FA88E7F509F9E41
S11309208EC9809FA0358897A40FA88E7FB09F9E04
S11309308E0E769FA0358897A4862097A88EB07FC8
S11309409F9E8E0E769FA086FE97A6358897A486D6
S11309502097A88EB0809F9E8EC9809FA086029704
S1130960A63588B6C8B0275B816010270090B6C84A
S1130970B4BDF2ABBDF354867F9704FCC8AABDF3A3
S113098012B6C8EB263EBEC8AEF6C8B1BDF40E7DA5
S1130990C8D7262F7AC8B0274A8D58B6C8B22712AE
S11309A0FCC8AABEC8ACE080B0C8B3FDC8AABFC822
S11309B0AC39FCC8AABEC8ACEB80B0C8B3FDC8AAA9
S11309C0BFC8AC398EC8F7F6C8B1BDF40EB6C8B10D
S11309D08B08B7C8B1B6C8B48003B7C8B47AC8B076
S11309E02701397AC8EFB6C8EB2601397FC8EB7AFC
S11309F0C8EC39B6C8B0840326037CC8B1394AB7F9
S1130A00C8B0865FB7C8B47FC8B18602B7C8B38E12
S1130A100F0FBFC8ACBDF5178401B7C8B2270F8E3E
S1130A200EBCBFC8AE8E7EE8BFC8AA16FF408EC9F2
S1130A30C1BFC8AE8E7E18BFC8AA16FF31BDF5333C
S1130A408EC867C611BDF53FBDF1AF863897459690
S1130A50722706CEFF8FBDF68DD6562706BDF687C4
S1130A607E0B019673270ACC0010DD6BCCFB0BDDEB
S1130A706D9E6B272096268501270C966D200A0013
S1130A806D006E30162011966E30868C00A02CEF0F
S1130A908C000A2C038E00009F6B9F4796742705D9
S1130AA0CC0080DD6FDC6F270FC3000710830100CB
S1130AB02F024F5FDD6FDD4B96752708CE0B109725
S1130AC07140976796712715BDF92E964381062FBD
S1130AD006860F9744202A0F710F772019967627E0
S1130AE015D68358588E0B14962685022702300299
S1130AF0EC85DD49200486389745CC0F0EDD4297FE
S1130B00448EC872C604BDF53FBDF1AABDF2893951
S1130B10309F000200FF004008000400FEE8FEB61B
S1130B200C0C0C0C80840924100C100C890C24155A
S1130B300C150C898C1030108000F8B20000A9FF4D
S1130B402030FF1848FF002AFFE800FF0006FF18C6
S1130B5000FF002AFFE848FFE0300020D00018B86A
S1130B600000D5FFD00FFFD00CFFD009FFD006FF47
S1130B7000A5FF3106FF3109FF300DFF2D0D00E800
S1130B8000FFE2F8FFD6F8FFD0F8FFD0FA00003DEE
S1130B90FF30FDFF30F9FF2BF8FF1DF9010000A91C
S1130BA000F2B2FF1E2CFF1A49FF002BFFEB02FFDD
S1130BB00006FF1502FF002BFFE649FFE22C0100AF
S1130BC0FCA500EFCAFF194BFF0034FFEE04FF0041
S1130BD017FF1204FF0034FFE749010000A700BE1D
S1130BE0B2FF1446FF0041FFF209FF0028FF0E097F
S1130BF0FF0041FFEC46010000A7009BCBFF031957
S1130C00FF004CFFF90BFF0035FF070BFF004CFF03
S1130C10FD190100FEA300FCC9FF0D14FF1949FFD3
S1130C20002EFFEB02FF000AFF1502FF002EFFE774
S1130C3049FFF2140100FEA700E3C5FF1747FF00B8
S1130C4037FFEE05FF001BFF1007FF0037FFE947E2
S1130C50010000A700BCD2FF0821FF0043FFF40AF3
S1130C60FF002CFF0C0AFF0043FFF821010000A441
S1130C700090D1FF010FFF004FFFF80DFF0037FF79
S1130C80060EFF004EFFFF0F0100FEAA00F8C7FF8B
S1130C90080CFF1A49FF002DFFEB02FF000FFF14A1
S1130CA003FF002EFFE649FFF80C0100FEA700D861
S1130CB0C0FF1544FF003BFFF007FF0021FF1007B2
S1130CC0FF003BFFEB44010000A500B0D0FF061E6F
S1130CD0FF0048FFF60AFF002FFF0A0AFF0046FF45
S1130CE0FA1E0100C4AB00BDD2FF010BFF004AFF96
S1130CF0FC0DFF003AFF040DFF004AFFFF0B01004B
S1130D00FAA600F5C8FF070BFF1948FF0030FFEBF8
S1130D1003FF0012FF1504FF0030FFE748FFF90B43
S1130D20010000A700CBB8FF1546FF003EFFF10706
S1130D30FF0025FF0F09FF003EFFEB46010000A561
S1130D4000A0B2FF0A39FF0048FFF70AFF0034FF92
S1130D50090CFF0049FFF6370100BAA600BAD9FF13
S1130D600052FFFD0EFF003AFF0310FF0051010087
S1130D700800FF08000000F8FF001000F000FF006A
S1130D8008000800FFF0000000F0FFF80000000871
S1130D90FF00F0001000FF00F800F800FF10000151
S1130DA000F000FF0800001000FF080000F010FF32
S1130DB000F80000EEFF00F8000808FF0010FFF044
S1130DC000FF00F0FF100001001E90FFE270FF1E04
S1130DD07000C410FF3C80FFC480FF4675FFE4E24E
S1130DE0001C34FFBA7500468BFFE41E0004D5FFD7
S1130DF0F400000C00FFF4BA000C46FFF44601FFB7
S1130E00EEEEFFEE12FF1212FF12EEFF2D00FFD3E3
S1130E10C4FF002A000024FF002AFF2DC400F3129F
S1130E20FFCF000000DCFF3100000DD6FFAF000053
S1130E30243C002D3CFFAF0001003CD8FF8030FF74
S1130E4041B5FF34C2FFE269FFEAD4FFEE3B005034
S1130E500CFF9748FF5FFDFFDDD9FFED28FFE9E5B3
S1130E60FFF11C0011E4FF00CA0008FDFF0243006B
S1130E7020E8FF06C70100E0E0FF22FAFF40A3FFDD
S1130E80A341FFFB22FFF60AFF2CF0FFE3E4FFF18E
S1130E902C0017F9FFEE19000AF2FF3EF6FF2CC6EC
S1130EA000F311FFDFF800F7E9FF00E1000FF4FFA2
S1130EB0CA24FFE539000DFAFFE012010000D0FF5B
S1130EC000ECFF2814FF002CFFD8D4FFD82CFF001F
S1130ED0D4FF28EC002C40FFD814FFD8EC002814D1
S1130EE0FF0014001400FF2CACFFE8D8FFB000FF93
S1130EF0E828FF2C5400EC00FF50000018D4FFD069
S1130F005800E000FFD0A80000000000000100002D
S1130F1000000000010000000000000100000001CA
S1130F2000000100000100010001000100010001B6
S1130F3000010001000100010100010001000101A4
S1130F40010101010101010101010101010102028B
S1130F50020101010102020303020202020202026F
S1130F600303020202020303030302020203030354
S1130F70030303030304040404040404040505052F
S1130F80050505050505050B390B9D0BBF0BDB0B93
S1130F90F70B390C130C350C510C6D0B390C890CF7
S1130FA0AB0CC70CE30B390CFF0D210D3D0D59455E
S1130FB04E4480000000000000000000000000001B
S9030000FD
