S113000067204743452031393832800074F8300086
S1130010E054455354205245562E348000BD095EA9
S1130020BD098EBDF2898601B7C8244FB7C882B70F
S1130030C881B7C8858E005AAE86BFC8837CC88184
S1130040AD9FC8837FC881B6C88227F4BBC8852A00
S1130050028618811A26DB4F20D800B5016F01F003
S11300600281038000AF07CA00AF043E04E0059597
S113007006340687FF16FEB61C061F061C06180665
S11300801A06180615061306180613061706181E70
S113009018808633BD0A78C602B6C815BAC81926B0
S11300A00A50B6C814BAC81826015FF7C88239BD09
S11300B0098E7EF289BD09AEBD09A6CECA00108E96
S11300C00125ECA18E012F8D248E0135EC3E8D1D72
S11300D0ECA12CF086AAB7C8298E013B86CE970CDA
S11300E0C6FFBD0A49A6804A26F27E0092ED40EC86
S11300F084ED42EC02ED44EC04ED4686093402EC56
S113010040BD09C2EC44BD0A09A6E481012608ECFD
S113011042AB46EB472002EC42AB40EB41ED406A78
S1130120E426DE35827F7F007F00007F00FFFFF042
S1130130000080000100F0800000010000C0FF20EA
S113014000FFC000FF200004000040FF2000FFC0AB
S113015000FF20000300B300FF0020FF00C0FF00E9
S11301602002004D00FF0020FF00C0FF0020017DA1
S1130170C8812704108E0064BD09ABBD09A6CE0159
S1130180DABDF373313F27037E0092CC1FB697008C
S1130190D70B4A8D2986CC970C86019700108E03C5
S11301A0E81212128E03207D01A4301F1226FB31A7
S11301B03F1226F0868197008698970B20B6B7C821
S11301C0800F0A86050F01BBC88097000A008D09BD
S11301D00C00B0C88080022EEE39F83000D04144C3
S11301E04A55535420444143204F4646534554FFF7
S11301F0BD09ABBD09A6CE021BBDF37386CE970C19
S11302008E0231BD0A47CE026FECC1BD09C28E0217
S113021050BD0A47ECC126F37E0092F83090C049E5
S11302204E5445475241544F52204F46465345542D
S1130230FFFF3200FFCE32FFCECEFF32CEFF32328E
S113024000CE00FFCE000032CEFF0032FF003201AC
S1130250FF0800FFF808FFF8F8FF08F8FF08080097
S1130260F800FFF8000008F8FF0008FF000801503C
S1130270500050B050B000B0B000B050B0500000CA
S113028000B6C881272FCCF830FDC8A1CC0010FDE2
S1130290C8A37FC898CC2000FDC89FCCE000FDC84F
S11302A09DCC2020FDC8A5FDC8A78680B7C8A97F1E
S11302B0C8997FC89AB6C8982642BD09ABBD09A69D
S11302C0CE035ABDF3738D52FCC89F2641B6C8991C
S11302D0444444448D3BB7C8A5B6C899840F8D31B6
S11302E0B7C8A6B6C89A444444448D25B7C8A7B62F
S11302F0C89A840F8D1BB7C8A87CC898BD09ABBD2C
S113030009A6CE036FBDF373CEC8A1BDF3737E00FF
S1130310928B3081392F028B0739FEC89DBEC89F4E
S1130320108E00608608B7C89BA6C0B7C89CB6C824
S113033099B8C89C49FC037EB8C899F8C89A594929
S1130340FDC89978C89C7AC89B26E3301F270431DE
S11303503F26D1FFC89DBFC89F39F83020D0464FF3
S1130360524D494E4720434845434B53554D80F821
S11303703000C0434845434B53554D203D808005D4
S11303807DC881270A108E00647FC8967FC897B6FF
S1130390C896261ABD09ABBD09A6CE03F1BDF373F9
S11303A0313F26077CC896108E00147E0092B6C892
S11303B0962B0FBD09AE313F26058680B7C8967EC1
S11303C00092B6C897970486CE970C8E0408BD0990
S11303D0D0BD0A4BBD0A30A6804A26F2BD09A6BD8F
S11303E009AEB6C826840127057CC89727977E00E6
S11303F092F83000C04445464C454354494F4E2082
S113040050524F54454354FFE2E2FFE2E2FF7800CA
S1130410FFE21EFFC40004E21EFFE21EFF7800FF9D
S1130420E2E2FFC400033C3CFF008800E21EFF0040
S11304303C02C43CFF0088001E1EFF003C01867F76
S1130440BDF2ABCE04B2BDF373C6FFD704CC40CE2D
S1130450BD09D2CC0064BD0A09BD0A30CECA0086EB
S113046080A7C48E04C08610A771BD09CC8608A7D6
S113047070CC001897019700121286050C00D70162
S1130480030A0F05C640D50D27FC6AC40F0AE6C44B
S1130490D701860597000A0086014A26FDC601D7C2
S11304A0006A7026CCBD0A306A7126BEBD09AB7ED7
S11304B00092F83040E8494E54454E53495459FF90
S11304C0809C909CA09CB09CC09CD09CE09CF09C88
S11304D0009C109C209C309C409C509C609C709C78
S11304E0BD09ABBD09A6CE0515BDF373CE051F101E
S11304F08E0531ECA12713ABC4EB41BD09C2E6A0C4
S1130500AEA1BD0A49BD0A3020E933421183052951
S113051026DD7E0092F83040F0464F435553FF608D
S1130520A86058A0A8A0580000A0006000005800CF
S1130530A8F0F0200573E8FC200551F7FB100573C3
S1130540F203100551FB03080573F8070805510071
S113055000FF0040000400FF00C0000400FF004052
S1130560000400FF00C0000400FF0040000400FF7E
S113057000C001FF4000000004FFC000000004FFB1
S11305804000000004FFC000000004FF4000000021
S113059004FFC00001BD09ABBD09A6CE0603BDF32F
S11305A0738610B7C8927FC893108E0614CCC6C445
S11305B08D26108E061CCCC63C8D1D8610B7C893A4
S11305C07FC892108E0624CCB0C88D0C108E062CD9
S11305D0CC50C88D037E0092FDC8948608340286F0
S11305E0FF9704FCC894BD09D23020BD0A00BD0A9F
S11305F030FCC894BBC892FBC893FDC8946AE42637
S1130600DE3582F83000E0444953544F5254494F88
S11306104E2031FF02242378C8001480022423884A
S1130620C800147F022478E4003880E4022480E4C3
S113063000387FE4BD09ABBD09A6CE0664BDF373E3
S11306408610A7708681B7C89086CE970C8E0675E3
S1130650F6C890C004F7C8908608BD09E96A7026F8
S1130660E87E0092F83004D8444953544F52544918
S11306704F4E2032FF7F7881008100008800887F00
S1130680007F0000780078BD098EBDF289BD09ABFA
S1130690BD0AB3BD09A64FBD0A728EC980860F6F0D
S11306A0864A2AFBCE075DBDF373CE0766BDF3739E
S11306B08608A770CE079A108EC812ECC1BD09C275
S11306C08E0774A6A027038E0784C640BD0A49BDC1
S11306D00A306A7026E58604A770CEC81B8EC980CE
S11306E0A6C05F81882D0F5C81EE2D0A81122D0A30
S11306F05C81782D015C8601A78530046A7026E050
S11307003110CE07AA8610A770ECC1BD09C28E07AE
S113071074A6A027038E0784C640BD0A49BD0A30CB
S11307206A7026E5CCC4C4BD09C2C630D704F6C875
S11307301BB6C81CBD0A09BD0A30CCC43CBD09C2E5
S1130740C630D704F6C81DB6C81EBD0A09BD0A3096
S1130750B6C812BAC8161027FF2D7E0092F8304092
S1130760F64B455953FFF830E0E14A4F5953544989
S1130770434B53FF001010FFE000FF00E0FF200098
S1130780FF002001FF1010FFE000FF20E0FFE00069
S1130790FF0020002000FF00E00170A070E0702046
S11307A0706058A058E058205860C49CC4B0C4D8A5
S11307B0C4EC9CC4B0C4D8C4ECC4C414C428C4508D
S11307C0C4649C3CB03CD83CEC3CB6C881270C7F4C
S11307D0C88D7FC88CCE07E8FFC886AD9FC886BD8C
S11307E009ABBD09A67E0092CE07F6FFC886860433
S11307F0B7C8887FC88DB6C88C26217AC8882607D2
S1130800CE08A8FFC88639867FB7C88E8E0FFFBF73
S1130810C889860FB7C88B863FB7C88C4AB7C88CBF
S1130820F6C88E840726095757F0C88E50F7C88E2D
S113083050BEC8893085BFC889BFC889B6C8884A30
S1130840482B08CE0875EEC6BDF3734FB7C842B740
S1130850C843B7C844B6C888CEC841C60FE7C63334
S113086046BEC889AFC4AF42AF448E08A4E686F73B
S1130870C8457EF28908970889087BF830C0E043B0
S113088048414E4E454C2041FFF83000E04348417A
S11308904E4E454C2042FFF83040E04348414E4E16
S11308A0454C2043FF3B3D3ECE08B3FFC8868640FF
S11308B0B7C88CCE08DBBDF373B6C88C4A2733B7F0
S11308C0C88C474747B7C8468607B7C845860FB799
S11308D0C842B7C843B7C8447EF289F83000E04E36
S11308E04F49534520414C4C204348414E4E454CC2
S11308F053FFC601E770BD098EBDF289108E020058
S1130900C607D7005AD700A6704CC6403D867F97CD
S113091001409701405A26F7C607D700C601D70001
S11309200F018E002E6D7026038E031C301F26FCD3
S1130930BDF2E6313F26C96A702AC1CE07E8FFC876
S1130940867FC88C39BDF1AFC67A8EC800BD0997C1
S1130950CCC87DDD7B0C7D27FC86059728398DE589
S11309608D037E0985BDF1AACC9FFFDD02CC010079
S1130970DD00CC987F970BD704BD0A30CC3075FDD1
S1130980C83DDD0839CC0E00BDF2564A2AFAC60D20
S11309908EC83F863FA7064FA7855A2AFB39BDF26A
S11309A059ECC12AF939865F7EF2ABBDF2E6BEC8C6
S11309B025301FBFC825C620D50D27FCFCC83DDD4A
S11309C008399701867F97040F00200AC67FD70451
S11309D0EC8197010F0086CE970C0F0A0C00D7010B
S11309E00F05C640D50D27FC39D704B7C823EC84BE
S11309F097010F003002120C00D701CC0000201721
S1130A00EC81D704B7C823EC8497010F003002129D
S1130A100C00D701CCFF00970AD705CC0040D50DB8
S1130A2027FC12970AB6C8234A2AD9B6C82427161F
S1130A30CC00CCD70C970ACC03020F019700D70047
S1130A40D700C601D70039C67FD704A6842E1F0F4E
S1130A500AE601D7010A00E60230030C00D7019729
S1130A600A0F05A684C640D50D27FC4D2FE10F0AB9
S1130A7020B9B4C80FB7C80F8EC812A61DA71E860A
S1130A800E9701CC1901970012D7000F03CC09016E
S1130A90970012960143A71DD700C6FFD70343AAA8
S1130AA01E43A71F3402C6011F98A4E4A78058263A
S1130AB0F7358286078EC81F0F0197000A00C660AB
S1130AC05C2AFD0C0020061F989A01970186209548
S1130AD00026061F989801970154F1C81A26E8DCED
S1130AE000E01FE703D601E782840780022AC939A0
S1130AF04AB7C823EC8497010F0030020C00D701D9
S1130B00B6C829C640970A0F05D50D12270B0F0A40
S1130B10B6C82326DB39B6C829970A12D50D27F69D
S1130B20B6C8230F0A4D26C87E0A2BA6802A048D38
S1130B30C320F82605BD09EE20F14A2705BD0A07A2
S1130B4020E93502B7C8247E0A2BE6C6E7864A2A7E
S1130B50F93900000000000000000000000000005F
S1130B600000000000000000000000000000000081
S1130B700000000000000000000000000000000071
S1130B800000000000000000000000000000000061
S1130B900000000000000000000000000000000051
S1130FF0000000000000000000000000000000FFEE
S9030000FC
